{
  "contractName": "SurveyCore",
  "abi": [
    {
      "constant": true,
      "inputs": [],
      "name": "name",
      "outputs": [
        {
          "name": "",
          "type": "string"
        }
      ],
      "payable": false,
      "stateMutability": "view",
      "type": "function"
    },
    {
      "constant": false,
      "inputs": [
        {
          "name": "spender",
          "type": "address"
        },
        {
          "name": "value",
          "type": "uint256"
        }
      ],
      "name": "approve",
      "outputs": [
        {
          "name": "",
          "type": "bool"
        }
      ],
      "payable": false,
      "stateMutability": "nonpayable",
      "type": "function"
    },
    {
      "constant": false,
      "inputs": [
        {
          "name": "_surveyId",
          "type": "uint256"
        },
        {
          "name": "_price",
          "type": "uint256"
        }
      ],
      "name": "addSurveyMarket",
      "outputs": [
        {
          "name": "",
          "type": "bool"
        }
      ],
      "payable": false,
      "stateMutability": "nonpayable",
      "type": "function"
    },
    {
      "constant": false,
      "inputs": [
        {
          "name": "_maximumAmount",
          "type": "uint256"
        },
        {
          "name": "_closedAt",
          "type": "uint256"
        }
      ],
      "name": "createFoundation",
      "outputs": [
        {
          "name": "",
          "type": "uint256"
        }
      ],
      "payable": false,
      "stateMutability": "nonpayable",
      "type": "function"
    },
    {
      "constant": true,
      "inputs": [
        {
          "name": "_foundationId",
          "type": "uint256"
        }
      ],
      "name": "getFoundationDetail",
      "outputs": [
        {
          "name": "",
          "type": "uint256"
        },
        {
          "name": "",
          "type": "uint256"
        },
        {
          "name": "",
          "type": "uint256"
        },
        {
          "name": "",
          "type": "uint256"
        },
        {
          "name": "",
          "type": "bool"
        }
      ],
      "payable": false,
      "stateMutability": "view",
      "type": "function"
    },
    {
      "constant": true,
      "inputs": [],
      "name": "totalSupply",
      "outputs": [
        {
          "name": "",
          "type": "uint256"
        }
      ],
      "payable": false,
      "stateMutability": "view",
      "type": "function"
    },
    {
      "constant": true,
      "inputs": [],
      "name": "getSurveyResponseReceiptList",
      "outputs": [
        {
          "name": "",
          "type": "uint256[]"
        }
      ],
      "payable": false,
      "stateMutability": "view",
      "type": "function"
    },
    {
      "constant": false,
      "inputs": [
        {
          "name": "_surveyId",
          "type": "uint256"
        }
      ],
      "name": "buySurvey",
      "outputs": [
        {
          "name": "",
          "type": "uint256"
        }
      ],
      "payable": false,
      "stateMutability": "nonpayable",
      "type": "function"
    },
    {
      "constant": false,
      "inputs": [
        {
          "name": "from",
          "type": "address"
        },
        {
          "name": "to",
          "type": "address"
        },
        {
          "name": "value",
          "type": "uint256"
        }
      ],
      "name": "transferFrom",
      "outputs": [
        {
          "name": "",
          "type": "bool"
        }
      ],
      "payable": false,
      "stateMutability": "nonpayable",
      "type": "function"
    },
    {
      "constant": false,
      "inputs": [
        {
          "name": "_maximumCount",
          "type": "uint256"
        },
        {
          "name": "_startedAt",
          "type": "uint256"
        },
        {
          "name": "_questionCount",
          "type": "uint8"
        }
      ],
      "name": "requestSurvey",
      "outputs": [
        {
          "name": "",
          "type": "uint256"
        }
      ],
      "payable": false,
      "stateMutability": "nonpayable",
      "type": "function"
    },
    {
      "constant": true,
      "inputs": [],
      "name": "decimals",
      "outputs": [
        {
          "name": "",
          "type": "uint8"
        }
      ],
      "payable": false,
      "stateMutability": "view",
      "type": "function"
    },
    {
      "constant": false,
      "inputs": [
        {
          "name": "_foundationId",
          "type": "uint256"
        },
        {
          "name": "_value",
          "type": "uint256"
        }
      ],
      "name": "donation",
      "outputs": [
        {
          "name": "",
          "type": "uint256"
        }
      ],
      "payable": false,
      "stateMutability": "nonpayable",
      "type": "function"
    },
    {
      "constant": true,
      "inputs": [],
      "name": "getFoundationDonateReceiptList",
      "outputs": [
        {
          "name": "",
          "type": "uint256[]"
        }
      ],
      "payable": false,
      "stateMutability": "view",
      "type": "function"
    },
    {
      "constant": false,
      "inputs": [
        {
          "name": "spender",
          "type": "address"
        },
        {
          "name": "addedValue",
          "type": "uint256"
        }
      ],
      "name": "increaseAllowance",
      "outputs": [
        {
          "name": "",
          "type": "bool"
        }
      ],
      "payable": false,
      "stateMutability": "nonpayable",
      "type": "function"
    },
    {
      "constant": false,
      "inputs": [],
      "name": "unpause",
      "outputs": [],
      "payable": false,
      "stateMutability": "nonpayable",
      "type": "function"
    },
    {
      "constant": true,
      "inputs": [
        {
          "name": "_receiptId",
          "type": "uint256"
        }
      ],
      "name": "getReceiptDetail",
      "outputs": [
        {
          "name": "",
          "type": "uint8"
        },
        {
          "name": "",
          "type": "uint8"
        },
        {
          "name": "",
          "type": "address"
        },
        {
          "name": "",
          "type": "address"
        },
        {
          "name": "",
          "type": "uint256"
        },
        {
          "name": "",
          "type": "uint256"
        },
        {
          "name": "",
          "type": "uint256"
        }
      ],
      "payable": false,
      "stateMutability": "view",
      "type": "function"
    },
    {
      "constant": true,
      "inputs": [],
      "name": "getProductBuyReceiptList",
      "outputs": [
        {
          "name": "",
          "type": "uint256[]"
        }
      ],
      "payable": false,
      "stateMutability": "view",
      "type": "function"
    },
    {
      "constant": true,
      "inputs": [],
      "name": "paused",
      "outputs": [
        {
          "name": "",
          "type": "bool"
        }
      ],
      "payable": false,
      "stateMutability": "view",
      "type": "function"
    },
    {
      "constant": true,
      "inputs": [
        {
          "name": "_surveyId",
          "type": "uint256"
        }
      ],
      "name": "getSurveyRequestDetail",
      "outputs": [
        {
          "name": "",
          "type": "uint256"
        },
        {
          "name": "",
          "type": "uint256"
        },
        {
          "name": "",
          "type": "uint256"
        },
        {
          "name": "",
          "type": "uint256"
        },
        {
          "name": "",
          "type": "uint256"
        },
        {
          "name": "",
          "type": "uint256"
        },
        {
          "name": "",
          "type": "uint8"
        },
        {
          "name": "",
          "type": "bool"
        }
      ],
      "payable": false,
      "stateMutability": "view",
      "type": "function"
    },
    {
      "constant": true,
      "inputs": [],
      "name": "getOwnerReceiptList",
      "outputs": [
        {
          "name": "",
          "type": "uint256[]"
        }
      ],
      "payable": false,
      "stateMutability": "view",
      "type": "function"
    },
    {
      "constant": true,
      "inputs": [
        {
          "name": "owner",
          "type": "address"
        }
      ],
      "name": "balanceOf",
      "outputs": [
        {
          "name": "",
          "type": "uint256"
        }
      ],
      "payable": false,
      "stateMutability": "view",
      "type": "function"
    },
    {
      "constant": true,
      "inputs": [],
      "name": "getFoundationRequestReceiptList",
      "outputs": [
        {
          "name": "",
          "type": "uint256[]"
        }
      ],
      "payable": false,
      "stateMutability": "view",
      "type": "function"
    },
    {
      "constant": false,
      "inputs": [
        {
          "name": "to",
          "type": "address"
        },
        {
          "name": "value",
          "type": "uint256"
        }
      ],
      "name": "faucet",
      "outputs": [
        {
          "name": "",
          "type": "bool"
        }
      ],
      "payable": false,
      "stateMutability": "nonpayable",
      "type": "function"
    },
    {
      "constant": true,
      "inputs": [],
      "name": "getSurveySellReceiptList",
      "outputs": [
        {
          "name": "",
          "type": "uint256[]"
        }
      ],
      "payable": false,
      "stateMutability": "view",
      "type": "function"
    },
    {
      "constant": false,
      "inputs": [
        {
          "name": "_surveyId",
          "type": "uint256"
        }
      ],
      "name": "cancelSurveyMarket",
      "outputs": [
        {
          "name": "",
          "type": "bool"
        }
      ],
      "payable": false,
      "stateMutability": "nonpayable",
      "type": "function"
    },
    {
      "constant": false,
      "inputs": [],
      "name": "pause",
      "outputs": [],
      "payable": false,
      "stateMutability": "nonpayable",
      "type": "function"
    },
    {
      "constant": true,
      "inputs": [
        {
          "name": "owner",
          "type": "address"
        }
      ],
      "name": "consumeBalanceOf",
      "outputs": [
        {
          "name": "",
          "type": "uint256"
        }
      ],
      "payable": false,
      "stateMutability": "view",
      "type": "function"
    },
    {
      "constant": true,
      "inputs": [],
      "name": "symbol",
      "outputs": [
        {
          "name": "",
          "type": "string"
        }
      ],
      "payable": false,
      "stateMutability": "view",
      "type": "function"
    },
    {
      "constant": true,
      "inputs": [
        {
          "name": "_surveyId",
          "type": "uint256"
        }
      ],
      "name": "isBuyableSurvey",
      "outputs": [
        {
          "name": "",
          "type": "bool"
        }
      ],
      "payable": false,
      "stateMutability": "view",
      "type": "function"
    },
    {
      "constant": false,
      "inputs": [
        {
          "name": "spender",
          "type": "address"
        },
        {
          "name": "subtractedValue",
          "type": "uint256"
        }
      ],
      "name": "decreaseAllowance",
      "outputs": [
        {
          "name": "",
          "type": "bool"
        }
      ],
      "payable": false,
      "stateMutability": "nonpayable",
      "type": "function"
    },
    {
      "constant": true,
      "inputs": [],
      "name": "getProductSellReceiptList",
      "outputs": [
        {
          "name": "",
          "type": "uint256[]"
        }
      ],
      "payable": false,
      "stateMutability": "view",
      "type": "function"
    },
    {
      "constant": false,
      "inputs": [
        {
          "name": "to",
          "type": "address"
        },
        {
          "name": "value",
          "type": "uint256"
        }
      ],
      "name": "transfer",
      "outputs": [
        {
          "name": "",
          "type": "bool"
        }
      ],
      "payable": false,
      "stateMutability": "nonpayable",
      "type": "function"
    },
    {
      "constant": true,
      "inputs": [],
      "name": "getSurveyRequestReceiptList",
      "outputs": [
        {
          "name": "",
          "type": "uint256[]"
        }
      ],
      "payable": false,
      "stateMutability": "view",
      "type": "function"
    },
    {
      "constant": true,
      "inputs": [],
      "name": "getSurveyBuyReceiptList",
      "outputs": [
        {
          "name": "",
          "type": "uint256[]"
        }
      ],
      "payable": false,
      "stateMutability": "view",
      "type": "function"
    },
    {
      "constant": true,
      "inputs": [],
      "name": "developerAddress",
      "outputs": [
        {
          "name": "",
          "type": "address"
        }
      ],
      "payable": false,
      "stateMutability": "view",
      "type": "function"
    },
    {
      "constant": true,
      "inputs": [
        {
          "name": "_surveyId",
          "type": "uint256"
        }
      ],
      "name": "getSurveyBuyerList",
      "outputs": [
        {
          "name": "",
          "type": "address[]"
        }
      ],
      "payable": false,
      "stateMutability": "view",
      "type": "function"
    },
    {
      "constant": true,
      "inputs": [
        {
          "name": "_surveyId",
          "type": "uint256"
        },
        {
          "name": "_account",
          "type": "address"
        }
      ],
      "name": "isSurveyToBuyer",
      "outputs": [
        {
          "name": "",
          "type": "bool"
        }
      ],
      "payable": false,
      "stateMutability": "view",
      "type": "function"
    },
    {
      "constant": true,
      "inputs": [
        {
          "name": "owner",
          "type": "address"
        },
        {
          "name": "spender",
          "type": "address"
        }
      ],
      "name": "allowance",
      "outputs": [
        {
          "name": "",
          "type": "uint256"
        }
      ],
      "payable": false,
      "stateMutability": "view",
      "type": "function"
    },
    {
      "constant": true,
      "inputs": [],
      "name": "PRICE_PER_QUESTION",
      "outputs": [
        {
          "name": "",
          "type": "uint256"
        }
      ],
      "payable": false,
      "stateMutability": "view",
      "type": "function"
    },
    {
      "constant": false,
      "inputs": [
        {
          "name": "_surveyId",
          "type": "uint256"
        }
      ],
      "name": "responseSurvey",
      "outputs": [
        {
          "name": "",
          "type": "uint256"
        }
      ],
      "payable": false,
      "stateMutability": "nonpayable",
      "type": "function"
    },
    {
      "constant": false,
      "inputs": [
        {
          "name": "_newDeveloperAddress",
          "type": "address"
        }
      ],
      "name": "setDeveloper",
      "outputs": [],
      "payable": false,
      "stateMutability": "nonpayable",
      "type": "function"
    },
    {
      "inputs": [],
      "payable": false,
      "stateMutability": "nonpayable",
      "type": "constructor"
    },
    {
      "anonymous": false,
      "inputs": [
        {
          "indexed": false,
          "name": "foundationId",
          "type": "uint256"
        },
        {
          "indexed": false,
          "name": "price",
          "type": "uint256"
        }
      ],
      "name": "Donation",
      "type": "event"
    },
    {
      "anonymous": false,
      "inputs": [
        {
          "indexed": false,
          "name": "surveyId",
          "type": "uint256"
        },
        {
          "indexed": false,
          "name": "price",
          "type": "uint256"
        }
      ],
      "name": "AddSurveyMarket",
      "type": "event"
    },
    {
      "anonymous": false,
      "inputs": [
        {
          "indexed": false,
          "name": "surveyId",
          "type": "uint256"
        }
      ],
      "name": "CancelSurveyMarket",
      "type": "event"
    },
    {
      "anonymous": false,
      "inputs": [
        {
          "indexed": false,
          "name": "surveyId",
          "type": "uint256"
        },
        {
          "indexed": false,
          "name": "price",
          "type": "uint256"
        }
      ],
      "name": "BuySurvey",
      "type": "event"
    },
    {
      "anonymous": false,
      "inputs": [
        {
          "indexed": false,
          "name": "surveyId",
          "type": "uint256"
        },
        {
          "indexed": false,
          "name": "reward",
          "type": "uint256"
        }
      ],
      "name": "ResponseSurvey",
      "type": "event"
    },
    {
      "anonymous": false,
      "inputs": [
        {
          "indexed": true,
          "name": "from",
          "type": "address"
        },
        {
          "indexed": true,
          "name": "to",
          "type": "address"
        },
        {
          "indexed": false,
          "name": "value",
          "type": "uint256"
        }
      ],
      "name": "Transfer",
      "type": "event"
    },
    {
      "anonymous": false,
      "inputs": [
        {
          "indexed": true,
          "name": "owner",
          "type": "address"
        },
        {
          "indexed": true,
          "name": "spender",
          "type": "address"
        },
        {
          "indexed": false,
          "name": "value",
          "type": "uint256"
        }
      ],
      "name": "Approval",
      "type": "event"
    },
    {
      "anonymous": false,
      "inputs": [
        {
          "indexed": false,
          "name": "surveyId",
          "type": "uint256"
        },
        {
          "indexed": true,
          "name": "account",
          "type": "address"
        }
      ],
      "name": "BuyerAdded",
      "type": "event"
    },
    {
      "anonymous": false,
      "inputs": [
        {
          "indexed": false,
          "name": "surveyId",
          "type": "uint256"
        },
        {
          "indexed": true,
          "name": "account",
          "type": "address"
        }
      ],
      "name": "BuyerRemoved",
      "type": "event"
    },
    {
      "anonymous": false,
      "inputs": [
        {
          "indexed": false,
          "name": "surveyId",
          "type": "uint256"
        },
        {
          "indexed": false,
          "name": "owner",
          "type": "address"
        }
      ],
      "name": "CreateSurvey",
      "type": "event"
    },
    {
      "anonymous": false,
      "inputs": [
        {
          "indexed": false,
          "name": "receiptId",
          "type": "uint256"
        },
        {
          "indexed": false,
          "name": "owner",
          "type": "address"
        }
      ],
      "name": "CreateReceipt",
      "type": "event"
    },
    {
      "anonymous": false,
      "inputs": [
        {
          "indexed": false,
          "name": "foundationId",
          "type": "uint256"
        },
        {
          "indexed": false,
          "name": "owner",
          "type": "address"
        }
      ],
      "name": "CreateFoundation",
      "type": "event"
    },
    {
      "anonymous": false,
      "inputs": [
        {
          "indexed": false,
          "name": "productId",
          "type": "uint256"
        },
        {
          "indexed": false,
          "name": "owner",
          "type": "address"
        }
      ],
      "name": "CreateProduct",
      "type": "event"
    }
  ],
  "bytecode": "0x608060405260008060146101000a81548160ff0219169083151502179055506040805190810160405280600781526020017f494e4f434f494e00000000000000000000000000000000000000000000000000815250601990805190602001906200006b929190620002fd565b506012601a60006101000a81548160ff021916908360ff1602179055506040805190810160405280600381526020017f494e430000000000000000000000000000000000000000000000000000000000815250601b9080519060200190620000d5929190620002fd565b50348015620000e357600080fd5b5060008060146101000a81548160ff021916908315150217905550336000806101000a81548173ffffffffffffffffffffffffffffffffffffffff021916908373ffffffffffffffffffffffffffffffffffffffff1602179055506200015e3364e8d4a5100062000164640100000000026401000000009004565b620003ac565b600073ffffffffffffffffffffffffffffffffffffffff168273ffffffffffffffffffffffffffffffffffffffff1614151515620001a157600080fd5b620001c681601854620002db64010000000002620042ee179091906401000000009004565b6018819055506200022e81601660008573ffffffffffffffffffffffffffffffffffffffff1673ffffffffffffffffffffffffffffffffffffffff16815260200190815260200160002054620002db64010000000002620042ee179091906401000000009004565b601660008473ffffffffffffffffffffffffffffffffffffffff1673ffffffffffffffffffffffffffffffffffffffff168152602001908152602001600020819055508173ffffffffffffffffffffffffffffffffffffffff16600073ffffffffffffffffffffffffffffffffffffffff167fddf252ad1be2c89b69c2b068fc378daa952ba7f163c4a11628f55a4df523b3ef836040518082815260200191505060405180910390a35050565b6000808284019050838110151515620002f357600080fd5b8091505092915050565b828054600181600116156101000203166002900490600052602060002090601f016020900481019282601f106200034057805160ff191683800117855562000371565b8280016001018555821562000371579182015b828111156200037057825182559160200191906001019062000353565b5b50905062000380919062000384565b5090565b620003a991905b80821115620003a55760008160009055506001016200038b565b5090565b90565b61475f80620003bc6000396000f3fe6080604052600436106101f9576000357c0100000000000000000000000000000000000000000000000000000000900463ffffffff16806306fdde03146101fe578063095ea7b31461028e5780630c7ef926146103015780630ce38eb61461035e5780630fbafaf9146103b757806318160ddd146104265780631f6a0d251461045157806322929dbc146104bd57806323b872dd1461050c578063282f162b1461059f578063313ce5671461060557806336d1e2dd14610636578063385a44f81461068f57806339509351146106fb5780633f4ba83a1461076e57806354128fa11461078557806357b2c03c146108725780635c975abb146108de5780636b945e781461090d5780636dfa06421461099757806370a0823114610a035780637809aada14610a685780637b56c2b214610ad4578063834849d214610b4757806383db29e814610bb35780638456cb5914610c0657806387a29c2814610c1d57806395d89b4114610c82578063a11842ff14610d12578063a457c2d714610d65578063a6c16e6c14610dd8578063a9059cbb14610e44578063b84a540f14610eb7578063c7c700b714610f23578063caccd7f714610f8f578063d0e27da814610fe6578063d455419314611076578063dd62ed3e146110e9578063de906fed1461116e578063f03e818114611199578063ff70fa49146111e8575b600080fd5b34801561020a57600080fd5b50610213611239565b6040518080602001828103825283818151815260200191508051906020019080838360005b83811015610253578082015181840152602081019050610238565b50505050905090810190601f1680156102805780820380516001836020036101000a031916815260200191505b509250505060405180910390f35b34801561029a57600080fd5b506102e7600480360360408110156102b157600080fd5b81019080803573ffffffffffffffffffffffffffffffffffffffff169060200190929190803590602001909291905050506112db565b604051808215151515815260200191505060405180910390f35b34801561030d57600080fd5b506103446004803603604081101561032457600080fd5b810190808035906020019092919080359060200190929190505050611408565b604051808215151515815260200191505060405180910390f35b34801561036a57600080fd5b506103a16004803603604081101561038157600080fd5b81019080803590602001909291908035906020019092919050505061151f565b6040518082815260200191505060405180910390f35b3480156103c357600080fd5b506103f0600480360360208110156103da57600080fd5b8101908080359060200190929190505050611550565b60405180868152602001858152602001848152602001838152602001821515151581526020019550505050505060405180910390f35b34801561043257600080fd5b5061043b61161d565b6040518082815260200191505060405180910390f35b34801561045d57600080fd5b50610466611627565b6040518080602001828103825283818151815260200191508051906020019060200280838360005b838110156104a957808201518184015260208101905061048e565b505050509050019250505060405180910390f35b3480156104c957600080fd5b506104f6600480360360208110156104e057600080fd5b81019080803590602001909291905050506116bc565b6040518082815260200191505060405180910390f35b34801561051857600080fd5b506105856004803603606081101561052f57600080fd5b81019080803573ffffffffffffffffffffffffffffffffffffffff169060200190929190803573ffffffffffffffffffffffffffffffffffffffff169060200190929190803590602001909291905050506118b6565b604051808215151515815260200191505060405180910390f35b3480156105ab57600080fd5b506105ef600480360360608110156105c257600080fd5b810190808035906020019092919080359060200190929190803560ff169060200190929190505050611abe565b6040518082815260200191505060405180910390f35b34801561061157600080fd5b5061061a611b6d565b604051808260ff1660ff16815260200191505060405180910390f35b34801561064257600080fd5b506106796004803603604081101561065957600080fd5b810190808035906020019092919080359060200190929190505050611b84565b6040518082815260200191505060405180910390f35b34801561069b57600080fd5b506106a4611d8a565b6040518080602001828103825283818151815260200191508051906020019060200280838360005b838110156106e75780820151818401526020810190506106cc565b505050509050019250505060405180910390f35b34801561070757600080fd5b506107546004803603604081101561071e57600080fd5b81019080803573ffffffffffffffffffffffffffffffffffffffff16906020019092919080359060200190929190505050611e1f565b604051808215151515815260200191505060405180910390f35b34801561077a57600080fd5b50610783612056565b005b34801561079157600080fd5b506107be600480360360208110156107a857600080fd5b81019080803590602001909291905050506121ba565b604051808860028111156107ce57fe5b60ff1681526020018760058111156107e257fe5b60ff1681526020018673ffffffffffffffffffffffffffffffffffffffff1673ffffffffffffffffffffffffffffffffffffffff1681526020018573ffffffffffffffffffffffffffffffffffffffff1673ffffffffffffffffffffffffffffffffffffffff16815260200184815260200183815260200182815260200197505050505050505060405180910390f35b34801561087e57600080fd5b5061088761238e565b6040518080602001828103825283818151815260200191508051906020019060200280838360005b838110156108ca5780820151818401526020810190506108af565b505050509050019250505060405180910390f35b3480156108ea57600080fd5b506108f3612423565b604051808215151515815260200191505060405180910390f35b34801561091957600080fd5b506109466004803603602081101561093057600080fd5b8101908080359060200190929190505050612436565b604051808981526020018881526020018781526020018681526020018581526020018481526020018360ff1660ff168152602001821515151581526020019850505050505050505060405180910390f35b3480156109a357600080fd5b506109ac61252e565b6040518080602001828103825283818151815260200191508051906020019060200280838360005b838110156109ef5780820151818401526020810190506109d4565b505050509050019250505060405180910390f35b348015610a0f57600080fd5b50610a5260048036036020811015610a2657600080fd5b81019080803573ffffffffffffffffffffffffffffffffffffffff1690602001909291905050506125c3565b6040518082815260200191505060405180910390f35b348015610a7457600080fd5b50610a7d61260c565b6040518080602001828103825283818151815260200191508051906020019060200280838360005b83811015610ac0578082015181840152602081019050610aa5565b505050509050019250505060405180910390f35b348015610ae057600080fd5b50610b2d60048036036040811015610af757600080fd5b81019080803573ffffffffffffffffffffffffffffffffffffffff169060200190929190803590602001909291905050506126a1565b604051808215151515815260200191505060405180910390f35b348015610b5357600080fd5b50610b5c61277b565b6040518080602001828103825283818151815260200191508051906020019060200280838360005b83811015610b9f578082015181840152602081019050610b84565b505050509050019250505060405180910390f35b348015610bbf57600080fd5b50610bec60048036036020811015610bd657600080fd5b8101908080359060200190929190505050612810565b604051808215151515815260200191505060405180910390f35b348015610c1257600080fd5b50610c1b612920565b005b348015610c2957600080fd5b50610c6c60048036036020811015610c4057600080fd5b81019080803573ffffffffffffffffffffffffffffffffffffffff169060200190929190505050612a86565b6040518082815260200191505060405180910390f35b348015610c8e57600080fd5b50610c97612acf565b6040518080602001828103825283818151815260200191508051906020019080838360005b83811015610cd7578082015181840152602081019050610cbc565b50505050905090810190601f168015610d045780820380516001836020036101000a031916815260200191505b509250505060405180910390f35b348015610d1e57600080fd5b50610d4b60048036036020811015610d3557600080fd5b8101908080359060200190929190505050612b71565b604051808215151515815260200191505060405180910390f35b348015610d7157600080fd5b50610dbe60048036036040811015610d8857600080fd5b81019080803573ffffffffffffffffffffffffffffffffffffffff16906020019092919080359060200190929190505050612ba8565b604051808215151515815260200191505060405180910390f35b348015610de457600080fd5b50610ded612ddf565b6040518080602001828103825283818151815260200191508051906020019060200280838360005b83811015610e30578082015181840152602081019050610e15565b505050509050019250505060405180910390f35b348015610e5057600080fd5b50610e9d60048036036040811015610e6757600080fd5b81019080803573ffffffffffffffffffffffffffffffffffffffff16906020019092919080359060200190929190505050612e74565b604051808215151515815260200191505060405180910390f35b348015610ec357600080fd5b50610ecc612e8b565b6040518080602001828103825283818151815260200191508051906020019060200280838360005b83811015610f0f578082015181840152602081019050610ef4565b505050509050019250505060405180910390f35b348015610f2f57600080fd5b50610f38612f20565b6040518080602001828103825283818151815260200191508051906020019060200280838360005b83811015610f7b578082015181840152602081019050610f60565b505050509050019250505060405180910390f35b348015610f9b57600080fd5b50610fa4612fb5565b604051808273ffffffffffffffffffffffffffffffffffffffff1673ffffffffffffffffffffffffffffffffffffffff16815260200191505060405180910390f35b348015610ff257600080fd5b5061101f6004803603602081101561100957600080fd5b8101908080359060200190929190505050612fda565b6040518080602001828103825283818151815260200191508051906020019060200280838360005b83811015611062578082015181840152602081019050611047565b505050509050019250505060405180910390f35b34801561108257600080fd5b506110cf6004803603604081101561109957600080fd5b8101908080359060200190929190803573ffffffffffffffffffffffffffffffffffffffff16906020019092919050505061307b565b604051808215151515815260200191505060405180910390f35b3480156110f557600080fd5b506111586004803603604081101561110c57600080fd5b81019080803573ffffffffffffffffffffffffffffffffffffffff169060200190929190803573ffffffffffffffffffffffffffffffffffffffff1690602001909291905050506130aa565b6040518082815260200191505060405180910390f35b34801561117a57600080fd5b50611183613131565b6040518082815260200191505060405180910390f35b3480156111a557600080fd5b506111d2600480360360208110156111bc57600080fd5b8101908080359060200190929190505050613136565b6040518082815260200191505060405180910390f35b3480156111f457600080fd5b506112376004803603602081101561120b57600080fd5b81019080803573ffffffffffffffffffffffffffffffffffffffff169060200190929190505050613242565b005b606060198054600181600116156101000203166002900480601f0160208091040260200160405190810160405280929190818152602001828054600181600116156101000203166002900480156112d15780601f106112a6576101008083540402835291602001916112d1565b820191906000526020600020905b8154815290600101906020018083116112b457829003601f168201915b5050505050905090565b60008073ffffffffffffffffffffffffffffffffffffffff168373ffffffffffffffffffffffffffffffffffffffff161415151561131857600080fd5b81601760003373ffffffffffffffffffffffffffffffffffffffff1673ffffffffffffffffffffffffffffffffffffffff16815260200190815260200160002060008573ffffffffffffffffffffffffffffffffffffffff1673ffffffffffffffffffffffffffffffffffffffff168152602001908152602001600020819055508273ffffffffffffffffffffffffffffffffffffffff163373ffffffffffffffffffffffffffffffffffffffff167f8c5be1e5ebec7d5bd14f71427d1e84f3dd0314c0f7b2291e5b200ac8c7c3b925846040518082815260200191505060405180910390a36001905092915050565b6000823373ffffffffffffffffffffffffffffffffffffffff166005600083815260200190815260200160002060009054906101000a900473ffffffffffffffffffffffffffffffffffffffff1673ffffffffffffffffffffffffffffffffffffffff1614151561147857600080fd5b8260018581548110151561148857fe5b906000526020600020906007020160010181905550600180858154811015156114ad57fe5b906000526020600020906007020160060160016101000a81548160ff0219169083151502179055507f73311bf53855012501413b9a4851a8bfa12078b9b1d28238e40fe2c6ab4b41a48484604051808381526020018281526020019250505060405180910390a1600191505092915050565b600080611531600085428660016133ee565b90506115456001600080338560004261356e565b508091505092915050565b600080600080600060038681548110151561156757fe5b90600052602060002090600502016000015460038781548110151561158857fe5b9060005260206000209060050201600101546003888154811015156115a957fe5b9060005260206000209060050201600201546003898154811015156115ca57fe5b90600052602060002090600502016003015460038a8154811015156115eb57fe5b906000526020600020906005020160040160009054906101000a900460ff169450945094509450945091939590929450565b6000601854905090565b6060600c60003373ffffffffffffffffffffffffffffffffffffffff1673ffffffffffffffffffffffffffffffffffffffff1681526020019081526020016000208054806020026020016040519081016040528092919081815260200182805480156116b257602002820191906000526020600020905b81548152602001906001019080831161169e575b5050505050905090565b6000816116c881612b71565b15156116d357600080fd5b6116db614636565b6001848154811015156116ea57fe5b906000526020600020906007020161010060405190810160405290816000820154815260200160018201548152602001600282015481526020016003820154815260200160048201548152602001600582015481526020016006820160009054906101000a900460ff1660ff1660ff1681526020016006820160019054906101000a900460ff161515151581525050905060008160200151905060006117c36005600088815260200190815260200160002060009054906101000a900473ffffffffffffffffffffffffffffffffffffffff1683612e74565b905080156118ac5760006117de6000600330338b884261356e565b9050600960008881526020019081526020016000203390806001815401808255809150509060018203906000526020600020016000909192909190916101000a81548173ffffffffffffffffffffffffffffffffffffffff021916908373ffffffffffffffffffffffffffffffffffffffff160217905550506118618733613dd6565b7f122370579f123c65dbd2d74b59725c0da5f655dbb167182deb5c493cca0a86818784604051808381526020018281526020019250505060405180910390a1809550505050506118b0565b5050505b50919050565b600061194782601760008773ffffffffffffffffffffffffffffffffffffffff1673ffffffffffffffffffffffffffffffffffffffff16815260200190815260200160002060003373ffffffffffffffffffffffffffffffffffffffff1673ffffffffffffffffffffffffffffffffffffffff16815260200190815260200160002054613de490919063ffffffff16565b601760008673ffffffffffffffffffffffffffffffffffffffff1673ffffffffffffffffffffffffffffffffffffffff16815260200190815260200160002060003373ffffffffffffffffffffffffffffffffffffffff1673ffffffffffffffffffffffffffffffffffffffff168152602001908152602001600020819055506119d2848484613e06565b3373ffffffffffffffffffffffffffffffffffffffff168473ffffffffffffffffffffffffffffffffffffffff167f8c5be1e5ebec7d5bd14f71427d1e84f3dd0314c0f7b2291e5b200ac8c7c3b925601760008873ffffffffffffffffffffffffffffffffffffffff1673ffffffffffffffffffffffffffffffffffffffff16815260200190815260200160002060003373ffffffffffffffffffffffffffffffffffffffff1673ffffffffffffffffffffffffffffffffffffffff168152602001908152602001600020546040518082815260200191505060405180910390a3600190509392505050565b60008084600a8460ff16020290506000606460508302811515611add57fe5b0490506000606460508884811515611af157fe5b0402811515611afc57fe5b0490506000611b0a846140d4565b9050611b178385036140ea565b508015611b61576000611b33846000858c60008d8d6000614121565b9050611b3f8133613dd6565b6000611b516000803033868a8f61356e565b9050809650505050505050611b66565b600080fd5b9392505050565b6000601a60009054906101000a900460ff16905090565b6000806007600085815260200190815260200160002060009054906101000a900473ffffffffffffffffffffffffffffffffffffffff169050600384815481101515611bcc57fe5b906000526020600020906005020160040160009054906101000a900460ff1615611d7f57600384815481101515611bff57fe5b906000526020600020906005020160030154421115611c56576000600385815481101515611c2957fe5b906000526020600020906005020160040160006101000a81548160ff021916908315150217905550600080fd5b6000611c628285612e74565b90508015611d7a5783600386815481101515611c7a57fe5b906000526020600020906005020160000160008282540192505081905550600385815481101515611ca757fe5b906000526020600020906005020160000154600386815481101515611cc857fe5b906000526020600020906005020160010154111515611d1b576000600386815481101515611cf257fe5b906000526020600020906005020160040160006101000a81548160ff0219169083151502179055505b6000611d2e6001600285338a8a4261356e565b90507f965f7409cc0fd75aafcf803f57c201a8530900e4a4cbc0c622b1ea8f4cfbcf478686604051808381526020018281526020019250505060405180910390a1809350505050611d84565b600080fd5b600080fd5b92915050565b6060601160003373ffffffffffffffffffffffffffffffffffffffff1673ffffffffffffffffffffffffffffffffffffffff168152602001908152602001600020805480602002602001604051908101604052809291908181526020018280548015611e1557602002820191906000526020600020905b815481526020019060010190808311611e01575b5050505050905090565b60008073ffffffffffffffffffffffffffffffffffffffff168373ffffffffffffffffffffffffffffffffffffffff1614151515611e5c57600080fd5b611eeb82601760003373ffffffffffffffffffffffffffffffffffffffff1673ffffffffffffffffffffffffffffffffffffffff16815260200190815260200160002060008673ffffffffffffffffffffffffffffffffffffffff1673ffffffffffffffffffffffffffffffffffffffff168152602001908152602001600020546142ee90919063ffffffff16565b601760003373ffffffffffffffffffffffffffffffffffffffff1673ffffffffffffffffffffffffffffffffffffffff16815260200190815260200160002060008573ffffffffffffffffffffffffffffffffffffffff1673ffffffffffffffffffffffffffffffffffffffff168152602001908152602001600020819055508273ffffffffffffffffffffffffffffffffffffffff163373ffffffffffffffffffffffffffffffffffffffff167f8c5be1e5ebec7d5bd14f71427d1e84f3dd0314c0f7b2291e5b200ac8c7c3b925601760003373ffffffffffffffffffffffffffffffffffffffff1673ffffffffffffffffffffffffffffffffffffffff16815260200190815260200160002060008773ffffffffffffffffffffffffffffffffffffffff1673ffffffffffffffffffffffffffffffffffffffff168152602001908152602001600020546040518082815260200191505060405180910390a36001905092915050565b6000809054906101000a900473ffffffffffffffffffffffffffffffffffffffff1673ffffffffffffffffffffffffffffffffffffffff163373ffffffffffffffffffffffffffffffffffffffff1614151561211a576040517f08c379a00000000000000000000000000000000000000000000000000000000081526004018080602001828103825260098152602001807f4e6f74204f776e6572000000000000000000000000000000000000000000000081525060200191505060405180910390fd5b600060149054906101000a900460ff16151561219e576040517f08c379a000000000000000000000000000000000000000000000000000000000815260040180806020018281038252600b8152602001807f6e6f74207061757365642e00000000000000000000000000000000000000000081525060200191505060405180910390fd5b60008060146101000a81548160ff021916908315150217905550565b6000806000806000806000873373ffffffffffffffffffffffffffffffffffffffff166006600083815260200190815260200160002060009054906101000a900473ffffffffffffffffffffffffffffffffffffffff1673ffffffffffffffffffffffffffffffffffffffff1614151561223357600080fd5b60028981548110151561224257fe5b906000526020600020906005020160000160009054906101000a900460ff1660028a81548110151561227057fe5b906000526020600020906005020160000160019054906101000a900460ff1660028b81548110151561229e57fe5b906000526020600020906005020160000160029054906101000a900473ffffffffffffffffffffffffffffffffffffffff1660028c8154811015156122df57fe5b906000526020600020906005020160010160009054906101000a900473ffffffffffffffffffffffffffffffffffffffff1660028d81548110151561232057fe5b90600052602060002090600502016002015460028e81548110151561234157fe5b90600052602060002090600502016003015460028f81548110151561236257fe5b906000526020600020906005020160040154975097509750975097509750975050919395979092949650565b6060601260003373ffffffffffffffffffffffffffffffffffffffff1673ffffffffffffffffffffffffffffffffffffffff16815260200190815260200160002080548060200260200160405190810160405280929190818152602001828054801561241957602002820191906000526020600020905b815481526020019060010190808311612405575b5050505050905090565b600060149054906101000a900460ff1681565b60008060008060008060008061244a614636565b60018a81548110151561245957fe5b906000526020600020906007020161010060405190810160405290816000820154815260200160018201548152602001600282015481526020016003820154815260200160048201548152602001600582015481526020016006820160009054906101000a900460ff1660ff1660ff1681526020016006820160019054906101000a900460ff1615151515815250509050806000015181602001518260400151836060015184608001518560a001518660c001518760e001519850985098509850985098509850985050919395975091939597565b6060600a60003373ffffffffffffffffffffffffffffffffffffffff1673ffffffffffffffffffffffffffffffffffffffff1681526020019081526020016000208054806020026020016040519081016040528092919081815260200182805480156125b957602002820191906000526020600020905b8154815260200190600101908083116125a5575b5050505050905090565b6000601660008373ffffffffffffffffffffffffffffffffffffffff1673ffffffffffffffffffffffffffffffffffffffff168152602001908152602001600020549050919050565b6060601060003373ffffffffffffffffffffffffffffffffffffffff1673ffffffffffffffffffffffffffffffffffffffff16815260200190815260200160002080548060200260200160405190810160405280929190818152602001828054801561269757602002820191906000526020600020905b815481526020019060010190808311612683575b5050505050905090565b60008060009054906101000a900473ffffffffffffffffffffffffffffffffffffffff1673ffffffffffffffffffffffffffffffffffffffff163373ffffffffffffffffffffffffffffffffffffffff16141515612767576040517f08c379a00000000000000000000000000000000000000000000000000000000081526004018080602001828103825260098152602001807f4e6f74204f776e6572000000000000000000000000000000000000000000000081525060200191505060405180910390fd5b612771838361430f565b6001905092915050565b6060600e60003373ffffffffffffffffffffffffffffffffffffffff1673ffffffffffffffffffffffffffffffffffffffff16815260200190815260200160002080548060200260200160405190810160405280929190818152602001828054801561280657602002820191906000526020600020905b8154815260200190600101908083116127f2575b5050505050905090565b6000813373ffffffffffffffffffffffffffffffffffffffff166005600083815260200190815260200160002060009054906101000a900473ffffffffffffffffffffffffffffffffffffffff1673ffffffffffffffffffffffffffffffffffffffff1614151561288057600080fd5b600060018481548110151561289157fe5b90600052602060002090600702016001018190555060006001848154811015156128b757fe5b906000526020600020906007020160060160016101000a81548160ff0219169083151502179055507fc9e9a177ee719e1b3c5f98aa1156d973034683f3b71763f0174dba326568635c836040518082815260200191505060405180910390a16001915050919050565b6000809054906101000a900473ffffffffffffffffffffffffffffffffffffffff1673ffffffffffffffffffffffffffffffffffffffff163373ffffffffffffffffffffffffffffffffffffffff161415156129e4576040517f08c379a00000000000000000000000000000000000000000000000000000000081526004018080602001828103825260098152602001807f4e6f74204f776e6572000000000000000000000000000000000000000000000081525060200191505060405180910390fd5b600060149054906101000a900460ff16151515612a69576040517f08c379a000000000000000000000000000000000000000000000000000000000815260040180806020018281038252600f8152602001807f616c7265616479207061757365642e000000000000000000000000000000000081525060200191505060405180910390fd5b6001600060146101000a81548160ff021916908315150217905550565b6000601560008373ffffffffffffffffffffffffffffffffffffffff1673ffffffffffffffffffffffffffffffffffffffff168152602001908152602001600020549050919050565b6060601b8054600181600116156101000203166002900480601f016020809104026020016040519081016040528092919081815260200182805460018160011615610100020316600290048015612b675780601f10612b3c57610100808354040283529160200191612b67565b820191906000526020600020905b815481529060010190602001808311612b4a57829003601f168201915b5050505050905090565b6000600182815481101515612b8257fe5b906000526020600020906007020160060160019054906101000a900460ff169050919050565b60008073ffffffffffffffffffffffffffffffffffffffff168373ffffffffffffffffffffffffffffffffffffffff1614151515612be557600080fd5b612c7482601760003373ffffffffffffffffffffffffffffffffffffffff1673ffffffffffffffffffffffffffffffffffffffff16815260200190815260200160002060008673ffffffffffffffffffffffffffffffffffffffff1673ffffffffffffffffffffffffffffffffffffffff16815260200190815260200160002054613de490919063ffffffff16565b601760003373ffffffffffffffffffffffffffffffffffffffff1673ffffffffffffffffffffffffffffffffffffffff16815260200190815260200160002060008573ffffffffffffffffffffffffffffffffffffffff1673ffffffffffffffffffffffffffffffffffffffff168152602001908152602001600020819055508273ffffffffffffffffffffffffffffffffffffffff163373ffffffffffffffffffffffffffffffffffffffff167f8c5be1e5ebec7d5bd14f71427d1e84f3dd0314c0f7b2291e5b200ac8c7c3b925601760003373ffffffffffffffffffffffffffffffffffffffff1673ffffffffffffffffffffffffffffffffffffffff16815260200190815260200160002060008773ffffffffffffffffffffffffffffffffffffffff1673ffffffffffffffffffffffffffffffffffffffff168152602001908152602001600020546040518082815260200191505060405180910390a36001905092915050565b6060601360003373ffffffffffffffffffffffffffffffffffffffff1673ffffffffffffffffffffffffffffffffffffffff168152602001908152602001600020805480602002602001604051908101604052809291908181526020018280548015612e6a57602002820191906000526020600020905b815481526020019060010190808311612e56575b5050505050905090565b6000612e81338484613e06565b6001905092915050565b6060600b60003373ffffffffffffffffffffffffffffffffffffffff1673ffffffffffffffffffffffffffffffffffffffff168152602001908152602001600020805480602002602001604051908101604052809291908181526020018280548015612f1657602002820191906000526020600020905b815481526020019060010190808311612f02575b5050505050905090565b6060600d60003373ffffffffffffffffffffffffffffffffffffffff1673ffffffffffffffffffffffffffffffffffffffff168152602001908152602001600020805480602002602001604051908101604052809291908181526020018280548015612fab57602002820191906000526020600020905b815481526020019060010190808311612f97575b5050505050905090565b6000809054906101000a900473ffffffffffffffffffffffffffffffffffffffff1681565b60606009600083815260200190815260200160002080548060200260200160405190810160405280929190818152602001828054801561306f57602002820191906000526020600020905b8160009054906101000a900473ffffffffffffffffffffffffffffffffffffffff1673ffffffffffffffffffffffffffffffffffffffff1681526020019060010190808311613025575b50505050509050919050565b60006130a2826014600086815260200190815260200160002061446590919063ffffffff16565b905092915050565b6000601760008473ffffffffffffffffffffffffffffffffffffffff1673ffffffffffffffffffffffffffffffffffffffff16815260200190815260200160002060008373ffffffffffffffffffffffffffffffffffffffff1673ffffffffffffffffffffffffffffffffffffffff16815260200190815260200160002054905092915050565b600a81565b60008061316260018481548110151561314b57fe5b9060005260206000209060070201600201546144f9565b905080156132385760018381548110151561317957fe5b90600052602060002090600702016004016000815480929190600101919050555060006131cd6000600133308860018a8154811015156131b557fe5b9060005260206000209060070201600201544261356e565b90507f82819c0188b934397683935664e911078968eee7be8134d9027bbcbbb807bab38460018681548110151561320057fe5b906000526020600020906007020160020154604051808381526020018281526020019250505060405180910390a1809250505061323d565b600080fd5b919050565b6000809054906101000a900473ffffffffffffffffffffffffffffffffffffffff1673ffffffffffffffffffffffffffffffffffffffff163373ffffffffffffffffffffffffffffffffffffffff16141515613306576040517f08c379a00000000000000000000000000000000000000000000000000000000081526004018080602001828103825260098152602001807f4e6f74204f776e6572000000000000000000000000000000000000000000000081525060200191505060405180910390fd5b600073ffffffffffffffffffffffffffffffffffffffff168173ffffffffffffffffffffffffffffffffffffffff16141515156133ab576040517f08c379a00000000000000000000000000000000000000000000000000000000081526004018080602001828103825260078152602001807f5761726e696e670000000000000000000000000000000000000000000000000081525060200191505060405180910390fd5b806000806101000a81548173ffffffffffffffffffffffffffffffffffffffff021916908373ffffffffffffffffffffffffffffffffffffffff16021790555050565b60006133f8614681565b60a060405190810160405280888152602001878152602001868152602001858152602001841515815250905060006001600383908060018154018082558091505090600182039060005260206000209060050201600090919290919091506000820151816000015560208201518160010155604082015181600201556060820151816003015560808201518160040160006101000a81548160ff0219169083151502179055505050039050336007600083815260200190815260200160002060006101000a81548173ffffffffffffffffffffffffffffffffffffffff021916908373ffffffffffffffffffffffffffffffffffffffff1602179055507fdc79878c7751be2913fa8baed72a599dd9024b1f3e4e03f25cb24f783eb833fc8133604051808381526020018273ffffffffffffffffffffffffffffffffffffffff1673ffffffffffffffffffffffffffffffffffffffff1681526020019250505060405180910390a1809250505095945050505050565b60006135786146b3565b60e0604051908101604052808a600281111561359057fe5b81526020018960058111156135a157fe5b81526020018873ffffffffffffffffffffffffffffffffffffffff1681526020018773ffffffffffffffffffffffffffffffffffffffff168152602001868152602001858152602001848152509050600060016002839080600181540180825580915050906001820390600052602060002090600502016000909192909190915060008201518160000160006101000a81548160ff0219169083600281111561364657fe5b021790555060208201518160000160016101000a81548160ff0219169083600581111561366f57fe5b021790555060408201518160000160026101000a81548173ffffffffffffffffffffffffffffffffffffffff021916908373ffffffffffffffffffffffffffffffffffffffff16021790555060608201518160010160006101000a81548173ffffffffffffffffffffffffffffffffffffffff021916908373ffffffffffffffffffffffffffffffffffffffff1602179055506080820151816002015560a0820151816003015560c082015181600401555050039050336006600083815260200190815260200160002060006101000a81548173ffffffffffffffffffffffffffffffffffffffff021916908373ffffffffffffffffffffffffffffffffffffffff160217905550600a60003373ffffffffffffffffffffffffffffffffffffffff1673ffffffffffffffffffffffffffffffffffffffff168152602001908152602001600020819080600181540180825580915050906001820390600052602060002001600090919290919091505550600060028111156137ed57fe5b8a60028111156137f957fe5b1415613acd576000600581111561380c57fe5b89600581111561381857fe5b141561388c57600b60003373ffffffffffffffffffffffffffffffffffffffff1673ffffffffffffffffffffffffffffffffffffffff168152602001908152602001600020819080600181540180825580915050906001820390600052602060002001600090919290919091505550613ac8565b6001600581111561389957fe5b8960058111156138a557fe5b141561391957600c60003373ffffffffffffffffffffffffffffffffffffffff1673ffffffffffffffffffffffffffffffffffffffff168152602001908152602001600020819080600181540180825580915050906001820390600052602060002001600090919290919091505550613ac7565b6003600581111561392657fe5b89600581111561393257fe5b14156139a657600d60003373ffffffffffffffffffffffffffffffffffffffff1673ffffffffffffffffffffffffffffffffffffffff168152602001908152602001600020819080600181540180825580915050906001820390600052602060002001600090919290919091505550613ac6565b600460058111156139b357fe5b8960058111156139bf57fe5b1415613a3357600e60003373ffffffffffffffffffffffffffffffffffffffff1673ffffffffffffffffffffffffffffffffffffffff168152602001908152602001600020819080600181540180825580915050906001820390600052602060002001600090919290919091505550613ac5565b600580811115613a3f57fe5b896005811115613a4b57fe5b1415613abf57600f60003373ffffffffffffffffffffffffffffffffffffffff1673ffffffffffffffffffffffffffffffffffffffff168152602001908152602001600020819080600181540180825580915050906001820390600052602060002001600090919290919091505550613ac4565b600080fd5b5b5b5b5b613d5b565b60016002811115613ada57fe5b8a6002811115613ae657fe5b1415613c115760006005811115613af957fe5b896005811115613b0557fe5b1415613b7957601060003373ffffffffffffffffffffffffffffffffffffffff1673ffffffffffffffffffffffffffffffffffffffff168152602001908152602001600020819080600181540180825580915050906001820390600052602060002001600090919290919091505550613c0c565b60026005811115613b8657fe5b896005811115613b9257fe5b1415613c0657601160003373ffffffffffffffffffffffffffffffffffffffff1673ffffffffffffffffffffffffffffffffffffffff168152602001908152602001600020819080600181540180825580915050906001820390600052602060002001600090919290919091505550613c0b565b600080fd5b5b613d5a565b600280811115613c1d57fe5b8a6002811115613c2957fe5b1415613d545760036005811115613c3c57fe5b896005811115613c4857fe5b1415613cbc57601260003373ffffffffffffffffffffffffffffffffffffffff1673ffffffffffffffffffffffffffffffffffffffff168152602001908152602001600020819080600181540180825580915050906001820390600052602060002001600090919290919091505550613d4f565b60046005811115613cc957fe5b896005811115613cd557fe5b1415613d4957601360003373ffffffffffffffffffffffffffffffffffffffff1673ffffffffffffffffffffffffffffffffffffffff168152602001908152602001600020819080600181540180825580915050906001820390600052602060002001600090919290919091505550613d4e565b600080fd5b5b613d59565b600080fd5b5b5b7f648ea8614c7f2c919bde3b01694291faae3d403522f45d971755f2ac0e2faa598133604051808381526020018273ffffffffffffffffffffffffffffffffffffffff1673ffffffffffffffffffffffffffffffffffffffff1681526020019250505060405180910390a18092505050979650505050505050565b613de0828261450f565b5050565b6000828211151515613df557600080fd5b600082840390508091505092915050565b600073ffffffffffffffffffffffffffffffffffffffff168273ffffffffffffffffffffffffffffffffffffffff1614151515613eab576040517f08c379a000000000000000000000000000000000000000000000000000000000815260040180806020018281038252600f8152602001807f6275726e2061646472657373212121000000000000000000000000000000000081525060200191505060405180910390fd5b613efd81601660008673ffffffffffffffffffffffffffffffffffffffff1673ffffffffffffffffffffffffffffffffffffffff16815260200190815260200160002054613de490919063ffffffff16565b601660008573ffffffffffffffffffffffffffffffffffffffff1673ffffffffffffffffffffffffffffffffffffffff16815260200190815260200160002081905550613f9281601660008573ffffffffffffffffffffffffffffffffffffffff1673ffffffffffffffffffffffffffffffffffffffff168152602001908152602001600020546142ee90919063ffffffff16565b601660008473ffffffffffffffffffffffffffffffffffffffff1673ffffffffffffffffffffffffffffffffffffffff1681526020019081526020016000208190555061402781601560008673ffffffffffffffffffffffffffffffffffffffff1673ffffffffffffffffffffffffffffffffffffffff168152602001908152602001600020546142ee90919063ffffffff16565b601560008573ffffffffffffffffffffffffffffffffffffffff1673ffffffffffffffffffffffffffffffffffffffff168152602001908152602001600020819055508173ffffffffffffffffffffffffffffffffffffffff168373ffffffffffffffffffffffffffffffffffffffff167fddf252ad1be2c89b69c2b068fc378daa952ba7f163c4a11628f55a4df523b3ef836040518082815260200191505060405180910390a3505050565b60006140e1333084613e06565b60019050919050565b6000614118306000809054906101000a900473ffffffffffffffffffffffffffffffffffffffff1684613e06565b60019050919050565b600061412b614636565b610100604051908101604052808b81526020018a81526020018981526020018881526020018781526020018681526020018560ff168152602001841515815250905060006001808390806001815401808255809150509060018203906000526020600020906007020160009091929091909150600082015181600001556020820151816001015560408201518160020155606082015181600301556080820151816004015560a0820151816005015560c08201518160060160006101000a81548160ff021916908360ff16021790555060e08201518160060160016101000a81548160ff0219169083151502179055505050039050336005600083815260200190815260200160002060006101000a81548173ffffffffffffffffffffffffffffffffffffffff021916908373ffffffffffffffffffffffffffffffffffffffff1602179055507fecc279af01ecc1616810552807a41a6dcbad8eb3a91a33626b2d35c9dfd5c2d58133604051808381526020018273ffffffffffffffffffffffffffffffffffffffff1673ffffffffffffffffffffffffffffffffffffffff1681526020019250505060405180910390a1809250505098975050505050505050565b600080828401905083811015151561430557600080fd5b8091505092915050565b600073ffffffffffffffffffffffffffffffffffffffff168273ffffffffffffffffffffffffffffffffffffffff161415151561434b57600080fd5b614360816018546142ee90919063ffffffff16565b6018819055506143b881601660008573ffffffffffffffffffffffffffffffffffffffff1673ffffffffffffffffffffffffffffffffffffffff168152602001908152602001600020546142ee90919063ffffffff16565b601660008473ffffffffffffffffffffffffffffffffffffffff1673ffffffffffffffffffffffffffffffffffffffff168152602001908152602001600020819055508173ffffffffffffffffffffffffffffffffffffffff16600073ffffffffffffffffffffffffffffffffffffffff167fddf252ad1be2c89b69c2b068fc378daa952ba7f163c4a11628f55a4df523b3ef836040518082815260200191505060405180910390a35050565b60008073ffffffffffffffffffffffffffffffffffffffff168273ffffffffffffffffffffffffffffffffffffffff16141515156144a257600080fd5b8260000160008373ffffffffffffffffffffffffffffffffffffffff1673ffffffffffffffffffffffffffffffffffffffff16815260200190815260200160002060009054906101000a900460ff16905092915050565b6000614506303384613e06565b60019050919050565b614534816014600085815260200190815260200160002061458690919063ffffffff16565b8073ffffffffffffffffffffffffffffffffffffffff167fd28f937e71e8a89ddbefb8937335b2ae03fb74ce63dd6a6f316724c5a7e6c3dc836040518082815260200191505060405180910390a25050565b600073ffffffffffffffffffffffffffffffffffffffff168173ffffffffffffffffffffffffffffffffffffffff16141515156145c257600080fd5b6145cc8282614465565b1515156145d857600080fd5b60018260000160008373ffffffffffffffffffffffffffffffffffffffff1673ffffffffffffffffffffffffffffffffffffffff16815260200190815260200160002060006101000a81548160ff0219169083151502179055505050565b61010060405190810160405280600081526020016000815260200160008152602001600081526020016000815260200160008152602001600060ff1681526020016000151581525090565b60a060405190810160405280600081526020016000815260200160008152602001600081526020016000151581525090565b60e060405190810160405280600060028111156146cc57fe5b8152602001600060058111156146de57fe5b8152602001600073ffffffffffffffffffffffffffffffffffffffff168152602001600073ffffffffffffffffffffffffffffffffffffffff168152602001600081526020016000815260200160008152509056fea165627a7a723058202f8f7d866791603a04dd355bdb9005a50da3e14d0dd5566e8fd76666e30c9af00029",
  "source": "pragma solidity ^0.5.0;\r\n\r\nimport \"./SurveyFoundation.sol\";\r\n\r\ncontract SurveyCore is SurveyFoundation {\r\n    \r\n    constructor () public {\r\n        paused = false;\r\n        \r\n        developerAddress = msg.sender;\r\n        mint(msg.sender, 1000000000000);\r\n\r\n        // // burning survey\r\n        // requestSurvey(0, now, 0);\r\n        // // burning foundation\r\n        // createFoundation(0, 0);\r\n    }\r\n}",
  "sourcePath": "/mnt/c/workspace/inosurvey-ethereum/contracts/SurveyCore.sol",
  "compiler": {
    "name": "solc",
    "version": "0.5.0+commit.1d4f565a.Emscripten.clang"
  },
  "schemaVersion": "3.0.9",
  "updatedAt": "2019-05-12T16:59:35.424Z",
  "devdoc": {
    "methods": {
      "getFoundationDonateReceiptList()": {
        "details": "    Index List  () "
      },
      "getFoundationRequestReceiptList()": {
        "details": "     Index List  "
      },
      "getOwnerReceiptList()": {
        "details": "   Index List  "
      },
      "getProductBuyReceiptList()": {
        "details": "     Index List  "
      },
      "getProductSellReceiptList()": {
        "details": "    Index List  "
      },
      "getReceiptDetail(uint256)": {
        "details": "Index    \r",
        "params": {
          "_receiptId": " IndexId\r"
        },
        "return": "ReceiptTitle uint256 enum  . , \rReceiptMethod uint256 enum  , ,  ..\rto address \rfrom address \robjectId uint256  ?\rtotal uint256  \rdate uint256  \r"
      },
      "getSurveyBuyReceiptList()": {
        "details": "    Index List  () "
      },
      "getSurveyRequestDetail(uint256)": {
        "details": "    \r",
        "params": {
          "_surveyId": " Sotrage    \r"
        },
        "return": "A uint256    DB primary key  \r"
      },
      "getSurveyRequestReceiptList()": {
        "details": "    Index List  () "
      },
      "getSurveyResponseReceiptList()": {
        "details": "    Index List  () "
      },
      "getSurveySellReceiptList()": {
        "details": "    Index List  () "
      },
      "requestSurvey(uint256,uint256,uint8)": {
        "details": "create Survey(public)\r _CreateProduct() \r          \r    \r   false  \r",
        "params": {
          "_maximumCount": "     .\r",
          "_questionCount": "  .\r",
          "_startedAt": "  .\r"
        },
        "return": "A bool    \r"
      }
    }
  },
  "userdoc": {
    "methods": {
      "allowance(address,address)": {
        "notice": "        "
      },
      "approve(address,uint256)": {
        "notice": "            "
      },
      "balanceOf(address)": {
        "notice": "  "
      },
      "consumeBalanceOf(address)": {
        "notice": "  "
      },
      "decreaseAllowance(address,uint256)": {
        "notice": "     "
      },
      "increaseAllowance(address,uint256)": {
        "notice": "     "
      },
      "isSurveyToBuyer(uint256,address)": {
        "notice": "*  SURVEY ROLE **"
      },
      "totalSupply()": {
        "notice": "  "
      },
      "transfer(address,uint256)": {
        "notice": "     "
      },
      "transferFrom(address,address,uint256)": {
        "notice": " account            "
      }
    }
  }
}