{
  "contractName": "SurveyRequest",
  "abi": [
    {
      "constant": true,
      "inputs": [],
      "name": "name",
      "outputs": [
        {
          "name": "",
          "type": "string"
        }
      ],
      "payable": false,
      "stateMutability": "view",
      "type": "function"
    },
    {
      "constant": false,
      "inputs": [
        {
          "name": "spender",
          "type": "address"
        },
        {
          "name": "value",
          "type": "uint256"
        }
      ],
      "name": "approve",
      "outputs": [
        {
          "name": "",
          "type": "bool"
        }
      ],
      "payable": false,
      "stateMutability": "nonpayable",
      "type": "function"
    },
    {
      "constant": true,
      "inputs": [],
      "name": "totalSupply",
      "outputs": [
        {
          "name": "",
          "type": "uint256"
        }
      ],
      "payable": false,
      "stateMutability": "view",
      "type": "function"
    },
    {
      "constant": true,
      "inputs": [],
      "name": "getSurveyResponseReceiptList",
      "outputs": [
        {
          "name": "",
          "type": "uint256[]"
        }
      ],
      "payable": false,
      "stateMutability": "view",
      "type": "function"
    },
    {
      "constant": false,
      "inputs": [
        {
          "name": "from",
          "type": "address"
        },
        {
          "name": "to",
          "type": "address"
        },
        {
          "name": "value",
          "type": "uint256"
        }
      ],
      "name": "transferFrom",
      "outputs": [
        {
          "name": "",
          "type": "bool"
        }
      ],
      "payable": false,
      "stateMutability": "nonpayable",
      "type": "function"
    },
    {
      "constant": true,
      "inputs": [],
      "name": "decimals",
      "outputs": [
        {
          "name": "",
          "type": "uint8"
        }
      ],
      "payable": false,
      "stateMutability": "view",
      "type": "function"
    },
    {
      "constant": true,
      "inputs": [],
      "name": "getFoundationDonateReceiptList",
      "outputs": [
        {
          "name": "",
          "type": "uint256[]"
        }
      ],
      "payable": false,
      "stateMutability": "view",
      "type": "function"
    },
    {
      "constant": false,
      "inputs": [
        {
          "name": "spender",
          "type": "address"
        },
        {
          "name": "addedValue",
          "type": "uint256"
        }
      ],
      "name": "increaseAllowance",
      "outputs": [
        {
          "name": "",
          "type": "bool"
        }
      ],
      "payable": false,
      "stateMutability": "nonpayable",
      "type": "function"
    },
    {
      "constant": false,
      "inputs": [],
      "name": "unpause",
      "outputs": [],
      "payable": false,
      "stateMutability": "nonpayable",
      "type": "function"
    },
    {
      "constant": true,
      "inputs": [
        {
          "name": "_receiptId",
          "type": "uint256"
        }
      ],
      "name": "getReceiptDetail",
      "outputs": [
        {
          "name": "",
          "type": "uint8"
        },
        {
          "name": "",
          "type": "uint8"
        },
        {
          "name": "",
          "type": "address"
        },
        {
          "name": "",
          "type": "address"
        },
        {
          "name": "",
          "type": "uint256"
        },
        {
          "name": "",
          "type": "uint256"
        },
        {
          "name": "",
          "type": "uint256"
        }
      ],
      "payable": false,
      "stateMutability": "view",
      "type": "function"
    },
    {
      "constant": true,
      "inputs": [],
      "name": "getProductBuyReceiptList",
      "outputs": [
        {
          "name": "",
          "type": "uint256[]"
        }
      ],
      "payable": false,
      "stateMutability": "view",
      "type": "function"
    },
    {
      "constant": true,
      "inputs": [],
      "name": "paused",
      "outputs": [
        {
          "name": "",
          "type": "bool"
        }
      ],
      "payable": false,
      "stateMutability": "view",
      "type": "function"
    },
    {
      "constant": true,
      "inputs": [
        {
          "name": "owner",
          "type": "address"
        }
      ],
      "name": "balanceOf",
      "outputs": [
        {
          "name": "",
          "type": "uint256"
        }
      ],
      "payable": false,
      "stateMutability": "view",
      "type": "function"
    },
    {
      "constant": true,
      "inputs": [],
      "name": "getSurveySellReceiptList",
      "outputs": [
        {
          "name": "",
          "type": "uint256[]"
        }
      ],
      "payable": false,
      "stateMutability": "view",
      "type": "function"
    },
    {
      "constant": false,
      "inputs": [],
      "name": "pause",
      "outputs": [],
      "payable": false,
      "stateMutability": "nonpayable",
      "type": "function"
    },
    {
      "constant": true,
      "inputs": [
        {
          "name": "owner",
          "type": "address"
        }
      ],
      "name": "consumeBalanceOf",
      "outputs": [
        {
          "name": "",
          "type": "uint256"
        }
      ],
      "payable": false,
      "stateMutability": "view",
      "type": "function"
    },
    {
      "constant": true,
      "inputs": [],
      "name": "symbol",
      "outputs": [
        {
          "name": "",
          "type": "string"
        }
      ],
      "payable": false,
      "stateMutability": "view",
      "type": "function"
    },
    {
      "constant": false,
      "inputs": [
        {
          "name": "spender",
          "type": "address"
        },
        {
          "name": "subtractedValue",
          "type": "uint256"
        }
      ],
      "name": "decreaseAllowance",
      "outputs": [
        {
          "name": "",
          "type": "bool"
        }
      ],
      "payable": false,
      "stateMutability": "nonpayable",
      "type": "function"
    },
    {
      "constant": true,
      "inputs": [],
      "name": "getProductSellReceiptList",
      "outputs": [
        {
          "name": "",
          "type": "uint256[]"
        }
      ],
      "payable": false,
      "stateMutability": "view",
      "type": "function"
    },
    {
      "constant": false,
      "inputs": [
        {
          "name": "to",
          "type": "address"
        },
        {
          "name": "value",
          "type": "uint256"
        }
      ],
      "name": "transfer",
      "outputs": [
        {
          "name": "",
          "type": "bool"
        }
      ],
      "payable": false,
      "stateMutability": "nonpayable",
      "type": "function"
    },
    {
      "constant": true,
      "inputs": [],
      "name": "getSurveyRequestReceiptList",
      "outputs": [
        {
          "name": "",
          "type": "uint256[]"
        }
      ],
      "payable": false,
      "stateMutability": "view",
      "type": "function"
    },
    {
      "constant": true,
      "inputs": [],
      "name": "getSurveyBuyReceiptList",
      "outputs": [
        {
          "name": "",
          "type": "uint256[]"
        }
      ],
      "payable": false,
      "stateMutability": "view",
      "type": "function"
    },
    {
      "constant": true,
      "inputs": [],
      "name": "developerAddress",
      "outputs": [
        {
          "name": "",
          "type": "address"
        }
      ],
      "payable": false,
      "stateMutability": "view",
      "type": "function"
    },
    {
      "constant": true,
      "inputs": [
        {
          "name": "_surveyId",
          "type": "uint256"
        },
        {
          "name": "_account",
          "type": "address"
        }
      ],
      "name": "isSurveyToBuyer",
      "outputs": [
        {
          "name": "",
          "type": "bool"
        }
      ],
      "payable": false,
      "stateMutability": "view",
      "type": "function"
    },
    {
      "constant": true,
      "inputs": [
        {
          "name": "owner",
          "type": "address"
        },
        {
          "name": "spender",
          "type": "address"
        }
      ],
      "name": "allowance",
      "outputs": [
        {
          "name": "",
          "type": "uint256"
        }
      ],
      "payable": false,
      "stateMutability": "view",
      "type": "function"
    },
    {
      "constant": true,
      "inputs": [],
      "name": "PRICE_PER_QUESTION",
      "outputs": [
        {
          "name": "",
          "type": "uint256"
        }
      ],
      "payable": false,
      "stateMutability": "view",
      "type": "function"
    },
    {
      "constant": false,
      "inputs": [
        {
          "name": "_newDeveloperAddress",
          "type": "address"
        }
      ],
      "name": "setDeveloper",
      "outputs": [],
      "payable": false,
      "stateMutability": "nonpayable",
      "type": "function"
    },
    {
      "anonymous": false,
      "inputs": [
        {
          "indexed": true,
          "name": "from",
          "type": "address"
        },
        {
          "indexed": true,
          "name": "to",
          "type": "address"
        },
        {
          "indexed": false,
          "name": "value",
          "type": "uint256"
        }
      ],
      "name": "Transfer",
      "type": "event"
    },
    {
      "anonymous": false,
      "inputs": [
        {
          "indexed": true,
          "name": "owner",
          "type": "address"
        },
        {
          "indexed": true,
          "name": "spender",
          "type": "address"
        },
        {
          "indexed": false,
          "name": "value",
          "type": "uint256"
        }
      ],
      "name": "Approval",
      "type": "event"
    },
    {
      "anonymous": false,
      "inputs": [
        {
          "indexed": false,
          "name": "surveyId",
          "type": "uint256"
        },
        {
          "indexed": true,
          "name": "account",
          "type": "address"
        }
      ],
      "name": "BuyerAdded",
      "type": "event"
    },
    {
      "anonymous": false,
      "inputs": [
        {
          "indexed": false,
          "name": "surveyId",
          "type": "uint256"
        },
        {
          "indexed": true,
          "name": "account",
          "type": "address"
        }
      ],
      "name": "BuyerRemoved",
      "type": "event"
    },
    {
      "anonymous": false,
      "inputs": [
        {
          "indexed": false,
          "name": "surveyId",
          "type": "uint256"
        },
        {
          "indexed": false,
          "name": "owner",
          "type": "address"
        }
      ],
      "name": "CreateSurvey",
      "type": "event"
    },
    {
      "anonymous": false,
      "inputs": [
        {
          "indexed": false,
          "name": "ReceiptId",
          "type": "uint256"
        },
        {
          "indexed": false,
          "name": "owner",
          "type": "address"
        }
      ],
      "name": "CreateReceipt",
      "type": "event"
    },
    {
      "anonymous": false,
      "inputs": [
        {
          "indexed": false,
          "name": "foundationId",
          "type": "uint256"
        },
        {
          "indexed": false,
          "name": "owner",
          "type": "address"
        }
      ],
      "name": "CreateFoundation",
      "type": "event"
    },
    {
      "anonymous": false,
      "inputs": [
        {
          "indexed": false,
          "name": "productId",
          "type": "uint256"
        },
        {
          "indexed": false,
          "name": "owner",
          "type": "address"
        }
      ],
      "name": "CreateProduct",
      "type": "event"
    },
    {
      "constant": false,
      "inputs": [
        {
          "name": "_maximumCount",
          "type": "uint256"
        },
        {
          "name": "_createdAt",
          "type": "uint256"
        },
        {
          "name": "_questionCount",
          "type": "uint8"
        }
      ],
      "name": "requestSurvey",
      "outputs": [
        {
          "name": "",
          "type": "bool"
        }
      ],
      "payable": false,
      "stateMutability": "nonpayable",
      "type": "function"
    },
    {
      "constant": false,
      "inputs": [],
      "name": "getSurveyRequestList",
      "outputs": [
        {
          "name": "",
          "type": "uint256[]"
        }
      ],
      "payable": false,
      "stateMutability": "nonpayable",
      "type": "function"
    },
    {
      "constant": true,
      "inputs": [
        {
          "name": "_surveyId",
          "type": "uint256"
        }
      ],
      "name": "getSurveyRequestDetail",
      "outputs": [
        {
          "name": "",
          "type": "uint256"
        },
        {
          "name": "",
          "type": "uint256"
        },
        {
          "name": "",
          "type": "uint256"
        },
        {
          "name": "",
          "type": "uint256"
        },
        {
          "name": "",
          "type": "uint256"
        },
        {
          "name": "",
          "type": "uint8"
        },
        {
          "name": "",
          "type": "bool"
        }
      ],
      "payable": false,
      "stateMutability": "view",
      "type": "function"
    }
  ],
  "bytecode": "0x608060405260008060146101000a81548160ff0219169083151502179055506040805190810160405280600781526020017f494e4f434f494e00000000000000000000000000000000000000000000000000815250601690805190602001906200006b929190620000ea565b506012601760006101000a81548160ff021916908360ff1602179055506040805190810160405280600381526020017f494e43000000000000000000000000000000000000000000000000000000000081525060189080519060200190620000d5929190620000ea565b50348015620000e357600080fd5b5062000199565b828054600181600116156101000203166002900490600052602060002090601f016020900481019282601f106200012d57805160ff19168380011785556200015e565b828001600101855582156200015e579182015b828111156200015d57825182559160200191906001019062000140565b5b5090506200016d919062000171565b5090565b6200019691905b808211156200019257600081600090555060010162000178565b5090565b90565b6134f980620001a96000396000f3fe608060405260043610610180576000357c0100000000000000000000000000000000000000000000000000000000900463ffffffff16806306fdde0314610185578063095ea7b31461021557806313f082ba1461028857806318160ddd146102f45780631f6a0d251461031f57806323b872dd1461038b578063282f162b1461041e578063313ce56714610488578063385a44f8146104b957806339509351146105255780633f4ba83a1461059857806354128fa1146105af57806357b2c03c1461069c5780635c975abb146107085780636b945e781461073757806370a08231146107ba578063834849d21461081f5780638456cb591461088b57806387a29c28146108a257806395d89b4114610907578063a457c2d714610997578063a6c16e6c14610a0a578063a9059cbb14610a76578063b84a540f14610ae9578063c7c700b714610b55578063caccd7f714610bc1578063d455419314610c18578063dd62ed3e14610c8b578063de906fed14610d10578063ff70fa4914610d3b575b600080fd5b34801561019157600080fd5b5061019a610d8c565b6040518080602001828103825283818151815260200191508051906020019080838360005b838110156101da5780820151818401526020810190506101bf565b50505050905090810190601f1680156102075780820380516001836020036101000a031916815260200191505b509250505060405180910390f35b34801561022157600080fd5b5061026e6004803603604081101561023857600080fd5b81019080803573ffffffffffffffffffffffffffffffffffffffff16906020019092919080359060200190929190505050610e2e565b604051808215151515815260200191505060405180910390f35b34801561029457600080fd5b5061029d610f5b565b6040518080602001828103825283818151815260200191508051906020019060200280838360005b838110156102e05780820151818401526020810190506102c5565b505050509050019250505060405180910390f35b34801561030057600080fd5b50610309611059565b6040518082815260200191505060405180910390f35b34801561032b57600080fd5b50610334611063565b6040518080602001828103825283818151815260200191508051906020019060200280838360005b8381101561037757808201518184015260208101905061035c565b505050509050019250505060405180910390f35b34801561039757600080fd5b50610404600480360360608110156103ae57600080fd5b81019080803573ffffffffffffffffffffffffffffffffffffffff169060200190929190803573ffffffffffffffffffffffffffffffffffffffff169060200190929190803590602001909291905050506110f8565b604051808215151515815260200191505060405180910390f35b34801561042a57600080fd5b5061046e6004803603606081101561044157600080fd5b810190808035906020019092919080359060200190929190803560ff169060200190929190505050611300565b604051808215151515815260200191505060405180910390f35b34801561049457600080fd5b5061049d611395565b604051808260ff1660ff16815260200191505060405180910390f35b3480156104c557600080fd5b506104ce6113ac565b6040518080602001828103825283818151815260200191508051906020019060200280838360005b838110156105115780820151818401526020810190506104f6565b505050509050019250505060405180910390f35b34801561053157600080fd5b5061057e6004803603604081101561054857600080fd5b81019080803573ffffffffffffffffffffffffffffffffffffffff16906020019092919080359060200190929190505050611441565b604051808215151515815260200191505060405180910390f35b3480156105a457600080fd5b506105ad611678565b005b3480156105bb57600080fd5b506105e8600480360360208110156105d257600080fd5b81019080803590602001909291905050506117dc565b604051808860028111156105f857fe5b60ff16815260200187600581111561060c57fe5b60ff1681526020018673ffffffffffffffffffffffffffffffffffffffff1673ffffffffffffffffffffffffffffffffffffffff1681526020018573ffffffffffffffffffffffffffffffffffffffff1673ffffffffffffffffffffffffffffffffffffffff16815260200184815260200183815260200182815260200197505050505050505060405180910390f35b3480156106a857600080fd5b506106b16119b0565b6040518080602001828103825283818151815260200191508051906020019060200280838360005b838110156106f45780820151818401526020810190506106d9565b505050509050019250505060405180910390f35b34801561071457600080fd5b5061071d611a45565b604051808215151515815260200191505060405180910390f35b34801561074357600080fd5b506107706004803603602081101561075a57600080fd5b8101908080359060200190929190505050611a58565b604051808881526020018781526020018681526020018581526020018481526020018360ff1660ff1681526020018215151515815260200197505050505050505060405180910390f35b3480156107c657600080fd5b50610809600480360360208110156107dd57600080fd5b81019080803573ffffffffffffffffffffffffffffffffffffffff169060200190929190505050611b7d565b6040518082815260200191505060405180910390f35b34801561082b57600080fd5b50610834611bc6565b6040518080602001828103825283818151815260200191508051906020019060200280838360005b8381101561087757808201518184015260208101905061085c565b505050509050019250505060405180910390f35b34801561089757600080fd5b506108a0611c5b565b005b3480156108ae57600080fd5b506108f1600480360360208110156108c557600080fd5b81019080803573ffffffffffffffffffffffffffffffffffffffff169060200190929190505050611dc1565b6040518082815260200191505060405180910390f35b34801561091357600080fd5b5061091c611e0a565b6040518080602001828103825283818151815260200191508051906020019080838360005b8381101561095c578082015181840152602081019050610941565b50505050905090810190601f1680156109895780820380516001836020036101000a031916815260200191505b509250505060405180910390f35b3480156109a357600080fd5b506109f0600480360360408110156109ba57600080fd5b81019080803573ffffffffffffffffffffffffffffffffffffffff16906020019092919080359060200190929190505050611eac565b604051808215151515815260200191505060405180910390f35b348015610a1657600080fd5b50610a1f6120e3565b6040518080602001828103825283818151815260200191508051906020019060200280838360005b83811015610a62578082015181840152602081019050610a47565b505050509050019250505060405180910390f35b348015610a8257600080fd5b50610acf60048036036040811015610a9957600080fd5b81019080803573ffffffffffffffffffffffffffffffffffffffff16906020019092919080359060200190929190505050612178565b604051808215151515815260200191505060405180910390f35b348015610af557600080fd5b50610afe61218f565b6040518080602001828103825283818151815260200191508051906020019060200280838360005b83811015610b41578082015181840152602081019050610b26565b505050509050019250505060405180910390f35b348015610b6157600080fd5b50610b6a612224565b6040518080602001828103825283818151815260200191508051906020019060200280838360005b83811015610bad578082015181840152602081019050610b92565b505050509050019250505060405180910390f35b348015610bcd57600080fd5b50610bd66122b9565b604051808273ffffffffffffffffffffffffffffffffffffffff1673ffffffffffffffffffffffffffffffffffffffff16815260200191505060405180910390f35b348015610c2457600080fd5b50610c7160048036036040811015610c3b57600080fd5b8101908080359060200190929190803573ffffffffffffffffffffffffffffffffffffffff1690602001909291905050506122de565b604051808215151515815260200191505060405180910390f35b348015610c9757600080fd5b50610cfa60048036036040811015610cae57600080fd5b81019080803573ffffffffffffffffffffffffffffffffffffffff169060200190929190803573ffffffffffffffffffffffffffffffffffffffff16906020019092919050505061230d565b6040518082815260200191505060405180910390f35b348015610d1c57600080fd5b50610d25612394565b6040518082815260200191505060405180910390f35b348015610d4757600080fd5b50610d8a60048036036020811015610d5e57600080fd5b81019080803573ffffffffffffffffffffffffffffffffffffffff169060200190929190505050612399565b005b606060168054600181600116156101000203166002900480601f016020809104026020016040519081016040528092919081815260200182805460018160011615610100020316600290048015610e245780601f10610df957610100808354040283529160200191610e24565b820191906000526020600020905b815481529060010190602001808311610e0757829003601f168201915b5050505050905090565b60008073ffffffffffffffffffffffffffffffffffffffff168373ffffffffffffffffffffffffffffffffffffffff1614151515610e6b57600080fd5b81601460003373ffffffffffffffffffffffffffffffffffffffff1673ffffffffffffffffffffffffffffffffffffffff16815260200190815260200160002060008573ffffffffffffffffffffffffffffffffffffffff1673ffffffffffffffffffffffffffffffffffffffff168152602001908152602001600020819055508273ffffffffffffffffffffffffffffffffffffffff163373ffffffffffffffffffffffffffffffffffffffff167f8c5be1e5ebec7d5bd14f71427d1e84f3dd0314c0f7b2291e5b200ac8c7c3b925846040518082815260200191505060405180910390a36001905092915050565b6060806060610f6861218f565b905081601a9080519060200190610f80929190613398565b5060008090505b815181101561100057601a60028383815181101515610fa257fe5b90602001906020020151815481101515610fb857fe5b90600052602060002090600502016002015490806001815401808255809150509060018203906000526020600020016000909192909190915055508080600101915050610f87565b50601a80548060200260200160405190810160405280929190818152602001828054801561104d57602002820191906000526020600020905b815481526020019060010190808311611039575b50505050509250505090565b6000601554905090565b6060600a60003373ffffffffffffffffffffffffffffffffffffffff1673ffffffffffffffffffffffffffffffffffffffff1681526020019081526020016000208054806020026020016040519081016040528092919081815260200182805480156110ee57602002820191906000526020600020905b8154815260200190600101908083116110da575b5050505050905090565b600061118982601460008773ffffffffffffffffffffffffffffffffffffffff1673ffffffffffffffffffffffffffffffffffffffff16815260200190815260200160002060003373ffffffffffffffffffffffffffffffffffffffff1673ffffffffffffffffffffffffffffffffffffffff1681526020019081526020016000205461254590919063ffffffff16565b601460008673ffffffffffffffffffffffffffffffffffffffff1673ffffffffffffffffffffffffffffffffffffffff16815260200190815260200160002060003373ffffffffffffffffffffffffffffffffffffffff1673ffffffffffffffffffffffffffffffffffffffff16815260200190815260200160002081905550611214848484612567565b3373ffffffffffffffffffffffffffffffffffffffff168473ffffffffffffffffffffffffffffffffffffffff167f8c5be1e5ebec7d5bd14f71427d1e84f3dd0314c0f7b2291e5b200ac8c7c3b925601460008873ffffffffffffffffffffffffffffffffffffffff1673ffffffffffffffffffffffffffffffffffffffff16815260200190815260200160002060003373ffffffffffffffffffffffffffffffffffffffff1673ffffffffffffffffffffffffffffffffffffffff168152602001908152602001600020546040518082815260200191505060405180910390a3600190509392505050565b60008084600a8460ff16020290506000605060648381151561131e57fe5b0402905060008183039050600061133484612835565b905061133f8261284b565b50801561138557600061135a8460008b60008c8c6000612882565b90506113668133612a3d565b611376600080303385898e612a4b565b5060019550505050505061138e565b60009450505050505b9392505050565b6000601760009054906101000a900460ff16905090565b6060600e60003373ffffffffffffffffffffffffffffffffffffffff1673ffffffffffffffffffffffffffffffffffffffff16815260200190815260200160002080548060200260200160405190810160405280929190818152602001828054801561143757602002820191906000526020600020905b815481526020019060010190808311611423575b5050505050905090565b60008073ffffffffffffffffffffffffffffffffffffffff168373ffffffffffffffffffffffffffffffffffffffff161415151561147e57600080fd5b61150d82601460003373ffffffffffffffffffffffffffffffffffffffff1673ffffffffffffffffffffffffffffffffffffffff16815260200190815260200160002060008673ffffffffffffffffffffffffffffffffffffffff1673ffffffffffffffffffffffffffffffffffffffff168152602001908152602001600020546131bc90919063ffffffff16565b601460003373ffffffffffffffffffffffffffffffffffffffff1673ffffffffffffffffffffffffffffffffffffffff16815260200190815260200160002060008573ffffffffffffffffffffffffffffffffffffffff1673ffffffffffffffffffffffffffffffffffffffff168152602001908152602001600020819055508273ffffffffffffffffffffffffffffffffffffffff163373ffffffffffffffffffffffffffffffffffffffff167f8c5be1e5ebec7d5bd14f71427d1e84f3dd0314c0f7b2291e5b200ac8c7c3b925601460003373ffffffffffffffffffffffffffffffffffffffff1673ffffffffffffffffffffffffffffffffffffffff16815260200190815260200160002060008773ffffffffffffffffffffffffffffffffffffffff1673ffffffffffffffffffffffffffffffffffffffff168152602001908152602001600020546040518082815260200191505060405180910390a36001905092915050565b6000809054906101000a900473ffffffffffffffffffffffffffffffffffffffff1673ffffffffffffffffffffffffffffffffffffffff163373ffffffffffffffffffffffffffffffffffffffff1614151561173c576040517f08c379a00000000000000000000000000000000000000000000000000000000081526004018080602001828103825260098152602001807f4e6f74204f776e6572000000000000000000000000000000000000000000000081525060200191505060405180910390fd5b600060149054906101000a900460ff1615156117c0576040517f08c379a000000000000000000000000000000000000000000000000000000000815260040180806020018281038252600b8152602001807f6e6f74207061757365642e00000000000000000000000000000000000000000081525060200191505060405180910390fd5b60008060146101000a81548160ff021916908315150217905550565b6000806000806000806000873373ffffffffffffffffffffffffffffffffffffffff166006600083815260200190815260200160002060009054906101000a900473ffffffffffffffffffffffffffffffffffffffff1673ffffffffffffffffffffffffffffffffffffffff1614151561185557600080fd5b60028981548110151561186457fe5b906000526020600020906005020160000160009054906101000a900460ff1660028a81548110151561189257fe5b906000526020600020906005020160000160019054906101000a900460ff1660028b8154811015156118c057fe5b906000526020600020906005020160000160029054906101000a900473ffffffffffffffffffffffffffffffffffffffff1660028c81548110151561190157fe5b906000526020600020906005020160010160009054906101000a900473ffffffffffffffffffffffffffffffffffffffff1660028d81548110151561194257fe5b90600052602060002090600502016002015460028e81548110151561196357fe5b90600052602060002090600502016003015460028f81548110151561198457fe5b906000526020600020906005020160040154975097509750975097509750975050919395979092949650565b6060600f60003373ffffffffffffffffffffffffffffffffffffffff1673ffffffffffffffffffffffffffffffffffffffff168152602001908152602001600020805480602002602001604051908101604052809291908181526020018280548015611a3b57602002820191906000526020600020905b815481526020019060010190808311611a27575b5050505050905090565b600060149054906101000a900460ff1681565b6000806000806000806000600188815481101515611a7257fe5b906000526020600020906006020160000154600189815481101515611a9357fe5b90600052602060002090600602016001015460018a815481101515611ab457fe5b90600052602060002090600602016002015460018b815481101515611ad557fe5b90600052602060002090600602016003015460018c815481101515611af657fe5b90600052602060002090600602016004015460018d815481101515611b1757fe5b906000526020600020906006020160050160009054906101000a900460ff1660018e815481101515611b4557fe5b906000526020600020906006020160050160019054906101000a900460ff169650965096509650965096509650919395979092949650565b6000601360008373ffffffffffffffffffffffffffffffffffffffff1673ffffffffffffffffffffffffffffffffffffffff168152602001908152602001600020549050919050565b6060600c60003373ffffffffffffffffffffffffffffffffffffffff1673ffffffffffffffffffffffffffffffffffffffff168152602001908152602001600020805480602002602001604051908101604052809291908181526020018280548015611c5157602002820191906000526020600020905b815481526020019060010190808311611c3d575b5050505050905090565b6000809054906101000a900473ffffffffffffffffffffffffffffffffffffffff1673ffffffffffffffffffffffffffffffffffffffff163373ffffffffffffffffffffffffffffffffffffffff16141515611d1f576040517f08c379a00000000000000000000000000000000000000000000000000000000081526004018080602001828103825260098152602001807f4e6f74204f776e6572000000000000000000000000000000000000000000000081525060200191505060405180910390fd5b600060149054906101000a900460ff16151515611da4576040517f08c379a000000000000000000000000000000000000000000000000000000000815260040180806020018281038252600f8152602001807f616c7265616479207061757365642e000000000000000000000000000000000081525060200191505060405180910390fd5b6001600060146101000a81548160ff021916908315150217905550565b6000601260008373ffffffffffffffffffffffffffffffffffffffff1673ffffffffffffffffffffffffffffffffffffffff168152602001908152602001600020549050919050565b606060188054600181600116156101000203166002900480601f016020809104026020016040519081016040528092919081815260200182805460018160011615610100020316600290048015611ea25780601f10611e7757610100808354040283529160200191611ea2565b820191906000526020600020905b815481529060010190602001808311611e8557829003601f168201915b5050505050905090565b60008073ffffffffffffffffffffffffffffffffffffffff168373ffffffffffffffffffffffffffffffffffffffff1614151515611ee957600080fd5b611f7882601460003373ffffffffffffffffffffffffffffffffffffffff1673ffffffffffffffffffffffffffffffffffffffff16815260200190815260200160002060008673ffffffffffffffffffffffffffffffffffffffff1673ffffffffffffffffffffffffffffffffffffffff1681526020019081526020016000205461254590919063ffffffff16565b601460003373ffffffffffffffffffffffffffffffffffffffff1673ffffffffffffffffffffffffffffffffffffffff16815260200190815260200160002060008573ffffffffffffffffffffffffffffffffffffffff1673ffffffffffffffffffffffffffffffffffffffff168152602001908152602001600020819055508273ffffffffffffffffffffffffffffffffffffffff163373ffffffffffffffffffffffffffffffffffffffff167f8c5be1e5ebec7d5bd14f71427d1e84f3dd0314c0f7b2291e5b200ac8c7c3b925601460003373ffffffffffffffffffffffffffffffffffffffff1673ffffffffffffffffffffffffffffffffffffffff16815260200190815260200160002060008773ffffffffffffffffffffffffffffffffffffffff1673ffffffffffffffffffffffffffffffffffffffff168152602001908152602001600020546040518082815260200191505060405180910390a36001905092915050565b6060601060003373ffffffffffffffffffffffffffffffffffffffff1673ffffffffffffffffffffffffffffffffffffffff16815260200190815260200160002080548060200260200160405190810160405280929190818152602001828054801561216e57602002820191906000526020600020905b81548152602001906001019080831161215a575b5050505050905090565b6000612185338484612567565b6001905092915050565b6060600960003373ffffffffffffffffffffffffffffffffffffffff1673ffffffffffffffffffffffffffffffffffffffff16815260200190815260200160002080548060200260200160405190810160405280929190818152602001828054801561221a57602002820191906000526020600020905b815481526020019060010190808311612206575b5050505050905090565b6060600b60003373ffffffffffffffffffffffffffffffffffffffff1673ffffffffffffffffffffffffffffffffffffffff1681526020019081526020016000208054806020026020016040519081016040528092919081815260200182805480156122af57602002820191906000526020600020905b81548152602001906001019080831161229b575b5050505050905090565b6000809054906101000a900473ffffffffffffffffffffffffffffffffffffffff1681565b600061230582601160008681526020019081526020016000206131dd90919063ffffffff16565b905092915050565b6000601460008473ffffffffffffffffffffffffffffffffffffffff1673ffffffffffffffffffffffffffffffffffffffff16815260200190815260200160002060008373ffffffffffffffffffffffffffffffffffffffff1673ffffffffffffffffffffffffffffffffffffffff16815260200190815260200160002054905092915050565b600a81565b6000809054906101000a900473ffffffffffffffffffffffffffffffffffffffff1673ffffffffffffffffffffffffffffffffffffffff163373ffffffffffffffffffffffffffffffffffffffff1614151561245d576040517f08c379a00000000000000000000000000000000000000000000000000000000081526004018080602001828103825260098152602001807f4e6f74204f776e6572000000000000000000000000000000000000000000000081525060200191505060405180910390fd5b600073ffffffffffffffffffffffffffffffffffffffff168173ffffffffffffffffffffffffffffffffffffffff1614151515612502576040517f08c379a00000000000000000000000000000000000000000000000000000000081526004018080602001828103825260078152602001807f5761726e696e670000000000000000000000000000000000000000000000000081525060200191505060405180910390fd5b806000806101000a81548173ffffffffffffffffffffffffffffffffffffffff021916908373ffffffffffffffffffffffffffffffffffffffff16021790555050565b600082821115151561255657600080fd5b600082840390508091505092915050565b600073ffffffffffffffffffffffffffffffffffffffff168273ffffffffffffffffffffffffffffffffffffffff161415151561260c576040517f08c379a000000000000000000000000000000000000000000000000000000000815260040180806020018281038252600f8152602001807f6275726e2061646472657373212121000000000000000000000000000000000081525060200191505060405180910390fd5b61265e81601360008673ffffffffffffffffffffffffffffffffffffffff1673ffffffffffffffffffffffffffffffffffffffff1681526020019081526020016000205461254590919063ffffffff16565b601360008573ffffffffffffffffffffffffffffffffffffffff1673ffffffffffffffffffffffffffffffffffffffff168152602001908152602001600020819055506126f381601360008573ffffffffffffffffffffffffffffffffffffffff1673ffffffffffffffffffffffffffffffffffffffff168152602001908152602001600020546131bc90919063ffffffff16565b601360008473ffffffffffffffffffffffffffffffffffffffff1673ffffffffffffffffffffffffffffffffffffffff1681526020019081526020016000208190555061278881601260008673ffffffffffffffffffffffffffffffffffffffff1673ffffffffffffffffffffffffffffffffffffffff168152602001908152602001600020546131bc90919063ffffffff16565b601260008573ffffffffffffffffffffffffffffffffffffffff1673ffffffffffffffffffffffffffffffffffffffff168152602001908152602001600020819055508173ffffffffffffffffffffffffffffffffffffffff168373ffffffffffffffffffffffffffffffffffffffff167fddf252ad1be2c89b69c2b068fc378daa952ba7f163c4a11628f55a4df523b3ef836040518082815260200191505060405180910390a3505050565b6000612842333084612567565b60019050919050565b6000612879306000809054906101000a900473ffffffffffffffffffffffffffffffffffffffff1684612567565b60019050919050565b600061288c6133e5565b60e0604051908101604052808a81526020018981526020018881526020018781526020018681526020018560ff168152602001841515815250905060006001808390806001815401808255809150509060018203906000526020600020906006020160009091929091909150600082015181600001556020820151816001015560408201518160020155606082015181600301556080820151816004015560a08201518160050160006101000a81548160ff021916908360ff16021790555060c08201518160050160016101000a81548160ff0219169083151502179055505050039050336005600083815260200190815260200160002060006101000a81548173ffffffffffffffffffffffffffffffffffffffff021916908373ffffffffffffffffffffffffffffffffffffffff1602179055507fecc279af01ecc1616810552807a41a6dcbad8eb3a91a33626b2d35c9dfd5c2d58133604051808381526020018273ffffffffffffffffffffffffffffffffffffffff1673ffffffffffffffffffffffffffffffffffffffff1681526020019250505060405180910390a18092505050979650505050505050565b612a478282613271565b5050565b6000612a55613428565b60e0604051908101604052808a6002811115612a6d57fe5b8152602001896005811115612a7e57fe5b81526020018873ffffffffffffffffffffffffffffffffffffffff1681526020018773ffffffffffffffffffffffffffffffffffffffff168152602001868152602001858152602001848152509050600060016002839080600181540180825580915050906001820390600052602060002090600502016000909192909190915060008201518160000160006101000a81548160ff02191690836002811115612b2357fe5b021790555060208201518160000160016101000a81548160ff02191690836005811115612b4c57fe5b021790555060408201518160000160026101000a81548173ffffffffffffffffffffffffffffffffffffffff021916908373ffffffffffffffffffffffffffffffffffffffff16021790555060608201518160010160006101000a81548173ffffffffffffffffffffffffffffffffffffffff021916908373ffffffffffffffffffffffffffffffffffffffff1602179055506080820151816002015560a0820151816003015560c082015181600401555050039050336006600083815260200190815260200160002060006101000a81548173ffffffffffffffffffffffffffffffffffffffff021916908373ffffffffffffffffffffffffffffffffffffffff16021790555060006002811115612c6157fe5b8a6002811115612c6d57fe5b1415612f415760006005811115612c8057fe5b896005811115612c8c57fe5b1415612d0057600960003373ffffffffffffffffffffffffffffffffffffffff1673ffffffffffffffffffffffffffffffffffffffff168152602001908152602001600020819080600181540180825580915050906001820390600052602060002001600090919290919091505550612f3c565b60016005811115612d0d57fe5b896005811115612d1957fe5b1415612d8d57600a60003373ffffffffffffffffffffffffffffffffffffffff1673ffffffffffffffffffffffffffffffffffffffff168152602001908152602001600020819080600181540180825580915050906001820390600052602060002001600090919290919091505550612f3b565b60036005811115612d9a57fe5b896005811115612da657fe5b1415612e1a57600b60003373ffffffffffffffffffffffffffffffffffffffff1673ffffffffffffffffffffffffffffffffffffffff168152602001908152602001600020819080600181540180825580915050906001820390600052602060002001600090919290919091505550612f3a565b60046005811115612e2757fe5b896005811115612e3357fe5b1415612ea757600c60003373ffffffffffffffffffffffffffffffffffffffff1673ffffffffffffffffffffffffffffffffffffffff168152602001908152602001600020819080600181540180825580915050906001820390600052602060002001600090919290919091505550612f39565b600580811115612eb357fe5b896005811115612ebf57fe5b1415612f3357600d60003373ffffffffffffffffffffffffffffffffffffffff1673ffffffffffffffffffffffffffffffffffffffff168152602001908152602001600020819080600181540180825580915050906001820390600052602060002001600090919290919091505550612f38565b600080fd5b5b5b5b5b613141565b60016002811115612f4e57fe5b8a6002811115612f5a57fe5b1415612ff75760026005811115612f6d57fe5b896005811115612f7957fe5b1415612fed57600e60003373ffffffffffffffffffffffffffffffffffffffff1673ffffffffffffffffffffffffffffffffffffffff168152602001908152602001600020819080600181540180825580915050906001820390600052602060002001600090919290919091505550612ff2565b600080fd5b613140565b60028081111561300357fe5b8a600281111561300f57fe5b141561313a576003600581111561302257fe5b89600581111561302e57fe5b14156130a257600f60003373ffffffffffffffffffffffffffffffffffffffff1673ffffffffffffffffffffffffffffffffffffffff168152602001908152602001600020819080600181540180825580915050906001820390600052602060002001600090919290919091505550613135565b600460058111156130af57fe5b8960058111156130bb57fe5b141561312f57601060003373ffffffffffffffffffffffffffffffffffffffff1673ffffffffffffffffffffffffffffffffffffffff168152602001908152602001600020819080600181540180825580915050906001820390600052602060002001600090919290919091505550613134565b600080fd5b5b61313f565b600080fd5b5b5b7f648ea8614c7f2c919bde3b01694291faae3d403522f45d971755f2ac0e2faa598133604051808381526020018273ffffffffffffffffffffffffffffffffffffffff1673ffffffffffffffffffffffffffffffffffffffff1681526020019250505060405180910390a18092505050979650505050505050565b60008082840190508381101515156131d357600080fd5b8091505092915050565b60008073ffffffffffffffffffffffffffffffffffffffff168273ffffffffffffffffffffffffffffffffffffffff161415151561321a57600080fd5b8260000160008373ffffffffffffffffffffffffffffffffffffffff1673ffffffffffffffffffffffffffffffffffffffff16815260200190815260200160002060009054906101000a900460ff16905092915050565b61329681601160008581526020019081526020016000206132e890919063ffffffff16565b8073ffffffffffffffffffffffffffffffffffffffff167fd28f937e71e8a89ddbefb8937335b2ae03fb74ce63dd6a6f316724c5a7e6c3dc836040518082815260200191505060405180910390a25050565b600073ffffffffffffffffffffffffffffffffffffffff168173ffffffffffffffffffffffffffffffffffffffff161415151561332457600080fd5b61332e82826131dd565b15151561333a57600080fd5b60018260000160008373ffffffffffffffffffffffffffffffffffffffff1673ffffffffffffffffffffffffffffffffffffffff16815260200190815260200160002060006101000a81548160ff0219169083151502179055505050565b8280548282559060005260206000209081019282156133d4579160200282015b828111156133d35782518255916020019190600101906133b8565b5b5090506133e191906134a8565b5090565b60e0604051908101604052806000815260200160008152602001600081526020016000815260200160008152602001600060ff1681526020016000151581525090565b60e0604051908101604052806000600281111561344157fe5b81526020016000600581111561345357fe5b8152602001600073ffffffffffffffffffffffffffffffffffffffff168152602001600073ffffffffffffffffffffffffffffffffffffffff1681526020016000815260200160008152602001600081525090565b6134ca91905b808211156134c65760008160009055506001016134ae565b5090565b9056fea165627a7a72305820ad3adf2116c77e7395c35e55ae34cf2be7a791deefc81725a0af35f0b42509440029",
  "source": "pragma solidity ^0.5.0;\r\n\r\nimport \"./SurveyWallet.sol\";\r\n\r\ncontract SurveyRequest is SurveyWallet {\r\n    uint256[] tempList;\r\n\r\n    /**\r\n    * @dev create Survey(public)\r\n    * _CreateProduct() \r\n    *          \r\n    *    \r\n    *   false  \r\n    * @param _maximumCount      .\r\n    * @param _createdAt   .\r\n    * @param _questionCount   .\r\n    * @return A bool    \r\n    */\r\n    function requestSurvey(\r\n        uint256 _maximumCount,\r\n        uint256 _createdAt,\r\n        uint8   _questionCount\r\n        // bytes32 _hashData\r\n    ) \r\n        public\r\n        returns (bool)\r\n    {\r\n        // 1.   \r\n        uint256 allPrice = uint256(_questionCount) * uint256(PRICE_PER_QUESTION) * uint256(_maximumCount);\r\n        uint256 requestPrice = allPrice / 100 * 80;\r\n        uint256 chargePrice = allPrice - requestPrice;\r\n        // 2.   \r\n        bool isSuccess = _tranferTokenFromUserToThis(allPrice);\r\n        _transferTokenFromThisToDeveloper(chargePrice);\r\n\r\n        if(isSuccess) {\r\n            // 3.  \r\n            uint256 newSurveyId = _createSurvey(\r\n                requestPrice, \r\n                0, \r\n                _maximumCount,\r\n                0,\r\n                _createdAt,\r\n                _questionCount, \r\n                false\r\n            );\r\n            // 3.1   \r\n            addSubscriber(newSurveyId, msg.sender);\r\n            // 4.  \r\n            _createReceipt(\r\n                ReceiptTitles.Survey, \r\n                ReceiptMethods.Request, \r\n                address(this), \r\n                msg.sender,\r\n                newSurveyId,\r\n                requestPrice,\r\n                _createdAt\r\n            );\r\n            return true;\r\n        }else {\r\n            return false;\r\n        }\r\n\r\n    }\r\n    /**\r\n    * @dev     \r\n    * @return A uint256[]    DB primary key  \r\n    */\r\n    function getSurveyRequestList() public returns (uint256[] memory) {\r\n        uint256[] memory resultList;\r\n        uint256[] memory receiptIndexList = getSurveyRequestReceiptList();\r\n        tempList = resultList;\r\n        for(uint i = 0 ; i < receiptIndexList.length ; i++) {\r\n            tempList.push(receipts[receiptIndexList[i]].objectId);\r\n        }\r\n        return tempList;\r\n    }\r\n\r\n    /**\r\n    * @dev     \r\n    * @param _surveyId  Sotrage    \r\n    * @return A uint256    DB primary key  \r\n    */\r\n    function getSurveyRequestDetail(uint256 _surveyId) \r\n        public\r\n        view\r\n        returns (\r\n            uint256,\r\n            uint256,\r\n            uint256,\r\n            uint256,\r\n            uint256,\r\n            uint8,\r\n            bool\r\n        )\r\n    {\r\n        return (\r\n            surveys[_surveyId].requestPrice,\r\n            surveys[_surveyId].sellPrice,\r\n            surveys[_surveyId].maximumCount,\r\n            surveys[_surveyId].currentCount,\r\n            surveys[_surveyId].createdAt,\r\n            surveys[_surveyId].questionCount,\r\n            surveys[_surveyId].isSell\r\n        );\r\n    }\r\n}",
  "sourcePath": "/mnt/c/workspace/inosurvey-ethereum/contracts/SurveyRequest.sol",
  "compiler": {
    "name": "solc",
    "version": "0.5.0+commit.1d4f565a.Emscripten.clang"
  },
  "schemaVersion": "3.0.2",
  "updatedAt": "2019-04-12T02:23:25.649Z",
  "devdoc": {
    "methods": {
      "getFoundationDonateReceiptList()": {
        "details": "    Index List  "
      },
      "getProductBuyReceiptList()": {
        "details": "     Index List  "
      },
      "getProductSellReceiptList()": {
        "details": "    Index List  "
      },
      "getReceiptDetail(uint256)": {
        "details": "Index    \r",
        "params": {
          "_receiptId": " IndexId\r"
        },
        "return": "ReceiptTitle uint256 enum  . , \rReceiptMethod uint256 enum  , ,  ..\rto address \rfrom address \robjectId uint256  ?\rtotal uint256  \rdate uint256  \r"
      },
      "getSurveyBuyReceiptList()": {
        "details": "    Index List  "
      },
      "getSurveyRequestDetail(uint256)": {
        "details": "    \r",
        "params": {
          "_surveyId": " Sotrage    \r"
        },
        "return": "A uint256    DB primary key  \r"
      },
      "getSurveyRequestList()": {
        "details": "    \r",
        "return": "A uint256[]    DB primary key  \r"
      },
      "getSurveyRequestReceiptList()": {
        "details": "    Index List  "
      },
      "getSurveyResponseReceiptList()": {
        "details": "    Index List  "
      },
      "getSurveySellReceiptList()": {
        "details": "    Index List  "
      },
      "requestSurvey(uint256,uint256,uint8)": {
        "details": "create Survey(public)\r _CreateProduct() \r          \r    \r   false  \r",
        "params": {
          "_createdAt": "  .\r",
          "_maximumCount": "     .\r",
          "_questionCount": "  .\r"
        },
        "return": "A bool    \r"
      }
    }
  },
  "userdoc": {
    "methods": {
      "allowance(address,address)": {
        "notice": "        "
      },
      "approve(address,uint256)": {
        "notice": "            "
      },
      "balanceOf(address)": {
        "notice": "  "
      },
      "consumeBalanceOf(address)": {
        "notice": "  "
      },
      "decreaseAllowance(address,uint256)": {
        "notice": "     "
      },
      "increaseAllowance(address,uint256)": {
        "notice": "     "
      },
      "isSurveyToBuyer(uint256,address)": {
        "notice": "*  SURVEY ROLE **"
      },
      "totalSupply()": {
        "notice": "  "
      },
      "transfer(address,uint256)": {
        "notice": "     "
      },
      "transferFrom(address,address,uint256)": {
        "notice": " account            "
      }
    }
  }
}