{
  "contractName": "SurveyBase",
  "abi": [
    {
      "constant": false,
      "inputs": [],
      "name": "unpause",
      "outputs": [],
      "payable": false,
      "stateMutability": "nonpayable",
      "type": "function"
    },
    {
      "constant": true,
      "inputs": [],
      "name": "paused",
      "outputs": [
        {
          "name": "",
          "type": "bool"
        }
      ],
      "payable": false,
      "stateMutability": "view",
      "type": "function"
    },
    {
      "constant": false,
      "inputs": [],
      "name": "pause",
      "outputs": [],
      "payable": false,
      "stateMutability": "nonpayable",
      "type": "function"
    },
    {
      "constant": true,
      "inputs": [],
      "name": "developerAddress",
      "outputs": [
        {
          "name": "",
          "type": "address"
        }
      ],
      "payable": false,
      "stateMutability": "view",
      "type": "function"
    },
    {
      "constant": true,
      "inputs": [],
      "name": "PRICE_PER_QUESTION",
      "outputs": [
        {
          "name": "",
          "type": "uint256"
        }
      ],
      "payable": false,
      "stateMutability": "view",
      "type": "function"
    },
    {
      "constant": false,
      "inputs": [
        {
          "name": "_newDeveloperAddress",
          "type": "address"
        }
      ],
      "name": "setDeveloper",
      "outputs": [],
      "payable": false,
      "stateMutability": "nonpayable",
      "type": "function"
    },
    {
      "anonymous": false,
      "inputs": [
        {
          "indexed": false,
          "name": "surveyId",
          "type": "uint256"
        },
        {
          "indexed": false,
          "name": "owner",
          "type": "address"
        }
      ],
      "name": "CreateSurvey",
      "type": "event"
    },
    {
      "anonymous": false,
      "inputs": [
        {
          "indexed": false,
          "name": "receiptId",
          "type": "uint256"
        },
        {
          "indexed": false,
          "name": "owner",
          "type": "address"
        }
      ],
      "name": "CreateReceipt",
      "type": "event"
    },
    {
      "anonymous": false,
      "inputs": [
        {
          "indexed": false,
          "name": "foundationId",
          "type": "uint256"
        },
        {
          "indexed": false,
          "name": "owner",
          "type": "address"
        }
      ],
      "name": "CreateFoundation",
      "type": "event"
    },
    {
      "anonymous": false,
      "inputs": [
        {
          "indexed": false,
          "name": "productId",
          "type": "uint256"
        },
        {
          "indexed": false,
          "name": "owner",
          "type": "address"
        }
      ],
      "name": "CreateProduct",
      "type": "event"
    }
  ],
  "bytecode": "0x608060405260008060146101000a81548160ff02191690831515021790555034801561002a57600080fd5b5061068c8061003a6000396000f3fe608060405260043610610078576000357c0100000000000000000000000000000000000000000000000000000000900463ffffffff1680633f4ba83a1461007d5780635c975abb146100945780638456cb59146100c3578063caccd7f7146100da578063de906fed14610131578063ff70fa491461015c575b600080fd5b34801561008957600080fd5b506100926101ad565b005b3480156100a057600080fd5b506100a9610311565b604051808215151515815260200191505060405180910390f35b3480156100cf57600080fd5b506100d8610324565b005b3480156100e657600080fd5b506100ef61048a565b604051808273ffffffffffffffffffffffffffffffffffffffff1673ffffffffffffffffffffffffffffffffffffffff16815260200191505060405180910390f35b34801561013d57600080fd5b506101466104af565b6040518082815260200191505060405180910390f35b34801561016857600080fd5b506101ab6004803603602081101561017f57600080fd5b81019080803573ffffffffffffffffffffffffffffffffffffffff1690602001909291905050506104b4565b005b6000809054906101000a900473ffffffffffffffffffffffffffffffffffffffff1673ffffffffffffffffffffffffffffffffffffffff163373ffffffffffffffffffffffffffffffffffffffff16141515610271576040517f08c379a00000000000000000000000000000000000000000000000000000000081526004018080602001828103825260098152602001807f4e6f74204f776e6572000000000000000000000000000000000000000000000081525060200191505060405180910390fd5b600060149054906101000a900460ff1615156102f5576040517f08c379a000000000000000000000000000000000000000000000000000000000815260040180806020018281038252600b8152602001807f6e6f74207061757365642e00000000000000000000000000000000000000000081525060200191505060405180910390fd5b60008060146101000a81548160ff021916908315150217905550565b600060149054906101000a900460ff1681565b6000809054906101000a900473ffffffffffffffffffffffffffffffffffffffff1673ffffffffffffffffffffffffffffffffffffffff163373ffffffffffffffffffffffffffffffffffffffff161415156103e8576040517f08c379a00000000000000000000000000000000000000000000000000000000081526004018080602001828103825260098152602001807f4e6f74204f776e6572000000000000000000000000000000000000000000000081525060200191505060405180910390fd5b600060149054906101000a900460ff1615151561046d576040517f08c379a000000000000000000000000000000000000000000000000000000000815260040180806020018281038252600f8152602001807f616c7265616479207061757365642e000000000000000000000000000000000081525060200191505060405180910390fd5b6001600060146101000a81548160ff021916908315150217905550565b6000809054906101000a900473ffffffffffffffffffffffffffffffffffffffff1681565b600a81565b6000809054906101000a900473ffffffffffffffffffffffffffffffffffffffff1673ffffffffffffffffffffffffffffffffffffffff163373ffffffffffffffffffffffffffffffffffffffff16141515610578576040517f08c379a00000000000000000000000000000000000000000000000000000000081526004018080602001828103825260098152602001807f4e6f74204f776e6572000000000000000000000000000000000000000000000081525060200191505060405180910390fd5b600073ffffffffffffffffffffffffffffffffffffffff168173ffffffffffffffffffffffffffffffffffffffff161415151561061d576040517f08c379a00000000000000000000000000000000000000000000000000000000081526004018080602001828103825260078152602001807f5761726e696e670000000000000000000000000000000000000000000000000081525060200191505060405180910390fd5b806000806101000a81548173ffffffffffffffffffffffffffffffffffffffff021916908373ffffffffffffffffffffffffffffffffffffffff1602179055505056fea165627a7a723058200a7d13b1bd314b190762ca32cc4cf901e5196292e3da5d5a925760abe48355040029",
  "source": "pragma solidity ^0.5.0;\r\n\r\nimport \"./SurveyAccessControl.sol\";\r\n\r\ncontract SurveyBase is SurveyAccessControl {\r\n    /*** EVENT ***/\r\n    /** @dev 설문 생성 이벤트 */\r\n    event CreateSurvey(uint256 surveyId, address owner);\r\n    /** @dev 영수증 생성 이벤트 */\r\n    event CreateReceipt(uint256 receiptId, address owner);\r\n    /** @dev 기부 단체 생성 이벤트 */\r\n    event CreateFoundation(uint256 foundationId, address owner);\r\n    /** @dev 상품 생성 이벤트 */\r\n    event CreateProduct(uint256 productId, address owner);\r\n\r\n    /*** DATA TYPES ***/\r\n    struct Survey {\r\n        uint256 requestPrice;       // 설문 등록 가격\r\n        uint256 sellPrice;          // 설문 판매 가격\r\n        uint256 rewardPrice;        // 설문 보상 가격\r\n        uint256 maximumCount;       // 최대 응답자 수\r\n        uint256 currentCount;       // 현재 응답자 수\r\n        uint256 startedAt;          // 등록 날짜\r\n        uint8   questionCount;      // 질문 개수\r\n        bool    isSell;             // 팔지 말지\r\n        // bytes32 hashData;       // DB 데이터 변조 여부 확인\r\n    }\r\n\r\n    struct Foundation {\r\n        uint256 currentAmount;      // 현재 모금 액수\r\n        uint256 maximumAmount;      // 목표 모금 액스\r\n        uint256 startedAt;          // 만들어진 시간\r\n        uint256 closedAt;           // 마감 시간\r\n        bool    isAchieved;         // 모금 여부\r\n    }\r\n\r\n    struct Receipt {\r\n        ReceiptTitles title;        // 영수증 타이틀\r\n        ReceiptMethods method;      // 영수증 행동\r\n        address to;                 // 누구에게 전송했는지\r\n        address from;               // 누구의 계좌에서\r\n        uint256 objectId;           // 관련 오브젝트 indexId\r\n        uint256 total;              // 전송량\r\n        uint256 startedAt;          // 날짜\r\n    }\r\n\r\n    struct Product {\r\n        uint256 price;\r\n    }\r\n\r\n    /*** CONSTANTS ***/\r\n    // survey constants\r\n    uint256 public constant PRICE_PER_QUESTION = 10;\r\n\r\n    // receipt constants\r\n    enum ReceiptTitles {\r\n        Survey,\r\n        Foundation,\r\n        Product\r\n    }\r\n    \r\n    enum ReceiptMethods {\r\n        Request,\r\n        Response,\r\n        Donate,\r\n        Buy,\r\n        Sell,\r\n        Reward\r\n    }\r\n\r\n    /*** STORAGE ***/\r\n    Survey[]        surveys;\r\n    Receipt[]       receipts;\r\n    Foundation[]    foundations;\r\n    Product[]       products;\r\n\r\n    /*** DATA's OWNERSHIP ***/\r\n    /// 설문 데이터 주인\r\n    mapping (uint256 => address) surveyIndexToOwner;\r\n    /// 영수증 데이터 주인\r\n    mapping (uint256 => address) receiptIndexToOwner;\r\n    /// 도네이션 모금함 주인\r\n    mapping (uint256 => address) foundationIndexToOwner;\r\n    /// 상품 데이터 주인\r\n    mapping (uint256 => address) productIndexToOwner;\r\n    \r\n    // mapping (address => uint256[]) surveyRequestList;\r\n    // mapping (address => uint256[]) surveyResponseList;\r\n    // mapping (address => uint256[]) foundationCreateList;\r\n    // mapping (address => uint256[]) surveyBuyList;\r\n\r\n    /*** RECEIPTS ***/\r\n    mapping (address => uint256[]) ownerReceiptList;\r\n    // 유저가 요청한 설문 조사 영수증 리스트\r\n    mapping (address => uint256[]) surveyRequestReceiptList;\r\n    // 유저가 응답한 설문 조사 영수증 리스트\r\n    mapping (address => uint256[]) surveyResponseReceiptList;\r\n    // 유저가 구매한 설문 조사 영수증 리스트\r\n    mapping (address => uint256[]) surveyBuyReceiptList;\r\n    // 유저가 판매한 설문 조사 영수증 리스트\r\n    mapping (address => uint256[]) surveySellReceiptList;\r\n    // 설문 구매시 보너스 영수증 리스트\r\n    mapping (address => uint256[]) surveyRewardReceiptList;\r\n    // 유저가 등록한 기부 단체 영수증 리스트\r\n    mapping (address => uint256[]) foundationRequestReceiptList;\r\n    // 유저가 기부한 금액 영수증 리스트\r\n    mapping (address => uint256[]) foundationDonateReceiptList;\r\n    // 유저가 구매한 상품 영수증 리스트\r\n    mapping (address => uint256[]) productBuyReceiptList;\r\n    // 유저가 판매한 상품 영수증 리스트\r\n    mapping (address => uint256[]) productSellReceiptList;\r\n\r\n    \r\n    /**\r\n    * @dev Create Survey(internal)\r\n    * @param _requestPrice 설문 등록 요청 가격.\r\n    * @param _sellPrice 설문 판매시 판매 가격.\r\n    * @param _maximumCount 설문 판매 여부.\r\n    * @param _currentCount 설문 판매 여부.\r\n    * @param _isSell 자동 기부되는 기부단체 Index.\r\n    * @param _questionCount 설문 질문 개수.\r\n    * @param _isSell 설문 판매 여부\r\n    * @return A uint256 설문 구조체 배열에 들어간 Index 반환\r\n    */\r\n    function _createSurvey(\r\n        uint256 _requestPrice,\r\n        uint256 _sellPrice,\r\n        uint256 _rewardPrice,\r\n        uint256 _maximumCount,\r\n        uint256 _currentCount,\r\n        uint256 _startedAt,\r\n        uint8   _questionCount,\r\n        bool    _isSell\r\n        // bytes32 _hashData\r\n    )\r\n        internal\r\n        returns (uint256)\r\n    {\r\n        Survey memory _survey = Survey({\r\n            requestPrice:   _requestPrice,\r\n            sellPrice:      _sellPrice,\r\n            rewardPrice:    _rewardPrice,\r\n            maximumCount:   _maximumCount,\r\n            currentCount:   _currentCount,\r\n            startedAt:      _startedAt,\r\n            questionCount:  _questionCount,\r\n            isSell:         _isSell\r\n            //hashData: _hashData\r\n        });\r\n\r\n        uint256 newSurveyId = surveys.push(_survey) - 1;\r\n\r\n        surveyIndexToOwner[newSurveyId] = msg.sender;\r\n\r\n        emit CreateSurvey(newSurveyId, msg.sender);\r\n\r\n        return newSurveyId;\r\n    }\r\n\r\n    /**\r\n    * @dev 영수증 생성 메소드, 토큰 소비 흐름을 감시\r\n    * CreateReceipt EVENT 발생\r\n    * 종류에 따른 매핑에 영수증 index 저장\r\n    * @param _title 어떤 오브젝트인지, ex) survey, product.\r\n    * @param _method 어떤 행동을 했는지, ex) buy, sell.\r\n    * @param _to 누구의 계좌로 송금 하였는지.\r\n    * @param _from 누구의 계좌에소 출금 하였는지.\r\n    * @param _objectId 스토리지에 저장된 object(survey, product) index.\r\n    * @param _total 총 금액.\r\n    * @return A uint256 영수증 구조체 배열에 들어간 Index 반환\r\n    */\r\n    function _createReceipt(\r\n        ReceiptTitles   _title,\r\n        ReceiptMethods  _method,\r\n        address         _to,\r\n        address         _from,\r\n        uint256         _objectId,\r\n        uint256         _total,\r\n        uint256         _startedAt\r\n    )\r\n        internal\r\n        returns (uint256)\r\n    {\r\n        Receipt memory _receipt = Receipt({\r\n            title:      _title,\r\n            method:     _method,\r\n            to:         _to,\r\n            from:       _from,\r\n            objectId:   _objectId,\r\n            total:      _total,\r\n            startedAt:  _startedAt\r\n        });\r\n        uint256 newReceiptId = receipts.push(_receipt) - 1;\r\n        receiptIndexToOwner[newReceiptId] = msg.sender;\r\n\r\n        ownerReceiptList[msg.sender].push(newReceiptId);\r\n\r\n        // 설문인 경우\r\n        if(_title == ReceiptTitles.Survey) {\r\n            if(_method == ReceiptMethods.Request) {\r\n                surveyRequestReceiptList[msg.sender].push(newReceiptId);\r\n            }else if(_method == ReceiptMethods.Response) {\r\n                surveyResponseReceiptList[msg.sender].push(newReceiptId);\r\n            }else if(_method == ReceiptMethods.Buy) {\r\n                surveyBuyReceiptList[msg.sender].push(newReceiptId);\r\n            }else if(_method == ReceiptMethods.Sell) {\r\n                surveySellReceiptList[msg.sender].push(newReceiptId);\r\n            }else if(_method == ReceiptMethods.Reward) {\r\n                surveyRewardReceiptList[msg.sender].push(newReceiptId);\r\n            }else {\r\n                revert();\r\n            }\r\n        // 기부 단체인 경우\r\n        }else if(_title == ReceiptTitles.Foundation){\r\n            if(_method == ReceiptMethods.Request) {\r\n                foundationRequestReceiptList[msg.sender].push(newReceiptId);\r\n            }else if(_method == ReceiptMethods.Donate) {\r\n                foundationDonateReceiptList[msg.sender].push(newReceiptId);\r\n            }else {\r\n                revert();\r\n            }\r\n        // 상품인 경우\r\n        }else if(_title == ReceiptTitles.Product) {\r\n            if(_method == ReceiptMethods.Buy) {\r\n                productBuyReceiptList[msg.sender].push(newReceiptId);\r\n            }else if(_method == ReceiptMethods.Sell) {\r\n                productSellReceiptList[msg.sender].push(newReceiptId);\r\n            }else {\r\n                revert();\r\n            }\r\n        }else {\r\n            revert();\r\n        }\r\n\r\n        emit CreateReceipt(newReceiptId, msg.sender);\r\n        return newReceiptId;\r\n    }\r\n\r\n    /**\r\n    * @dev 기부단체 생성 메소드 \r\n    * @param _maximumAmount 모금 목표 금액 .\r\n    * @param _closedAt 모금 종료 시간, UNIX Timestamp\r\n    * @return A uint256 기부단체 구조체 배열에 들어간 Index 반환 \r\n    */\r\n    function _createFoundation(\r\n        uint256 _currentAmount,\r\n        uint256 _maximumAmount,\r\n        uint256 _startedAt,\r\n        uint256 _closedAt,\r\n        bool    _isAchieved\r\n    )\r\n        internal\r\n        returns (uint256)\r\n    {\r\n        Foundation memory _foundation = Foundation({\r\n            currentAmount:  _currentAmount,\r\n            maximumAmount:  _maximumAmount,\r\n            startedAt:      _startedAt,\r\n            closedAt:       _closedAt,\r\n            isAchieved:     _isAchieved\r\n        });\r\n\r\n        uint256 newFoundationId = foundations.push(_foundation) - 1;\r\n\r\n        foundationIndexToOwner[newFoundationId] = msg.sender;\r\n\r\n        emit CreateFoundation(newFoundationId, msg.sender);\r\n\r\n        return newFoundationId;\r\n    }\r\n\r\n\r\n\r\n    /**\r\n    * @dev 상품 생성 메소드, 스토리지에 상품 추가 .\r\n    * CreateProduct EVENT 발생\r\n    * @param _price 상품 판매 가격.\r\n    * @return A uint256 상품 구조체 배열에 들어간 Index 반환 \r\n    */\r\n    function _createProduct(\r\n        uint256 _price\r\n    )\r\n        internal\r\n        returns (uint256)\r\n    {\r\n        Product memory _product = Product({\r\n            price: _price\r\n        });\r\n        uint256 newProductId = products.push(_product) - 1;\r\n\r\n        productIndexToOwner[newProductId] = msg.sender;\r\n\r\n        emit CreateProduct(newProductId, msg.sender);\r\n\r\n        return newProductId;\r\n    }\r\n\r\n}\r\n",
  "sourcePath": "/mnt/c/workspace/inosurvey-ethereum/contracts/SurveyBase.sol",
  "compiler": {
    "name": "solc",
    "version": "0.5.0+commit.1d4f565a.Emscripten.clang"
  },
  "schemaVersion": "3.0.2",
  "updatedAt": "2019-05-06T10:09:31.721Z",
  "devdoc": {
    "methods": {}
  },
  "userdoc": {
    "methods": {}
  }
}