{
  "contractName": "SurveyOwnership",
  "abi": [
    {
      "constant": false,
      "inputs": [],
      "name": "unpause",
      "outputs": [],
      "payable": false,
      "stateMutability": "nonpayable",
      "type": "function"
    },
    {
      "constant": true,
      "inputs": [],
      "name": "paused",
      "outputs": [
        {
          "name": "",
          "type": "bool"
        }
      ],
      "payable": false,
      "stateMutability": "view",
      "type": "function"
    },
    {
      "constant": false,
      "inputs": [],
      "name": "pause",
      "outputs": [],
      "payable": false,
      "stateMutability": "nonpayable",
      "type": "function"
    },
    {
      "constant": true,
      "inputs": [],
      "name": "developerAddress",
      "outputs": [
        {
          "name": "",
          "type": "address"
        }
      ],
      "payable": false,
      "stateMutability": "view",
      "type": "function"
    },
    {
      "constant": true,
      "inputs": [],
      "name": "PRICE_PER_QUESTION",
      "outputs": [
        {
          "name": "",
          "type": "uint256"
        }
      ],
      "payable": false,
      "stateMutability": "view",
      "type": "function"
    },
    {
      "constant": false,
      "inputs": [
        {
          "name": "_newDeveloperAddress",
          "type": "address"
        }
      ],
      "name": "setDeveloper",
      "outputs": [],
      "payable": false,
      "stateMutability": "nonpayable",
      "type": "function"
    },
    {
      "anonymous": false,
      "inputs": [
        {
          "indexed": false,
          "name": "surveyId",
          "type": "uint256"
        },
        {
          "indexed": true,
          "name": "account",
          "type": "address"
        }
      ],
      "name": "BuyerAdded",
      "type": "event"
    },
    {
      "anonymous": false,
      "inputs": [
        {
          "indexed": false,
          "name": "surveyId",
          "type": "uint256"
        },
        {
          "indexed": true,
          "name": "account",
          "type": "address"
        }
      ],
      "name": "BuyerRemoved",
      "type": "event"
    },
    {
      "anonymous": false,
      "inputs": [
        {
          "indexed": false,
          "name": "surveyId",
          "type": "uint256"
        },
        {
          "indexed": false,
          "name": "owner",
          "type": "address"
        }
      ],
      "name": "CreateSurvey",
      "type": "event"
    },
    {
      "anonymous": false,
      "inputs": [
        {
          "indexed": false,
          "name": "receiptId",
          "type": "uint256"
        },
        {
          "indexed": false,
          "name": "owner",
          "type": "address"
        }
      ],
      "name": "CreateReceipt",
      "type": "event"
    },
    {
      "anonymous": false,
      "inputs": [
        {
          "indexed": false,
          "name": "foundationId",
          "type": "uint256"
        },
        {
          "indexed": false,
          "name": "owner",
          "type": "address"
        }
      ],
      "name": "CreateFoundation",
      "type": "event"
    },
    {
      "anonymous": false,
      "inputs": [
        {
          "indexed": false,
          "name": "productId",
          "type": "uint256"
        },
        {
          "indexed": false,
          "name": "owner",
          "type": "address"
        }
      ],
      "name": "CreateProduct",
      "type": "event"
    },
    {
      "constant": true,
      "inputs": [
        {
          "name": "_surveyId",
          "type": "uint256"
        }
      ],
      "name": "isBuyableSurvey",
      "outputs": [
        {
          "name": "",
          "type": "bool"
        }
      ],
      "payable": false,
      "stateMutability": "view",
      "type": "function"
    },
    {
      "constant": true,
      "inputs": [
        {
          "name": "_surveyId",
          "type": "uint256"
        },
        {
          "name": "_account",
          "type": "address"
        }
      ],
      "name": "isSurveyToBuyer",
      "outputs": [
        {
          "name": "",
          "type": "bool"
        }
      ],
      "payable": false,
      "stateMutability": "view",
      "type": "function"
    }
  ],
  "bytecode": "0x608060405260008060146101000a81548160ff02191690831515021790555034801561002a57600080fd5b506108628061003a6000396000f3fe60806040526004361061008e576000357c0100000000000000000000000000000000000000000000000000000000900463ffffffff1680633f4ba83a146100935780635c975abb146100aa5780638456cb59146100d9578063a11842ff146100f0578063caccd7f714610143578063d45541931461019a578063de906fed1461020d578063ff70fa4914610238575b600080fd5b34801561009f57600080fd5b506100a8610289565b005b3480156100b657600080fd5b506100bf6103ed565b604051808215151515815260200191505060405180910390f35b3480156100e557600080fd5b506100ee610400565b005b3480156100fc57600080fd5b506101296004803603602081101561011357600080fd5b8101908080359060200190929190505050610566565b604051808215151515815260200191505060405180910390f35b34801561014f57600080fd5b5061015861059d565b604051808273ffffffffffffffffffffffffffffffffffffffff1673ffffffffffffffffffffffffffffffffffffffff16815260200191505060405180910390f35b3480156101a657600080fd5b506101f3600480360360408110156101bd57600080fd5b8101908080359060200190929190803573ffffffffffffffffffffffffffffffffffffffff1690602001909291905050506105c2565b604051808215151515815260200191505060405180910390f35b34801561021957600080fd5b506102226105f1565b6040518082815260200191505060405180910390f35b34801561024457600080fd5b506102876004803603602081101561025b57600080fd5b81019080803573ffffffffffffffffffffffffffffffffffffffff1690602001909291905050506105f6565b005b6000809054906101000a900473ffffffffffffffffffffffffffffffffffffffff1673ffffffffffffffffffffffffffffffffffffffff163373ffffffffffffffffffffffffffffffffffffffff1614151561034d576040517f08c379a00000000000000000000000000000000000000000000000000000000081526004018080602001828103825260098152602001807f4e6f74204f776e6572000000000000000000000000000000000000000000000081525060200191505060405180910390fd5b600060149054906101000a900460ff1615156103d1576040517f08c379a000000000000000000000000000000000000000000000000000000000815260040180806020018281038252600b8152602001807f6e6f74207061757365642e00000000000000000000000000000000000000000081525060200191505060405180910390fd5b60008060146101000a81548160ff021916908315150217905550565b600060149054906101000a900460ff1681565b6000809054906101000a900473ffffffffffffffffffffffffffffffffffffffff1673ffffffffffffffffffffffffffffffffffffffff163373ffffffffffffffffffffffffffffffffffffffff161415156104c4576040517f08c379a00000000000000000000000000000000000000000000000000000000081526004018080602001828103825260098152602001807f4e6f74204f776e6572000000000000000000000000000000000000000000000081525060200191505060405180910390fd5b600060149054906101000a900460ff16151515610549576040517f08c379a000000000000000000000000000000000000000000000000000000000815260040180806020018281038252600f8152602001807f616c7265616479207061757365642e000000000000000000000000000000000081525060200191505060405180910390fd5b6001600060146101000a81548160ff021916908315150217905550565b600060018281548110151561057757fe5b906000526020600020906007020160060160019054906101000a900460ff169050919050565b6000809054906101000a900473ffffffffffffffffffffffffffffffffffffffff1681565b60006105e982601360008681526020019081526020016000206107a290919063ffffffff16565b905092915050565b600a81565b6000809054906101000a900473ffffffffffffffffffffffffffffffffffffffff1673ffffffffffffffffffffffffffffffffffffffff163373ffffffffffffffffffffffffffffffffffffffff161415156106ba576040517f08c379a00000000000000000000000000000000000000000000000000000000081526004018080602001828103825260098152602001807f4e6f74204f776e6572000000000000000000000000000000000000000000000081525060200191505060405180910390fd5b600073ffffffffffffffffffffffffffffffffffffffff168173ffffffffffffffffffffffffffffffffffffffff161415151561075f576040517f08c379a00000000000000000000000000000000000000000000000000000000081526004018080602001828103825260078152602001807f5761726e696e670000000000000000000000000000000000000000000000000081525060200191505060405180910390fd5b806000806101000a81548173ffffffffffffffffffffffffffffffffffffffff021916908373ffffffffffffffffffffffffffffffffffffffff16021790555050565b60008073ffffffffffffffffffffffffffffffffffffffff168273ffffffffffffffffffffffffffffffffffffffff16141515156107df57600080fd5b8260000160008373ffffffffffffffffffffffffffffffffffffffff1673ffffffffffffffffffffffffffffffffffffffff16815260200190815260200160002060009054906101000a900460ff1690509291505056fea165627a7a72305820b973be7ab0527fa0a212897ec5d6cdd13798d6eafd9fd795d851d8e0c90519590029",
  "source": "pragma solidity ^0.5.0;\r\n\r\nimport \"./SurveyBase.sol\";\r\nimport \"../node_modules/openzeppelin-solidity/contracts/access/Roles.sol\";\r\n\r\ncontract SurveyOwnership is SurveyBase {\r\n    using Roles for Roles.Role;\r\n\r\n    event BuyerAdded(uint256 surveyId, address indexed account);\r\n    event BuyerRemoved(uint256 surveyId, address indexed account);\r\n\r\n    mapping (uint256 => Roles.Role) private _surveyToBuyers;\r\n\r\n    /*** OWNERSHIP ***/ \r\n    // 설문조사 주인만 \r\n    modifier onlySurveyOwner(uint256 _surveyId) {\r\n        require(surveyIndexToOwner[_surveyId] == msg.sender);\r\n        _;\r\n    }\r\n    // 상품 주인만 \r\n    modifier onlyProductOwner(uint256 _productId) {\r\n        require(productIndexToOwner[_productId] == msg.sender);\r\n        _;\r\n    }\r\n    // 기부단체 주인만\r\n    modifier onlyFoundationOwner(uint256 _foundationId) {\r\n        require(foundationIndexToOwner[_foundationId] == msg.sender);\r\n        _;\r\n    }\r\n    // 영수증 주인만\r\n    modifier onlyReceiptOwner(uint256 _receiptId) {\r\n        require(receiptIndexToOwner[_receiptId] == msg.sender);\r\n        _;\r\n    }\r\n    // 설문 구매자만\r\n    modifier onlyBuyer(uint256 _surveyId) {\r\n        require(isSurveyToBuyer(_surveyId, msg.sender));\r\n        _;\r\n    }\r\n    // 설문 구매 가능 여부\r\n    modifier buyableSurvey(uint256 _surveyId) {\r\n        require(isBuyableSurvey(_surveyId));\r\n        _;\r\n    }\r\n\r\n    // 구매 가능한 설문조사 인지?\r\n    function isBuyableSurvey(uint256 _surveyId) public view returns (bool) {\r\n        return surveys[_surveyId].isSell;\r\n    }\r\n\r\n    /***  SURVEY ROLE ***/\r\n    function isSurveyToBuyer(uint256 _surveyId, address _account) public view returns (bool) {\r\n        return _surveyToBuyers[_surveyId].has(_account);\r\n    }\r\n\r\n    function addSubscriber(uint256 _surveyId, address _account) internal {\r\n        _addSubscriber(_surveyId, _account);\r\n    }\r\n\r\n    function renounceSubscriber(uint256 _surveyId, address _account) internal {\r\n        _removeSubscriber(_surveyId, _account);\r\n    }\r\n\r\n    function _addSubscriber(uint256 _surveyId, address _account) internal {\r\n        _surveyToBuyers[_surveyId].add(_account);\r\n        emit BuyerAdded(_surveyId, _account);\r\n    }\r\n\r\n    function _removeSubscriber(uint256 _surveyId, address _account) internal {\r\n        _surveyToBuyers[_surveyId].remove(_account);\r\n        emit BuyerRemoved(_surveyId, _account);\r\n    }\r\n}",
  "sourcePath": "/mnt/c/workspace/inosurvey-ethereum/contracts/SurveyOwnership.sol",
  "compiler": {
    "name": "solc",
    "version": "0.5.0+commit.1d4f565a.Emscripten.clang"
  },
  "schemaVersion": "3.0.2",
  "updatedAt": "2019-05-06T10:09:31.734Z",
  "devdoc": {
    "methods": {}
  },
  "userdoc": {
    "methods": {
      "isSurveyToBuyer(uint256,address)": {
        "notice": "*  SURVEY ROLE **"
      }
    }
  }
}