{
  "contractName": "SurveyOwnership",
  "abi": [
    {
      "constant": false,
      "inputs": [],
      "name": "unpause",
      "outputs": [],
      "payable": false,
      "stateMutability": "nonpayable",
      "type": "function"
    },
    {
      "constant": true,
      "inputs": [],
      "name": "paused",
      "outputs": [
        {
          "name": "",
          "type": "bool"
        }
      ],
      "payable": false,
      "stateMutability": "view",
      "type": "function"
    },
    {
      "constant": false,
      "inputs": [],
      "name": "pause",
      "outputs": [],
      "payable": false,
      "stateMutability": "nonpayable",
      "type": "function"
    },
    {
      "constant": true,
      "inputs": [],
      "name": "developerAddress",
      "outputs": [
        {
          "name": "",
          "type": "address"
        }
      ],
      "payable": false,
      "stateMutability": "view",
      "type": "function"
    },
    {
      "constant": true,
      "inputs": [],
      "name": "PRICE_PER_QUESTION",
      "outputs": [
        {
          "name": "",
          "type": "uint256"
        }
      ],
      "payable": false,
      "stateMutability": "view",
      "type": "function"
    },
    {
      "constant": false,
      "inputs": [
        {
          "name": "_newDeveloperAddress",
          "type": "address"
        }
      ],
      "name": "setDeveloper",
      "outputs": [],
      "payable": false,
      "stateMutability": "nonpayable",
      "type": "function"
    },
    {
      "anonymous": false,
      "inputs": [
        {
          "indexed": false,
          "name": "surveyId",
          "type": "uint256"
        },
        {
          "indexed": true,
          "name": "account",
          "type": "address"
        }
      ],
      "name": "BuyerAdded",
      "type": "event"
    },
    {
      "anonymous": false,
      "inputs": [
        {
          "indexed": false,
          "name": "surveyId",
          "type": "uint256"
        },
        {
          "indexed": true,
          "name": "account",
          "type": "address"
        }
      ],
      "name": "BuyerRemoved",
      "type": "event"
    },
    {
      "anonymous": false,
      "inputs": [
        {
          "indexed": false,
          "name": "surveyId",
          "type": "uint256"
        },
        {
          "indexed": false,
          "name": "owner",
          "type": "address"
        }
      ],
      "name": "CreateSurvey",
      "type": "event"
    },
    {
      "anonymous": false,
      "inputs": [
        {
          "indexed": false,
          "name": "ReceiptId",
          "type": "uint256"
        },
        {
          "indexed": false,
          "name": "owner",
          "type": "address"
        }
      ],
      "name": "CreateReceipt",
      "type": "event"
    },
    {
      "anonymous": false,
      "inputs": [
        {
          "indexed": false,
          "name": "foundationId",
          "type": "uint256"
        },
        {
          "indexed": false,
          "name": "owner",
          "type": "address"
        }
      ],
      "name": "CreateFoundation",
      "type": "event"
    },
    {
      "anonymous": false,
      "inputs": [
        {
          "indexed": false,
          "name": "productId",
          "type": "uint256"
        },
        {
          "indexed": false,
          "name": "owner",
          "type": "address"
        }
      ],
      "name": "CreateProduct",
      "type": "event"
    },
    {
      "constant": true,
      "inputs": [
        {
          "name": "_surveyId",
          "type": "uint256"
        },
        {
          "name": "_account",
          "type": "address"
        }
      ],
      "name": "isSurveyToBuyer",
      "outputs": [
        {
          "name": "",
          "type": "bool"
        }
      ],
      "payable": false,
      "stateMutability": "view",
      "type": "function"
    }
  ],
  "bytecode": "0x608060405260008060146101000a81548160ff02191690831515021790555034801561002a57600080fd5b506107cd8061003a6000396000f3fe608060405260043610610083576000357c0100000000000000000000000000000000000000000000000000000000900463ffffffff1680633f4ba83a146100885780635c975abb1461009f5780638456cb59146100ce578063caccd7f7146100e5578063d45541931461013c578063de906fed146101af578063ff70fa49146101da575b600080fd5b34801561009457600080fd5b5061009d61022b565b005b3480156100ab57600080fd5b506100b461038f565b604051808215151515815260200191505060405180910390f35b3480156100da57600080fd5b506100e36103a2565b005b3480156100f157600080fd5b506100fa610508565b604051808273ffffffffffffffffffffffffffffffffffffffff1673ffffffffffffffffffffffffffffffffffffffff16815260200191505060405180910390f35b34801561014857600080fd5b506101956004803603604081101561015f57600080fd5b8101908080359060200190929190803573ffffffffffffffffffffffffffffffffffffffff16906020019092919050505061052d565b604051808215151515815260200191505060405180910390f35b3480156101bb57600080fd5b506101c461055c565b6040518082815260200191505060405180910390f35b3480156101e657600080fd5b50610229600480360360208110156101fd57600080fd5b81019080803573ffffffffffffffffffffffffffffffffffffffff169060200190929190505050610561565b005b6000809054906101000a900473ffffffffffffffffffffffffffffffffffffffff1673ffffffffffffffffffffffffffffffffffffffff163373ffffffffffffffffffffffffffffffffffffffff161415156102ef576040517f08c379a00000000000000000000000000000000000000000000000000000000081526004018080602001828103825260098152602001807f4e6f74204f776e6572000000000000000000000000000000000000000000000081525060200191505060405180910390fd5b600060149054906101000a900460ff161515610373576040517f08c379a000000000000000000000000000000000000000000000000000000000815260040180806020018281038252600b8152602001807f6e6f74207061757365642e00000000000000000000000000000000000000000081525060200191505060405180910390fd5b60008060146101000a81548160ff021916908315150217905550565b600060149054906101000a900460ff1681565b6000809054906101000a900473ffffffffffffffffffffffffffffffffffffffff1673ffffffffffffffffffffffffffffffffffffffff163373ffffffffffffffffffffffffffffffffffffffff16141515610466576040517f08c379a00000000000000000000000000000000000000000000000000000000081526004018080602001828103825260098152602001807f4e6f74204f776e6572000000000000000000000000000000000000000000000081525060200191505060405180910390fd5b600060149054906101000a900460ff161515156104eb576040517f08c379a000000000000000000000000000000000000000000000000000000000815260040180806020018281038252600f8152602001807f616c7265616479207061757365642e000000000000000000000000000000000081525060200191505060405180910390fd5b6001600060146101000a81548160ff021916908315150217905550565b6000809054906101000a900473ffffffffffffffffffffffffffffffffffffffff1681565b6000610554826011600086815260200190815260200160002061070d90919063ffffffff16565b905092915050565b600a81565b6000809054906101000a900473ffffffffffffffffffffffffffffffffffffffff1673ffffffffffffffffffffffffffffffffffffffff163373ffffffffffffffffffffffffffffffffffffffff16141515610625576040517f08c379a00000000000000000000000000000000000000000000000000000000081526004018080602001828103825260098152602001807f4e6f74204f776e6572000000000000000000000000000000000000000000000081525060200191505060405180910390fd5b600073ffffffffffffffffffffffffffffffffffffffff168173ffffffffffffffffffffffffffffffffffffffff16141515156106ca576040517f08c379a00000000000000000000000000000000000000000000000000000000081526004018080602001828103825260078152602001807f5761726e696e670000000000000000000000000000000000000000000000000081525060200191505060405180910390fd5b806000806101000a81548173ffffffffffffffffffffffffffffffffffffffff021916908373ffffffffffffffffffffffffffffffffffffffff16021790555050565b60008073ffffffffffffffffffffffffffffffffffffffff168273ffffffffffffffffffffffffffffffffffffffff161415151561074a57600080fd5b8260000160008373ffffffffffffffffffffffffffffffffffffffff1673ffffffffffffffffffffffffffffffffffffffff16815260200190815260200160002060009054906101000a900460ff1690509291505056fea165627a7a7230582058a01b790c946bfbabcc2aeb5a3c9f7323a8821e93ba2330071afb243826781c0029",
  "source": "pragma solidity ^0.5.0;\r\n\r\nimport \"./SurveyBase.sol\";\r\nimport \"../node_modules/openzeppelin-solidity/contracts/access/Roles.sol\";\r\n\r\ncontract SurveyOwnership is SurveyBase {\r\n    using Roles for Roles.Role;\r\n\r\n    event BuyerAdded(uint256 surveyId, address indexed account);\r\n    event BuyerRemoved(uint256 surveyId, address indexed account);\r\n\r\n    mapping (uint256 => Roles.Role) private _surveyToBuyers;\r\n\r\n    /*** OWNERSHIP ***/ \r\n    // 설문조사 주인만 \r\n    modifier onlySurveyOwner(uint256 _surveyId) {\r\n        require(surveyIndexToOwner[_surveyId] == msg.sender);\r\n        _;\r\n    }\r\n    // 상품 주인만 \r\n    modifier onlyProductOwner(uint256 _productId) {\r\n        require(productIndexToOwner[_productId] == msg.sender);\r\n        _;\r\n    }\r\n    // 기부단체 주인만\r\n    modifier onlyFoundationOwner(uint256 _foundationId) {\r\n        require(foundationIndexToOwner[_foundationId] == msg.sender);\r\n        _;\r\n    }\r\n    // 영수증 주인만\r\n    modifier onlyReceiptOwner(uint256 _receiptId) {\r\n        require(receiptIndexToOwner[_receiptId] == msg.sender);\r\n        _;\r\n    }\r\n\r\n    modifier onlyBuyer(uint256 _surveyId) {\r\n        require(isSurveyToBuyer(_surveyId, msg.sender));\r\n        _;\r\n    }\r\n\r\n    /***  SURVEY ROLE ***/\r\n    function isSurveyToBuyer(uint256 _surveyId, address _account) public view returns (bool) {\r\n        return _surveyToBuyers[_surveyId].has(_account);\r\n    }\r\n\r\n    function addSubscriber(uint256 _surveyId, address _account) internal {\r\n        _addSubscriber(_surveyId, _account);\r\n    }\r\n\r\n    function renounceSubscriber(uint256 _surveyId, address _account) internal {\r\n        _removeSubscriber(_surveyId, _account);\r\n    }\r\n\r\n    function _addSubscriber(uint256 _surveyId, address _account) internal {\r\n        _surveyToBuyers[_surveyId].add(_account);\r\n        emit BuyerAdded(_surveyId, _account);\r\n    }\r\n\r\n    function _removeSubscriber(uint256 _surveyId, address _account) internal {\r\n        _surveyToBuyers[_surveyId].remove(_account);\r\n        emit BuyerRemoved(_surveyId, _account);\r\n    }\r\n}",
  "sourcePath": "/mnt/c/workspace/inosurvey-ethereum/contracts/SurveyOwnership.sol",
  "compiler": {
    "name": "solc",
    "version": "0.5.0+commit.1d4f565a.Emscripten.clang"
  },
  "schemaVersion": "3.0.2",
  "updatedAt": "2019-04-12T02:23:25.648Z",
  "devdoc": {
    "methods": {}
  },
  "userdoc": {
    "methods": {
      "isSurveyToBuyer(uint256,address)": {
        "notice": "*  SURVEY ROLE **"
      }
    }
  }
}