{
  "contractName": "SurveyResponse",
  "abi": [
    {
      "constant": true,
      "inputs": [],
      "name": "name",
      "outputs": [
        {
          "name": "",
          "type": "string"
        }
      ],
      "payable": false,
      "stateMutability": "view",
      "type": "function"
    },
    {
      "constant": false,
      "inputs": [
        {
          "name": "spender",
          "type": "address"
        },
        {
          "name": "value",
          "type": "uint256"
        }
      ],
      "name": "approve",
      "outputs": [
        {
          "name": "",
          "type": "bool"
        }
      ],
      "payable": false,
      "stateMutability": "nonpayable",
      "type": "function"
    },
    {
      "constant": false,
      "inputs": [],
      "name": "getSurveyRequestList",
      "outputs": [
        {
          "name": "",
          "type": "uint256[]"
        }
      ],
      "payable": false,
      "stateMutability": "nonpayable",
      "type": "function"
    },
    {
      "constant": true,
      "inputs": [],
      "name": "totalSupply",
      "outputs": [
        {
          "name": "",
          "type": "uint256"
        }
      ],
      "payable": false,
      "stateMutability": "view",
      "type": "function"
    },
    {
      "constant": true,
      "inputs": [],
      "name": "getSurveyResponseReceiptList",
      "outputs": [
        {
          "name": "",
          "type": "uint256[]"
        }
      ],
      "payable": false,
      "stateMutability": "view",
      "type": "function"
    },
    {
      "constant": false,
      "inputs": [
        {
          "name": "from",
          "type": "address"
        },
        {
          "name": "to",
          "type": "address"
        },
        {
          "name": "value",
          "type": "uint256"
        }
      ],
      "name": "transferFrom",
      "outputs": [
        {
          "name": "",
          "type": "bool"
        }
      ],
      "payable": false,
      "stateMutability": "nonpayable",
      "type": "function"
    },
    {
      "constant": false,
      "inputs": [
        {
          "name": "_maximumCount",
          "type": "uint256"
        },
        {
          "name": "_createdAt",
          "type": "uint256"
        },
        {
          "name": "_questionCount",
          "type": "uint8"
        }
      ],
      "name": "requestSurvey",
      "outputs": [
        {
          "name": "",
          "type": "bool"
        }
      ],
      "payable": false,
      "stateMutability": "nonpayable",
      "type": "function"
    },
    {
      "constant": true,
      "inputs": [],
      "name": "decimals",
      "outputs": [
        {
          "name": "",
          "type": "uint8"
        }
      ],
      "payable": false,
      "stateMutability": "view",
      "type": "function"
    },
    {
      "constant": true,
      "inputs": [],
      "name": "getFoundationDonateReceiptList",
      "outputs": [
        {
          "name": "",
          "type": "uint256[]"
        }
      ],
      "payable": false,
      "stateMutability": "view",
      "type": "function"
    },
    {
      "constant": false,
      "inputs": [
        {
          "name": "spender",
          "type": "address"
        },
        {
          "name": "addedValue",
          "type": "uint256"
        }
      ],
      "name": "increaseAllowance",
      "outputs": [
        {
          "name": "",
          "type": "bool"
        }
      ],
      "payable": false,
      "stateMutability": "nonpayable",
      "type": "function"
    },
    {
      "constant": false,
      "inputs": [],
      "name": "unpause",
      "outputs": [],
      "payable": false,
      "stateMutability": "nonpayable",
      "type": "function"
    },
    {
      "constant": true,
      "inputs": [
        {
          "name": "_receiptId",
          "type": "uint256"
        }
      ],
      "name": "getReceiptDetail",
      "outputs": [
        {
          "name": "",
          "type": "uint8"
        },
        {
          "name": "",
          "type": "uint8"
        },
        {
          "name": "",
          "type": "address"
        },
        {
          "name": "",
          "type": "address"
        },
        {
          "name": "",
          "type": "uint256"
        },
        {
          "name": "",
          "type": "uint256"
        },
        {
          "name": "",
          "type": "uint256"
        }
      ],
      "payable": false,
      "stateMutability": "view",
      "type": "function"
    },
    {
      "constant": true,
      "inputs": [],
      "name": "getProductBuyReceiptList",
      "outputs": [
        {
          "name": "",
          "type": "uint256[]"
        }
      ],
      "payable": false,
      "stateMutability": "view",
      "type": "function"
    },
    {
      "constant": true,
      "inputs": [],
      "name": "paused",
      "outputs": [
        {
          "name": "",
          "type": "bool"
        }
      ],
      "payable": false,
      "stateMutability": "view",
      "type": "function"
    },
    {
      "constant": true,
      "inputs": [
        {
          "name": "_surveyId",
          "type": "uint256"
        }
      ],
      "name": "getSurveyRequestDetail",
      "outputs": [
        {
          "name": "",
          "type": "uint256"
        },
        {
          "name": "",
          "type": "uint256"
        },
        {
          "name": "",
          "type": "uint256"
        },
        {
          "name": "",
          "type": "uint256"
        },
        {
          "name": "",
          "type": "uint256"
        },
        {
          "name": "",
          "type": "uint8"
        },
        {
          "name": "",
          "type": "bool"
        }
      ],
      "payable": false,
      "stateMutability": "view",
      "type": "function"
    },
    {
      "constant": true,
      "inputs": [
        {
          "name": "owner",
          "type": "address"
        }
      ],
      "name": "balanceOf",
      "outputs": [
        {
          "name": "",
          "type": "uint256"
        }
      ],
      "payable": false,
      "stateMutability": "view",
      "type": "function"
    },
    {
      "constant": true,
      "inputs": [],
      "name": "getSurveySellReceiptList",
      "outputs": [
        {
          "name": "",
          "type": "uint256[]"
        }
      ],
      "payable": false,
      "stateMutability": "view",
      "type": "function"
    },
    {
      "constant": false,
      "inputs": [],
      "name": "pause",
      "outputs": [],
      "payable": false,
      "stateMutability": "nonpayable",
      "type": "function"
    },
    {
      "constant": true,
      "inputs": [
        {
          "name": "owner",
          "type": "address"
        }
      ],
      "name": "consumeBalanceOf",
      "outputs": [
        {
          "name": "",
          "type": "uint256"
        }
      ],
      "payable": false,
      "stateMutability": "view",
      "type": "function"
    },
    {
      "constant": true,
      "inputs": [],
      "name": "symbol",
      "outputs": [
        {
          "name": "",
          "type": "string"
        }
      ],
      "payable": false,
      "stateMutability": "view",
      "type": "function"
    },
    {
      "constant": false,
      "inputs": [
        {
          "name": "spender",
          "type": "address"
        },
        {
          "name": "subtractedValue",
          "type": "uint256"
        }
      ],
      "name": "decreaseAllowance",
      "outputs": [
        {
          "name": "",
          "type": "bool"
        }
      ],
      "payable": false,
      "stateMutability": "nonpayable",
      "type": "function"
    },
    {
      "constant": true,
      "inputs": [],
      "name": "getProductSellReceiptList",
      "outputs": [
        {
          "name": "",
          "type": "uint256[]"
        }
      ],
      "payable": false,
      "stateMutability": "view",
      "type": "function"
    },
    {
      "constant": false,
      "inputs": [
        {
          "name": "to",
          "type": "address"
        },
        {
          "name": "value",
          "type": "uint256"
        }
      ],
      "name": "transfer",
      "outputs": [
        {
          "name": "",
          "type": "bool"
        }
      ],
      "payable": false,
      "stateMutability": "nonpayable",
      "type": "function"
    },
    {
      "constant": true,
      "inputs": [],
      "name": "getSurveyRequestReceiptList",
      "outputs": [
        {
          "name": "",
          "type": "uint256[]"
        }
      ],
      "payable": false,
      "stateMutability": "view",
      "type": "function"
    },
    {
      "constant": true,
      "inputs": [],
      "name": "getSurveyBuyReceiptList",
      "outputs": [
        {
          "name": "",
          "type": "uint256[]"
        }
      ],
      "payable": false,
      "stateMutability": "view",
      "type": "function"
    },
    {
      "constant": true,
      "inputs": [],
      "name": "developerAddress",
      "outputs": [
        {
          "name": "",
          "type": "address"
        }
      ],
      "payable": false,
      "stateMutability": "view",
      "type": "function"
    },
    {
      "constant": true,
      "inputs": [
        {
          "name": "_surveyId",
          "type": "uint256"
        },
        {
          "name": "_account",
          "type": "address"
        }
      ],
      "name": "isSurveyToBuyer",
      "outputs": [
        {
          "name": "",
          "type": "bool"
        }
      ],
      "payable": false,
      "stateMutability": "view",
      "type": "function"
    },
    {
      "constant": true,
      "inputs": [
        {
          "name": "owner",
          "type": "address"
        },
        {
          "name": "spender",
          "type": "address"
        }
      ],
      "name": "allowance",
      "outputs": [
        {
          "name": "",
          "type": "uint256"
        }
      ],
      "payable": false,
      "stateMutability": "view",
      "type": "function"
    },
    {
      "constant": true,
      "inputs": [],
      "name": "PRICE_PER_QUESTION",
      "outputs": [
        {
          "name": "",
          "type": "uint256"
        }
      ],
      "payable": false,
      "stateMutability": "view",
      "type": "function"
    },
    {
      "constant": false,
      "inputs": [
        {
          "name": "_newDeveloperAddress",
          "type": "address"
        }
      ],
      "name": "setDeveloper",
      "outputs": [],
      "payable": false,
      "stateMutability": "nonpayable",
      "type": "function"
    },
    {
      "anonymous": false,
      "inputs": [
        {
          "indexed": true,
          "name": "from",
          "type": "address"
        },
        {
          "indexed": true,
          "name": "to",
          "type": "address"
        },
        {
          "indexed": false,
          "name": "value",
          "type": "uint256"
        }
      ],
      "name": "Transfer",
      "type": "event"
    },
    {
      "anonymous": false,
      "inputs": [
        {
          "indexed": true,
          "name": "owner",
          "type": "address"
        },
        {
          "indexed": true,
          "name": "spender",
          "type": "address"
        },
        {
          "indexed": false,
          "name": "value",
          "type": "uint256"
        }
      ],
      "name": "Approval",
      "type": "event"
    },
    {
      "anonymous": false,
      "inputs": [
        {
          "indexed": false,
          "name": "surveyId",
          "type": "uint256"
        },
        {
          "indexed": true,
          "name": "account",
          "type": "address"
        }
      ],
      "name": "BuyerAdded",
      "type": "event"
    },
    {
      "anonymous": false,
      "inputs": [
        {
          "indexed": false,
          "name": "surveyId",
          "type": "uint256"
        },
        {
          "indexed": true,
          "name": "account",
          "type": "address"
        }
      ],
      "name": "BuyerRemoved",
      "type": "event"
    },
    {
      "anonymous": false,
      "inputs": [
        {
          "indexed": false,
          "name": "surveyId",
          "type": "uint256"
        },
        {
          "indexed": false,
          "name": "owner",
          "type": "address"
        }
      ],
      "name": "CreateSurvey",
      "type": "event"
    },
    {
      "anonymous": false,
      "inputs": [
        {
          "indexed": false,
          "name": "ReceiptId",
          "type": "uint256"
        },
        {
          "indexed": false,
          "name": "owner",
          "type": "address"
        }
      ],
      "name": "CreateReceipt",
      "type": "event"
    },
    {
      "anonymous": false,
      "inputs": [
        {
          "indexed": false,
          "name": "foundationId",
          "type": "uint256"
        },
        {
          "indexed": false,
          "name": "owner",
          "type": "address"
        }
      ],
      "name": "CreateFoundation",
      "type": "event"
    },
    {
      "anonymous": false,
      "inputs": [
        {
          "indexed": false,
          "name": "productId",
          "type": "uint256"
        },
        {
          "indexed": false,
          "name": "owner",
          "type": "address"
        }
      ],
      "name": "CreateProduct",
      "type": "event"
    },
    {
      "constant": false,
      "inputs": [
        {
          "name": "_surveyId",
          "type": "uint256"
        }
      ],
      "name": "responseSurvey",
      "outputs": [
        {
          "name": "",
          "type": "bool"
        }
      ],
      "payable": false,
      "stateMutability": "nonpayable",
      "type": "function"
    },
    {
      "constant": false,
      "inputs": [],
      "name": "getSurveyResponseList",
      "outputs": [
        {
          "name": "",
          "type": "uint256[]"
        }
      ],
      "payable": false,
      "stateMutability": "nonpayable",
      "type": "function"
    }
  ],
  "bytecode": "0x608060405260008060146101000a81548160ff0219169083151502179055506040805190810160405280600781526020017f494e4f434f494e00000000000000000000000000000000000000000000000000815250601690805190602001906200006b929190620000ea565b506012601760006101000a81548160ff021916908360ff1602179055506040805190810160405280600381526020017f494e43000000000000000000000000000000000000000000000000000000000081525060189080519060200190620000d5929190620000ea565b50348015620000e357600080fd5b5062000199565b828054600181600116156101000203166002900490600052602060002090601f016020900481019282601f106200012d57805160ff19168380011785556200015e565b828001600101855582156200015e579182015b828111156200015d57825182559160200191906001019062000140565b5b5090506200016d919062000171565b5090565b6200019691905b808211156200019257600081600090555060010162000178565b5090565b90565b6137f480620001a96000396000f3fe608060405260043610610196576000357c0100000000000000000000000000000000000000000000000000000000900463ffffffff16806306fdde031461019b578063095ea7b31461022b57806313f082ba1461029e57806318160ddd1461030a5780631f6a0d251461033557806323b872dd146103a1578063282f162b14610434578063313ce5671461049e578063385a44f8146104cf578063395093511461053b5780633f4ba83a146105ae57806354128fa1146105c557806357b2c03c146106b25780635c975abb1461071e5780636b945e781461074d57806370a08231146107d0578063834849d2146108355780638456cb59146108a157806387a29c28146108b857806395d89b411461091d578063965b0dcb146109ad578063a457c2d714610a19578063a6c16e6c14610a8c578063a9059cbb14610af8578063b84a540f14610b6b578063c7c700b714610bd7578063caccd7f714610c43578063d455419314610c9a578063dd62ed3e14610d0d578063de906fed14610d92578063f03e818114610dbd578063ff70fa4914610e10575b600080fd5b3480156101a757600080fd5b506101b0610e61565b6040518080602001828103825283818151815260200191508051906020019080838360005b838110156101f05780820151818401526020810190506101d5565b50505050905090810190601f16801561021d5780820380516001836020036101000a031916815260200191505b509250505060405180910390f35b34801561023757600080fd5b506102846004803603604081101561024e57600080fd5b81019080803573ffffffffffffffffffffffffffffffffffffffff16906020019092919080359060200190929190505050610f03565b604051808215151515815260200191505060405180910390f35b3480156102aa57600080fd5b506102b3611030565b6040518080602001828103825283818151815260200191508051906020019060200280838360005b838110156102f65780820151818401526020810190506102db565b505050509050019250505060405180910390f35b34801561031657600080fd5b5061031f61112e565b6040518082815260200191505060405180910390f35b34801561034157600080fd5b5061034a611138565b6040518080602001828103825283818151815260200191508051906020019060200280838360005b8381101561038d578082015181840152602081019050610372565b505050509050019250505060405180910390f35b3480156103ad57600080fd5b5061041a600480360360608110156103c457600080fd5b81019080803573ffffffffffffffffffffffffffffffffffffffff169060200190929190803573ffffffffffffffffffffffffffffffffffffffff169060200190929190803590602001909291905050506111cd565b604051808215151515815260200191505060405180910390f35b34801561044057600080fd5b506104846004803603606081101561045757600080fd5b810190808035906020019092919080359060200190929190803560ff1690602001909291905050506113d5565b604051808215151515815260200191505060405180910390f35b3480156104aa57600080fd5b506104b361146a565b604051808260ff1660ff16815260200191505060405180910390f35b3480156104db57600080fd5b506104e4611481565b6040518080602001828103825283818151815260200191508051906020019060200280838360005b8381101561052757808201518184015260208101905061050c565b505050509050019250505060405180910390f35b34801561054757600080fd5b506105946004803603604081101561055e57600080fd5b81019080803573ffffffffffffffffffffffffffffffffffffffff16906020019092919080359060200190929190505050611516565b604051808215151515815260200191505060405180910390f35b3480156105ba57600080fd5b506105c361174d565b005b3480156105d157600080fd5b506105fe600480360360208110156105e857600080fd5b81019080803590602001909291905050506118b1565b6040518088600281111561060e57fe5b60ff16815260200187600581111561062257fe5b60ff1681526020018673ffffffffffffffffffffffffffffffffffffffff1673ffffffffffffffffffffffffffffffffffffffff1681526020018573ffffffffffffffffffffffffffffffffffffffff1673ffffffffffffffffffffffffffffffffffffffff16815260200184815260200183815260200182815260200197505050505050505060405180910390f35b3480156106be57600080fd5b506106c7611a85565b6040518080602001828103825283818151815260200191508051906020019060200280838360005b8381101561070a5780820151818401526020810190506106ef565b505050509050019250505060405180910390f35b34801561072a57600080fd5b50610733611b1a565b604051808215151515815260200191505060405180910390f35b34801561075957600080fd5b506107866004803603602081101561077057600080fd5b8101908080359060200190929190505050611b2d565b604051808881526020018781526020018681526020018581526020018481526020018360ff1660ff1681526020018215151515815260200197505050505050505060405180910390f35b3480156107dc57600080fd5b5061081f600480360360208110156107f357600080fd5b81019080803573ffffffffffffffffffffffffffffffffffffffff169060200190929190505050611c52565b6040518082815260200191505060405180910390f35b34801561084157600080fd5b5061084a611c9b565b6040518080602001828103825283818151815260200191508051906020019060200280838360005b8381101561088d578082015181840152602081019050610872565b505050509050019250505060405180910390f35b3480156108ad57600080fd5b506108b6611d30565b005b3480156108c457600080fd5b50610907600480360360208110156108db57600080fd5b81019080803573ffffffffffffffffffffffffffffffffffffffff169060200190929190505050611e96565b6040518082815260200191505060405180910390f35b34801561092957600080fd5b50610932611edf565b6040518080602001828103825283818151815260200191508051906020019080838360005b83811015610972578082015181840152602081019050610957565b50505050905090810190601f16801561099f5780820380516001836020036101000a031916815260200191505b509250505060405180910390f35b3480156109b957600080fd5b506109c2611f81565b6040518080602001828103825283818151815260200191508051906020019060200280838360005b83811015610a055780820151818401526020810190506109ea565b505050509050019250505060405180910390f35b348015610a2557600080fd5b50610a7260048036036040811015610a3c57600080fd5b81019080803573ffffffffffffffffffffffffffffffffffffffff169060200190929190803590602001909291905050506120c0565b604051808215151515815260200191505060405180910390f35b348015610a9857600080fd5b50610aa16122f7565b6040518080602001828103825283818151815260200191508051906020019060200280838360005b83811015610ae4578082015181840152602081019050610ac9565b505050509050019250505060405180910390f35b348015610b0457600080fd5b50610b5160048036036040811015610b1b57600080fd5b81019080803573ffffffffffffffffffffffffffffffffffffffff1690602001909291908035906020019092919050505061238c565b604051808215151515815260200191505060405180910390f35b348015610b7757600080fd5b50610b806123a3565b6040518080602001828103825283818151815260200191508051906020019060200280838360005b83811015610bc3578082015181840152602081019050610ba8565b505050509050019250505060405180910390f35b348015610be357600080fd5b50610bec612438565b6040518080602001828103825283818151815260200191508051906020019060200280838360005b83811015610c2f578082015181840152602081019050610c14565b505050509050019250505060405180910390f35b348015610c4f57600080fd5b50610c586124cd565b604051808273ffffffffffffffffffffffffffffffffffffffff1673ffffffffffffffffffffffffffffffffffffffff16815260200191505060405180910390f35b348015610ca657600080fd5b50610cf360048036036040811015610cbd57600080fd5b8101908080359060200190929190803573ffffffffffffffffffffffffffffffffffffffff1690602001909291905050506124f2565b604051808215151515815260200191505060405180910390f35b348015610d1957600080fd5b50610d7c60048036036040811015610d3057600080fd5b81019080803573ffffffffffffffffffffffffffffffffffffffff169060200190929190803573ffffffffffffffffffffffffffffffffffffffff169060200190929190505050612521565b6040518082815260200191505060405180910390f35b348015610d9e57600080fd5b50610da76125a8565b6040518082815260200191505060405180910390f35b348015610dc957600080fd5b50610df660048036036020811015610de057600080fd5b81019080803590602001909291905050506125ad565b604051808215151515815260200191505060405180910390f35b348015610e1c57600080fd5b50610e5f60048036036020811015610e3357600080fd5b81019080803573ffffffffffffffffffffffffffffffffffffffff16906020019092919050505061267e565b005b606060168054600181600116156101000203166002900480601f016020809104026020016040519081016040528092919081815260200182805460018160011615610100020316600290048015610ef95780601f10610ece57610100808354040283529160200191610ef9565b820191906000526020600020905b815481529060010190602001808311610edc57829003601f168201915b5050505050905090565b60008073ffffffffffffffffffffffffffffffffffffffff168373ffffffffffffffffffffffffffffffffffffffff1614151515610f4057600080fd5b81601460003373ffffffffffffffffffffffffffffffffffffffff1673ffffffffffffffffffffffffffffffffffffffff16815260200190815260200160002060008573ffffffffffffffffffffffffffffffffffffffff1673ffffffffffffffffffffffffffffffffffffffff168152602001908152602001600020819055508273ffffffffffffffffffffffffffffffffffffffff163373ffffffffffffffffffffffffffffffffffffffff167f8c5be1e5ebec7d5bd14f71427d1e84f3dd0314c0f7b2291e5b200ac8c7c3b925846040518082815260200191505060405180910390a36001905092915050565b606080606061103d6123a3565b905081601a9080519060200190611055929190613693565b5060008090505b81518110156110d557601a6002838381518110151561107757fe5b9060200190602002015181548110151561108d57fe5b9060005260206000209060050201600201549080600181540180825580915050906001820390600052602060002001600090919290919091505550808060010191505061105c565b50601a80548060200260200160405190810160405280929190818152602001828054801561112257602002820191906000526020600020905b81548152602001906001019080831161110e575b50505050509250505090565b6000601554905090565b6060600a60003373ffffffffffffffffffffffffffffffffffffffff1673ffffffffffffffffffffffffffffffffffffffff1681526020019081526020016000208054806020026020016040519081016040528092919081815260200182805480156111c357602002820191906000526020600020905b8154815260200190600101908083116111af575b5050505050905090565b600061125e82601460008773ffffffffffffffffffffffffffffffffffffffff1673ffffffffffffffffffffffffffffffffffffffff16815260200190815260200160002060003373ffffffffffffffffffffffffffffffffffffffff1673ffffffffffffffffffffffffffffffffffffffff1681526020019081526020016000205461282a90919063ffffffff16565b601460008673ffffffffffffffffffffffffffffffffffffffff1673ffffffffffffffffffffffffffffffffffffffff16815260200190815260200160002060003373ffffffffffffffffffffffffffffffffffffffff1673ffffffffffffffffffffffffffffffffffffffff168152602001908152602001600020819055506112e984848461284c565b3373ffffffffffffffffffffffffffffffffffffffff168473ffffffffffffffffffffffffffffffffffffffff167f8c5be1e5ebec7d5bd14f71427d1e84f3dd0314c0f7b2291e5b200ac8c7c3b925601460008873ffffffffffffffffffffffffffffffffffffffff1673ffffffffffffffffffffffffffffffffffffffff16815260200190815260200160002060003373ffffffffffffffffffffffffffffffffffffffff1673ffffffffffffffffffffffffffffffffffffffff168152602001908152602001600020546040518082815260200191505060405180910390a3600190509392505050565b60008084600a8460ff1602029050600060506064838115156113f357fe5b0402905060008183039050600061140984612b1a565b905061141482612b30565b50801561145a57600061142f8460008b60008c8c6000612b67565b905061143b8133612d22565b61144b600080303385898e612d30565b50600195505050505050611463565b60009450505050505b9392505050565b6000601760009054906101000a900460ff16905090565b6060600e60003373ffffffffffffffffffffffffffffffffffffffff1673ffffffffffffffffffffffffffffffffffffffff16815260200190815260200160002080548060200260200160405190810160405280929190818152602001828054801561150c57602002820191906000526020600020905b8154815260200190600101908083116114f8575b5050505050905090565b60008073ffffffffffffffffffffffffffffffffffffffff168373ffffffffffffffffffffffffffffffffffffffff161415151561155357600080fd5b6115e282601460003373ffffffffffffffffffffffffffffffffffffffff1673ffffffffffffffffffffffffffffffffffffffff16815260200190815260200160002060008673ffffffffffffffffffffffffffffffffffffffff1673ffffffffffffffffffffffffffffffffffffffff168152602001908152602001600020546134a190919063ffffffff16565b601460003373ffffffffffffffffffffffffffffffffffffffff1673ffffffffffffffffffffffffffffffffffffffff16815260200190815260200160002060008573ffffffffffffffffffffffffffffffffffffffff1673ffffffffffffffffffffffffffffffffffffffff168152602001908152602001600020819055508273ffffffffffffffffffffffffffffffffffffffff163373ffffffffffffffffffffffffffffffffffffffff167f8c5be1e5ebec7d5bd14f71427d1e84f3dd0314c0f7b2291e5b200ac8c7c3b925601460003373ffffffffffffffffffffffffffffffffffffffff1673ffffffffffffffffffffffffffffffffffffffff16815260200190815260200160002060008773ffffffffffffffffffffffffffffffffffffffff1673ffffffffffffffffffffffffffffffffffffffff168152602001908152602001600020546040518082815260200191505060405180910390a36001905092915050565b6000809054906101000a900473ffffffffffffffffffffffffffffffffffffffff1673ffffffffffffffffffffffffffffffffffffffff163373ffffffffffffffffffffffffffffffffffffffff16141515611811576040517f08c379a00000000000000000000000000000000000000000000000000000000081526004018080602001828103825260098152602001807f4e6f74204f776e6572000000000000000000000000000000000000000000000081525060200191505060405180910390fd5b600060149054906101000a900460ff161515611895576040517f08c379a000000000000000000000000000000000000000000000000000000000815260040180806020018281038252600b8152602001807f6e6f74207061757365642e00000000000000000000000000000000000000000081525060200191505060405180910390fd5b60008060146101000a81548160ff021916908315150217905550565b6000806000806000806000873373ffffffffffffffffffffffffffffffffffffffff166006600083815260200190815260200160002060009054906101000a900473ffffffffffffffffffffffffffffffffffffffff1673ffffffffffffffffffffffffffffffffffffffff1614151561192a57600080fd5b60028981548110151561193957fe5b906000526020600020906005020160000160009054906101000a900460ff1660028a81548110151561196757fe5b906000526020600020906005020160000160019054906101000a900460ff1660028b81548110151561199557fe5b906000526020600020906005020160000160029054906101000a900473ffffffffffffffffffffffffffffffffffffffff1660028c8154811015156119d657fe5b906000526020600020906005020160010160009054906101000a900473ffffffffffffffffffffffffffffffffffffffff1660028d815481101515611a1757fe5b90600052602060002090600502016002015460028e815481101515611a3857fe5b90600052602060002090600502016003015460028f815481101515611a5957fe5b906000526020600020906005020160040154975097509750975097509750975050919395979092949650565b6060600f60003373ffffffffffffffffffffffffffffffffffffffff1673ffffffffffffffffffffffffffffffffffffffff168152602001908152602001600020805480602002602001604051908101604052809291908181526020018280548015611b1057602002820191906000526020600020905b815481526020019060010190808311611afc575b5050505050905090565b600060149054906101000a900460ff1681565b6000806000806000806000600188815481101515611b4757fe5b906000526020600020906006020160000154600189815481101515611b6857fe5b90600052602060002090600602016001015460018a815481101515611b8957fe5b90600052602060002090600602016002015460018b815481101515611baa57fe5b90600052602060002090600602016003015460018c815481101515611bcb57fe5b90600052602060002090600602016004015460018d815481101515611bec57fe5b906000526020600020906006020160050160009054906101000a900460ff1660018e815481101515611c1a57fe5b906000526020600020906006020160050160019054906101000a900460ff169650965096509650965096509650919395979092949650565b6000601360008373ffffffffffffffffffffffffffffffffffffffff1673ffffffffffffffffffffffffffffffffffffffff168152602001908152602001600020549050919050565b6060600c60003373ffffffffffffffffffffffffffffffffffffffff1673ffffffffffffffffffffffffffffffffffffffff168152602001908152602001600020805480602002602001604051908101604052809291908181526020018280548015611d2657602002820191906000526020600020905b815481526020019060010190808311611d12575b5050505050905090565b6000809054906101000a900473ffffffffffffffffffffffffffffffffffffffff1673ffffffffffffffffffffffffffffffffffffffff163373ffffffffffffffffffffffffffffffffffffffff16141515611df4576040517f08c379a00000000000000000000000000000000000000000000000000000000081526004018080602001828103825260098152602001807f4e6f74204f776e6572000000000000000000000000000000000000000000000081525060200191505060405180910390fd5b600060149054906101000a900460ff16151515611e79576040517f08c379a000000000000000000000000000000000000000000000000000000000815260040180806020018281038252600f8152602001807f616c7265616479207061757365642e000000000000000000000000000000000081525060200191505060405180910390fd5b6001600060146101000a81548160ff021916908315150217905550565b6000601260008373ffffffffffffffffffffffffffffffffffffffff1673ffffffffffffffffffffffffffffffffffffffff168152602001908152602001600020549050919050565b606060188054600181600116156101000203166002900480601f016020809104026020016040519081016040528092919081815260200182805460018160011615610100020316600290048015611f775780601f10611f4c57610100808354040283529160200191611f77565b820191906000526020600020905b815481529060010190602001808311611f5a57829003601f168201915b5050505050905090565b6060806060611f8e611138565b905081601a9080519060200190611fa6929190613693565b5060008090505b600a60003373ffffffffffffffffffffffffffffffffffffffff1673ffffffffffffffffffffffffffffffffffffffff1681526020019081526020016000208054905081101561206757601a6002838381518110151561200957fe5b9060200190602002015181548110151561201f57fe5b90600052602060002090600502016002015490806001815401808255809150509060018203906000526020600020016000909192909190915055508080600101915050611fad565b50601a8054806020026020016040519081016040528092919081815260200182805480156120b457602002820191906000526020600020905b8154815260200190600101908083116120a0575b50505050509250505090565b60008073ffffffffffffffffffffffffffffffffffffffff168373ffffffffffffffffffffffffffffffffffffffff16141515156120fd57600080fd5b61218c82601460003373ffffffffffffffffffffffffffffffffffffffff1673ffffffffffffffffffffffffffffffffffffffff16815260200190815260200160002060008673ffffffffffffffffffffffffffffffffffffffff1673ffffffffffffffffffffffffffffffffffffffff1681526020019081526020016000205461282a90919063ffffffff16565b601460003373ffffffffffffffffffffffffffffffffffffffff1673ffffffffffffffffffffffffffffffffffffffff16815260200190815260200160002060008573ffffffffffffffffffffffffffffffffffffffff1673ffffffffffffffffffffffffffffffffffffffff168152602001908152602001600020819055508273ffffffffffffffffffffffffffffffffffffffff163373ffffffffffffffffffffffffffffffffffffffff167f8c5be1e5ebec7d5bd14f71427d1e84f3dd0314c0f7b2291e5b200ac8c7c3b925601460003373ffffffffffffffffffffffffffffffffffffffff1673ffffffffffffffffffffffffffffffffffffffff16815260200190815260200160002060008773ffffffffffffffffffffffffffffffffffffffff1673ffffffffffffffffffffffffffffffffffffffff168152602001908152602001600020546040518082815260200191505060405180910390a36001905092915050565b6060601060003373ffffffffffffffffffffffffffffffffffffffff1673ffffffffffffffffffffffffffffffffffffffff16815260200190815260200160002080548060200260200160405190810160405280929190818152602001828054801561238257602002820191906000526020600020905b81548152602001906001019080831161236e575b5050505050905090565b600061239933848461284c565b6001905092915050565b6060600960003373ffffffffffffffffffffffffffffffffffffffff1673ffffffffffffffffffffffffffffffffffffffff16815260200190815260200160002080548060200260200160405190810160405280929190818152602001828054801561242e57602002820191906000526020600020905b81548152602001906001019080831161241a575b5050505050905090565b6060600b60003373ffffffffffffffffffffffffffffffffffffffff1673ffffffffffffffffffffffffffffffffffffffff1681526020019081526020016000208054806020026020016040519081016040528092919081815260200182805480156124c357602002820191906000526020600020905b8154815260200190600101908083116124af575b5050505050905090565b6000809054906101000a900473ffffffffffffffffffffffffffffffffffffffff1681565b600061251982601160008681526020019081526020016000206134c290919063ffffffff16565b905092915050565b6000601460008473ffffffffffffffffffffffffffffffffffffffff1673ffffffffffffffffffffffffffffffffffffffff16815260200190815260200160002060008373ffffffffffffffffffffffffffffffffffffffff1673ffffffffffffffffffffffffffffffffffffffff16815260200190815260200160002054905092915050565b600a81565b600080606460506001858154811015156125c357fe5b9060005260206000209060060201600201546001868154811015156125e457fe5b9060005260206000209060060201600001548115156125ff57fe5b040281151561260a57fe5b049050600061261882613556565b905080156126675760018481548110151561262f57fe5b906000526020600020906006020160030160008154809291906001019190505550612661600060013330888742612d30565b50612672565b600092505050612679565b6001925050505b919050565b6000809054906101000a900473ffffffffffffffffffffffffffffffffffffffff1673ffffffffffffffffffffffffffffffffffffffff163373ffffffffffffffffffffffffffffffffffffffff16141515612742576040517f08c379a00000000000000000000000000000000000000000000000000000000081526004018080602001828103825260098152602001807f4e6f74204f776e6572000000000000000000000000000000000000000000000081525060200191505060405180910390fd5b600073ffffffffffffffffffffffffffffffffffffffff168173ffffffffffffffffffffffffffffffffffffffff16141515156127e7576040517f08c379a00000000000000000000000000000000000000000000000000000000081526004018080602001828103825260078152602001807f5761726e696e670000000000000000000000000000000000000000000000000081525060200191505060405180910390fd5b806000806101000a81548173ffffffffffffffffffffffffffffffffffffffff021916908373ffffffffffffffffffffffffffffffffffffffff16021790555050565b600082821115151561283b57600080fd5b600082840390508091505092915050565b600073ffffffffffffffffffffffffffffffffffffffff168273ffffffffffffffffffffffffffffffffffffffff16141515156128f1576040517f08c379a000000000000000000000000000000000000000000000000000000000815260040180806020018281038252600f8152602001807f6275726e2061646472657373212121000000000000000000000000000000000081525060200191505060405180910390fd5b61294381601360008673ffffffffffffffffffffffffffffffffffffffff1673ffffffffffffffffffffffffffffffffffffffff1681526020019081526020016000205461282a90919063ffffffff16565b601360008573ffffffffffffffffffffffffffffffffffffffff1673ffffffffffffffffffffffffffffffffffffffff168152602001908152602001600020819055506129d881601360008573ffffffffffffffffffffffffffffffffffffffff1673ffffffffffffffffffffffffffffffffffffffff168152602001908152602001600020546134a190919063ffffffff16565b601360008473ffffffffffffffffffffffffffffffffffffffff1673ffffffffffffffffffffffffffffffffffffffff16815260200190815260200160002081905550612a6d81601260008673ffffffffffffffffffffffffffffffffffffffff1673ffffffffffffffffffffffffffffffffffffffff168152602001908152602001600020546134a190919063ffffffff16565b601260008573ffffffffffffffffffffffffffffffffffffffff1673ffffffffffffffffffffffffffffffffffffffff168152602001908152602001600020819055508173ffffffffffffffffffffffffffffffffffffffff168373ffffffffffffffffffffffffffffffffffffffff167fddf252ad1be2c89b69c2b068fc378daa952ba7f163c4a11628f55a4df523b3ef836040518082815260200191505060405180910390a3505050565b6000612b2733308461284c565b60019050919050565b6000612b5e306000809054906101000a900473ffffffffffffffffffffffffffffffffffffffff168461284c565b60019050919050565b6000612b716136e0565b60e0604051908101604052808a81526020018981526020018881526020018781526020018681526020018560ff168152602001841515815250905060006001808390806001815401808255809150509060018203906000526020600020906006020160009091929091909150600082015181600001556020820151816001015560408201518160020155606082015181600301556080820151816004015560a08201518160050160006101000a81548160ff021916908360ff16021790555060c08201518160050160016101000a81548160ff0219169083151502179055505050039050336005600083815260200190815260200160002060006101000a81548173ffffffffffffffffffffffffffffffffffffffff021916908373ffffffffffffffffffffffffffffffffffffffff1602179055507fecc279af01ecc1616810552807a41a6dcbad8eb3a91a33626b2d35c9dfd5c2d58133604051808381526020018273ffffffffffffffffffffffffffffffffffffffff1673ffffffffffffffffffffffffffffffffffffffff1681526020019250505060405180910390a18092505050979650505050505050565b612d2c828261356c565b5050565b6000612d3a613723565b60e0604051908101604052808a6002811115612d5257fe5b8152602001896005811115612d6357fe5b81526020018873ffffffffffffffffffffffffffffffffffffffff1681526020018773ffffffffffffffffffffffffffffffffffffffff168152602001868152602001858152602001848152509050600060016002839080600181540180825580915050906001820390600052602060002090600502016000909192909190915060008201518160000160006101000a81548160ff02191690836002811115612e0857fe5b021790555060208201518160000160016101000a81548160ff02191690836005811115612e3157fe5b021790555060408201518160000160026101000a81548173ffffffffffffffffffffffffffffffffffffffff021916908373ffffffffffffffffffffffffffffffffffffffff16021790555060608201518160010160006101000a81548173ffffffffffffffffffffffffffffffffffffffff021916908373ffffffffffffffffffffffffffffffffffffffff1602179055506080820151816002015560a0820151816003015560c082015181600401555050039050336006600083815260200190815260200160002060006101000a81548173ffffffffffffffffffffffffffffffffffffffff021916908373ffffffffffffffffffffffffffffffffffffffff16021790555060006002811115612f4657fe5b8a6002811115612f5257fe5b14156132265760006005811115612f6557fe5b896005811115612f7157fe5b1415612fe557600960003373ffffffffffffffffffffffffffffffffffffffff1673ffffffffffffffffffffffffffffffffffffffff168152602001908152602001600020819080600181540180825580915050906001820390600052602060002001600090919290919091505550613221565b60016005811115612ff257fe5b896005811115612ffe57fe5b141561307257600a60003373ffffffffffffffffffffffffffffffffffffffff1673ffffffffffffffffffffffffffffffffffffffff168152602001908152602001600020819080600181540180825580915050906001820390600052602060002001600090919290919091505550613220565b6003600581111561307f57fe5b89600581111561308b57fe5b14156130ff57600b60003373ffffffffffffffffffffffffffffffffffffffff1673ffffffffffffffffffffffffffffffffffffffff16815260200190815260200160002081908060018154018082558091505090600182039060005260206000200160009091929091909150555061321f565b6004600581111561310c57fe5b89600581111561311857fe5b141561318c57600c60003373ffffffffffffffffffffffffffffffffffffffff1673ffffffffffffffffffffffffffffffffffffffff16815260200190815260200160002081908060018154018082558091505090600182039060005260206000200160009091929091909150555061321e565b60058081111561319857fe5b8960058111156131a457fe5b141561321857600d60003373ffffffffffffffffffffffffffffffffffffffff1673ffffffffffffffffffffffffffffffffffffffff16815260200190815260200160002081908060018154018082558091505090600182039060005260206000200160009091929091909150555061321d565b600080fd5b5b5b5b5b613426565b6001600281111561323357fe5b8a600281111561323f57fe5b14156132dc576002600581111561325257fe5b89600581111561325e57fe5b14156132d257600e60003373ffffffffffffffffffffffffffffffffffffffff1673ffffffffffffffffffffffffffffffffffffffff1681526020019081526020016000208190806001815401808255809150509060018203906000526020600020016000909192909190915055506132d7565b600080fd5b613425565b6002808111156132e857fe5b8a60028111156132f457fe5b141561341f576003600581111561330757fe5b89600581111561331357fe5b141561338757600f60003373ffffffffffffffffffffffffffffffffffffffff1673ffffffffffffffffffffffffffffffffffffffff16815260200190815260200160002081908060018154018082558091505090600182039060005260206000200160009091929091909150555061341a565b6004600581111561339457fe5b8960058111156133a057fe5b141561341457601060003373ffffffffffffffffffffffffffffffffffffffff1673ffffffffffffffffffffffffffffffffffffffff168152602001908152602001600020819080600181540180825580915050906001820390600052602060002001600090919290919091505550613419565b600080fd5b5b613424565b600080fd5b5b5b7f648ea8614c7f2c919bde3b01694291faae3d403522f45d971755f2ac0e2faa598133604051808381526020018273ffffffffffffffffffffffffffffffffffffffff1673ffffffffffffffffffffffffffffffffffffffff1681526020019250505060405180910390a18092505050979650505050505050565b60008082840190508381101515156134b857600080fd5b8091505092915050565b60008073ffffffffffffffffffffffffffffffffffffffff168273ffffffffffffffffffffffffffffffffffffffff16141515156134ff57600080fd5b8260000160008373ffffffffffffffffffffffffffffffffffffffff1673ffffffffffffffffffffffffffffffffffffffff16815260200190815260200160002060009054906101000a900460ff16905092915050565b600061356330338461284c565b60019050919050565b61359181601160008581526020019081526020016000206135e390919063ffffffff16565b8073ffffffffffffffffffffffffffffffffffffffff167fd28f937e71e8a89ddbefb8937335b2ae03fb74ce63dd6a6f316724c5a7e6c3dc836040518082815260200191505060405180910390a25050565b600073ffffffffffffffffffffffffffffffffffffffff168173ffffffffffffffffffffffffffffffffffffffff161415151561361f57600080fd5b61362982826134c2565b15151561363557600080fd5b60018260000160008373ffffffffffffffffffffffffffffffffffffffff1673ffffffffffffffffffffffffffffffffffffffff16815260200190815260200160002060006101000a81548160ff0219169083151502179055505050565b8280548282559060005260206000209081019282156136cf579160200282015b828111156136ce5782518255916020019190600101906136b3565b5b5090506136dc91906137a3565b5090565b60e0604051908101604052806000815260200160008152602001600081526020016000815260200160008152602001600060ff1681526020016000151581525090565b60e0604051908101604052806000600281111561373c57fe5b81526020016000600581111561374e57fe5b8152602001600073ffffffffffffffffffffffffffffffffffffffff168152602001600073ffffffffffffffffffffffffffffffffffffffff1681526020016000815260200160008152602001600081525090565b6137c591905b808211156137c15760008160009055506001016137a9565b5090565b9056fea165627a7a72305820057d015455edb9ea7cc016c8c781700d10ba247a0c9983ec76ab9d6ec1c25ac00029",
  "source": "pragma solidity ^0.5.0;\r\n\r\nimport \"./SurveyRequest.sol\";\r\n\r\ncontract SurveyResponse is SurveyRequest {\r\n    function responseSurvey(uint256 _surveyId) public returns (bool) {\r\n        uint256 reward = surveys[_surveyId].requestPrice / surveys[_surveyId].maximumCount * 80 / 100;\r\n        // uint256 donationReward = allReward - responseReward;\r\n\r\n        //    \r\n        //  \r\n        bool isSuccess = _transferTokenFromThisToUser(reward);\r\n        // bool donationIsSuccessed = _transferTokenFromThisToFoundation(foundationAddr, donationReward);\r\n\r\n        if(isSuccess) {\r\n            //  \r\n            surveys[_surveyId].currentCount++;\r\n            //  \r\n            _createReceipt(\r\n                ReceiptTitles.Survey,\r\n                ReceiptMethods.Response,\r\n                msg.sender,\r\n                address(this),\r\n                _surveyId,\r\n                reward,\r\n                now\r\n            );\r\n        }else {\r\n            return false;\r\n        }\r\n        return true;\r\n    }\r\n\r\n    //    \r\n    function getSurveyResponseList() public returns (uint256[] memory) {\r\n        uint256[] memory resultList;\r\n        uint256[] memory receiptIndexList = getSurveyResponseReceiptList();\r\n        tempList = resultList;\r\n        for(uint i = 0 ; i < surveyResponseReceiptList[msg.sender].length ; i++) {\r\n            tempList.push(receipts[receiptIndexList[i]].objectId);\r\n        }\r\n        return tempList;\r\n    }\r\n\r\n}",
  "sourcePath": "/mnt/c/workspace/inosurvey-ethereum/contracts/SurveyResponse.sol",
  "compiler": {
    "name": "solc",
    "version": "0.5.0+commit.1d4f565a.Emscripten.clang"
  },
  "schemaVersion": "3.0.2",
  "updatedAt": "2019-04-12T02:23:25.651Z",
  "devdoc": {
    "methods": {
      "getFoundationDonateReceiptList()": {
        "details": "    Index List  "
      },
      "getProductBuyReceiptList()": {
        "details": "     Index List  "
      },
      "getProductSellReceiptList()": {
        "details": "    Index List  "
      },
      "getReceiptDetail(uint256)": {
        "details": "Index    \r",
        "params": {
          "_receiptId": " IndexId\r"
        },
        "return": "ReceiptTitle uint256 enum  . , \rReceiptMethod uint256 enum  , ,  ..\rto address \rfrom address \robjectId uint256  ?\rtotal uint256  \rdate uint256  \r"
      },
      "getSurveyBuyReceiptList()": {
        "details": "    Index List  "
      },
      "getSurveyRequestDetail(uint256)": {
        "details": "    \r",
        "params": {
          "_surveyId": " Sotrage    \r"
        },
        "return": "A uint256    DB primary key  \r"
      },
      "getSurveyRequestList()": {
        "details": "    \r",
        "return": "A uint256[]    DB primary key  \r"
      },
      "getSurveyRequestReceiptList()": {
        "details": "    Index List  "
      },
      "getSurveyResponseReceiptList()": {
        "details": "    Index List  "
      },
      "getSurveySellReceiptList()": {
        "details": "    Index List  "
      },
      "requestSurvey(uint256,uint256,uint8)": {
        "details": "create Survey(public)\r _CreateProduct() \r          \r    \r   false  \r",
        "params": {
          "_createdAt": "  .\r",
          "_maximumCount": "     .\r",
          "_questionCount": "  .\r"
        },
        "return": "A bool    \r"
      }
    }
  },
  "userdoc": {
    "methods": {
      "allowance(address,address)": {
        "notice": "        "
      },
      "approve(address,uint256)": {
        "notice": "            "
      },
      "balanceOf(address)": {
        "notice": "  "
      },
      "consumeBalanceOf(address)": {
        "notice": "  "
      },
      "decreaseAllowance(address,uint256)": {
        "notice": "     "
      },
      "increaseAllowance(address,uint256)": {
        "notice": "     "
      },
      "isSurveyToBuyer(uint256,address)": {
        "notice": "*  SURVEY ROLE **"
      },
      "totalSupply()": {
        "notice": "  "
      },
      "transfer(address,uint256)": {
        "notice": "     "
      },
      "transferFrom(address,address,uint256)": {
        "notice": " account            "
      }
    }
  }
}