{
  "contractName": "SurveyAccessControl",
  "abi": [
    {
      "constant": true,
      "inputs": [],
      "name": "paused",
      "outputs": [
        {
          "name": "",
          "type": "bool"
        }
      ],
      "payable": false,
      "stateMutability": "view",
      "type": "function"
    },
    {
      "constant": true,
      "inputs": [],
      "name": "developerAddress",
      "outputs": [
        {
          "name": "",
          "type": "address"
        }
      ],
      "payable": false,
      "stateMutability": "view",
      "type": "function"
    },
    {
      "constant": false,
      "inputs": [
        {
          "name": "_newDeveloperAddress",
          "type": "address"
        }
      ],
      "name": "setDeveloper",
      "outputs": [],
      "payable": false,
      "stateMutability": "nonpayable",
      "type": "function"
    },
    {
      "constant": false,
      "inputs": [],
      "name": "pause",
      "outputs": [],
      "payable": false,
      "stateMutability": "nonpayable",
      "type": "function"
    },
    {
      "constant": false,
      "inputs": [],
      "name": "unpause",
      "outputs": [],
      "payable": false,
      "stateMutability": "nonpayable",
      "type": "function"
    }
  ],
  "bytecode": "0x608060405260008060146101000a81548160ff02191690831515021790555034801561002a57600080fd5b506106518061003a6000396000f3fe60806040526004361061006d576000357c0100000000000000000000000000000000000000000000000000000000900463ffffffff1680633f4ba83a146100725780635c975abb146100895780638456cb59146100b8578063caccd7f7146100cf578063ff70fa4914610126575b600080fd5b34801561007e57600080fd5b50610087610177565b005b34801561009557600080fd5b5061009e6102db565b604051808215151515815260200191505060405180910390f35b3480156100c457600080fd5b506100cd6102ee565b005b3480156100db57600080fd5b506100e4610454565b604051808273ffffffffffffffffffffffffffffffffffffffff1673ffffffffffffffffffffffffffffffffffffffff16815260200191505060405180910390f35b34801561013257600080fd5b506101756004803603602081101561014957600080fd5b81019080803573ffffffffffffffffffffffffffffffffffffffff169060200190929190505050610479565b005b6000809054906101000a900473ffffffffffffffffffffffffffffffffffffffff1673ffffffffffffffffffffffffffffffffffffffff163373ffffffffffffffffffffffffffffffffffffffff1614151561023b576040517f08c379a00000000000000000000000000000000000000000000000000000000081526004018080602001828103825260098152602001807f4e6f74204f776e6572000000000000000000000000000000000000000000000081525060200191505060405180910390fd5b600060149054906101000a900460ff1615156102bf576040517f08c379a000000000000000000000000000000000000000000000000000000000815260040180806020018281038252600b8152602001807f6e6f74207061757365642e00000000000000000000000000000000000000000081525060200191505060405180910390fd5b60008060146101000a81548160ff021916908315150217905550565b600060149054906101000a900460ff1681565b6000809054906101000a900473ffffffffffffffffffffffffffffffffffffffff1673ffffffffffffffffffffffffffffffffffffffff163373ffffffffffffffffffffffffffffffffffffffff161415156103b2576040517f08c379a00000000000000000000000000000000000000000000000000000000081526004018080602001828103825260098152602001807f4e6f74204f776e6572000000000000000000000000000000000000000000000081525060200191505060405180910390fd5b600060149054906101000a900460ff16151515610437576040517f08c379a000000000000000000000000000000000000000000000000000000000815260040180806020018281038252600f8152602001807f616c7265616479207061757365642e000000000000000000000000000000000081525060200191505060405180910390fd5b6001600060146101000a81548160ff021916908315150217905550565b6000809054906101000a900473ffffffffffffffffffffffffffffffffffffffff1681565b6000809054906101000a900473ffffffffffffffffffffffffffffffffffffffff1673ffffffffffffffffffffffffffffffffffffffff163373ffffffffffffffffffffffffffffffffffffffff1614151561053d576040517f08c379a00000000000000000000000000000000000000000000000000000000081526004018080602001828103825260098152602001807f4e6f74204f776e6572000000000000000000000000000000000000000000000081525060200191505060405180910390fd5b600073ffffffffffffffffffffffffffffffffffffffff168173ffffffffffffffffffffffffffffffffffffffff16141515156105e2576040517f08c379a00000000000000000000000000000000000000000000000000000000081526004018080602001828103825260078152602001807f5761726e696e670000000000000000000000000000000000000000000000000081525060200191505060405180910390fd5b806000806101000a81548173ffffffffffffffffffffffffffffffffffffffff021916908373ffffffffffffffffffffffffffffffffffffffff1602179055505056fea165627a7a72305820de118a4dd61b4f9fcd58ec152775b8f617c67f6829420fd70b58d1b8b2f0b7140029",
  "source": "pragma solidity ^0.5.0;\r\n\r\ncontract SurveyAccessControl {\r\n    /*** ADDRESSES ***/\r\n    address public developerAddress;\r\n\r\n    /*** CONTRACT LIFECYCLE ***/\r\n    bool public paused = false;\r\n\r\n    modifier onlyDeveloper() {\r\n        require(msg.sender == developerAddress, \"Not Owner\");\r\n        _;\r\n    }\r\n    \r\n    // set owner(developer)\r\n    function setDeveloper(address _newDeveloperAddress) external onlyDeveloper {\r\n        // address 0x0... 무시하기(악의적인 컨트랙트 burning 방지)\r\n        require(_newDeveloperAddress != address(0), \"Warning\");\r\n        developerAddress = _newDeveloperAddress;\r\n    }\r\n    \r\n    modifier whenNotPaused() {\r\n        require(!paused, \"already paused.\");\r\n        _;\r\n    }\r\n\r\n    modifier whenPuased() {\r\n        require(paused, \"not paused.\");\r\n        _;\r\n    }\r\n\r\n    function pause() external onlyDeveloper whenNotPaused {\r\n        paused = true;\r\n    }\r\n\r\n    function unpause() external onlyDeveloper whenPuased {\r\n        paused = false;\r\n    }\r\n}",
  "sourcePath": "/mnt/c/workspace/inosurvey-ethereum/contracts/SurveyAccessControl.sol",
  "compiler": {
    "name": "solc",
    "version": "0.5.0+commit.1d4f565a.Emscripten.clang"
  },
  "schemaVersion": "3.0.2",
  "updatedAt": "2019-04-12T02:23:25.643Z",
  "devdoc": {
    "methods": {}
  },
  "userdoc": {
    "methods": {}
  }
}