{
  "contractName": "SurveyResponse",
  "abi": [
    {
      "constant": true,
      "inputs": [],
      "name": "name",
      "outputs": [
        {
          "name": "",
          "type": "string"
        }
      ],
      "payable": false,
      "stateMutability": "view",
      "type": "function"
    },
    {
      "constant": false,
      "inputs": [
        {
          "name": "spender",
          "type": "address"
        },
        {
          "name": "value",
          "type": "uint256"
        }
      ],
      "name": "approve",
      "outputs": [
        {
          "name": "",
          "type": "bool"
        }
      ],
      "payable": false,
      "stateMutability": "nonpayable",
      "type": "function"
    },
    {
      "constant": false,
      "inputs": [],
      "name": "getSurveyRequestList",
      "outputs": [
        {
          "name": "",
          "type": "uint256[]"
        }
      ],
      "payable": false,
      "stateMutability": "nonpayable",
      "type": "function"
    },
    {
      "constant": true,
      "inputs": [],
      "name": "totalSupply",
      "outputs": [
        {
          "name": "",
          "type": "uint256"
        }
      ],
      "payable": false,
      "stateMutability": "view",
      "type": "function"
    },
    {
      "constant": true,
      "inputs": [],
      "name": "getSurveyResponseReceiptList",
      "outputs": [
        {
          "name": "",
          "type": "uint256[]"
        }
      ],
      "payable": false,
      "stateMutability": "view",
      "type": "function"
    },
    {
      "constant": false,
      "inputs": [
        {
          "name": "from",
          "type": "address"
        },
        {
          "name": "to",
          "type": "address"
        },
        {
          "name": "value",
          "type": "uint256"
        }
      ],
      "name": "transferFrom",
      "outputs": [
        {
          "name": "",
          "type": "bool"
        }
      ],
      "payable": false,
      "stateMutability": "nonpayable",
      "type": "function"
    },
    {
      "constant": false,
      "inputs": [
        {
          "name": "_maximumCount",
          "type": "uint256"
        },
        {
          "name": "_startedAt",
          "type": "uint256"
        },
        {
          "name": "_questionCount",
          "type": "uint8"
        }
      ],
      "name": "requestSurvey",
      "outputs": [
        {
          "name": "",
          "type": "uint256"
        }
      ],
      "payable": false,
      "stateMutability": "nonpayable",
      "type": "function"
    },
    {
      "constant": true,
      "inputs": [],
      "name": "decimals",
      "outputs": [
        {
          "name": "",
          "type": "uint8"
        }
      ],
      "payable": false,
      "stateMutability": "view",
      "type": "function"
    },
    {
      "constant": true,
      "inputs": [],
      "name": "getFoundationDonateReceiptList",
      "outputs": [
        {
          "name": "",
          "type": "uint256[]"
        }
      ],
      "payable": false,
      "stateMutability": "view",
      "type": "function"
    },
    {
      "constant": false,
      "inputs": [
        {
          "name": "spender",
          "type": "address"
        },
        {
          "name": "addedValue",
          "type": "uint256"
        }
      ],
      "name": "increaseAllowance",
      "outputs": [
        {
          "name": "",
          "type": "bool"
        }
      ],
      "payable": false,
      "stateMutability": "nonpayable",
      "type": "function"
    },
    {
      "constant": false,
      "inputs": [],
      "name": "unpause",
      "outputs": [],
      "payable": false,
      "stateMutability": "nonpayable",
      "type": "function"
    },
    {
      "constant": true,
      "inputs": [
        {
          "name": "_receiptId",
          "type": "uint256"
        }
      ],
      "name": "getReceiptDetail",
      "outputs": [
        {
          "name": "",
          "type": "uint8"
        },
        {
          "name": "",
          "type": "uint8"
        },
        {
          "name": "",
          "type": "address"
        },
        {
          "name": "",
          "type": "address"
        },
        {
          "name": "",
          "type": "uint256"
        },
        {
          "name": "",
          "type": "uint256"
        },
        {
          "name": "",
          "type": "uint256"
        }
      ],
      "payable": false,
      "stateMutability": "view",
      "type": "function"
    },
    {
      "constant": true,
      "inputs": [],
      "name": "getProductBuyReceiptList",
      "outputs": [
        {
          "name": "",
          "type": "uint256[]"
        }
      ],
      "payable": false,
      "stateMutability": "view",
      "type": "function"
    },
    {
      "constant": true,
      "inputs": [],
      "name": "paused",
      "outputs": [
        {
          "name": "",
          "type": "bool"
        }
      ],
      "payable": false,
      "stateMutability": "view",
      "type": "function"
    },
    {
      "constant": true,
      "inputs": [
        {
          "name": "_surveyId",
          "type": "uint256"
        }
      ],
      "name": "getSurveyRequestDetail",
      "outputs": [
        {
          "name": "",
          "type": "uint256"
        },
        {
          "name": "",
          "type": "uint256"
        },
        {
          "name": "",
          "type": "uint256"
        },
        {
          "name": "",
          "type": "uint256"
        },
        {
          "name": "",
          "type": "uint256"
        },
        {
          "name": "",
          "type": "uint256"
        },
        {
          "name": "",
          "type": "uint8"
        },
        {
          "name": "",
          "type": "bool"
        }
      ],
      "payable": false,
      "stateMutability": "view",
      "type": "function"
    },
    {
      "constant": true,
      "inputs": [],
      "name": "getOwnerReceiptList",
      "outputs": [
        {
          "name": "",
          "type": "uint256[]"
        }
      ],
      "payable": false,
      "stateMutability": "view",
      "type": "function"
    },
    {
      "constant": true,
      "inputs": [
        {
          "name": "owner",
          "type": "address"
        }
      ],
      "name": "balanceOf",
      "outputs": [
        {
          "name": "",
          "type": "uint256"
        }
      ],
      "payable": false,
      "stateMutability": "view",
      "type": "function"
    },
    {
      "constant": true,
      "inputs": [],
      "name": "getFoundationRequestReceiptList",
      "outputs": [
        {
          "name": "",
          "type": "uint256[]"
        }
      ],
      "payable": false,
      "stateMutability": "view",
      "type": "function"
    },
    {
      "constant": false,
      "inputs": [
        {
          "name": "to",
          "type": "address"
        },
        {
          "name": "value",
          "type": "uint256"
        }
      ],
      "name": "faucet",
      "outputs": [
        {
          "name": "",
          "type": "bool"
        }
      ],
      "payable": false,
      "stateMutability": "nonpayable",
      "type": "function"
    },
    {
      "constant": true,
      "inputs": [],
      "name": "getSurveySellReceiptList",
      "outputs": [
        {
          "name": "",
          "type": "uint256[]"
        }
      ],
      "payable": false,
      "stateMutability": "view",
      "type": "function"
    },
    {
      "constant": false,
      "inputs": [],
      "name": "pause",
      "outputs": [],
      "payable": false,
      "stateMutability": "nonpayable",
      "type": "function"
    },
    {
      "constant": true,
      "inputs": [
        {
          "name": "owner",
          "type": "address"
        }
      ],
      "name": "consumeBalanceOf",
      "outputs": [
        {
          "name": "",
          "type": "uint256"
        }
      ],
      "payable": false,
      "stateMutability": "view",
      "type": "function"
    },
    {
      "constant": true,
      "inputs": [],
      "name": "symbol",
      "outputs": [
        {
          "name": "",
          "type": "string"
        }
      ],
      "payable": false,
      "stateMutability": "view",
      "type": "function"
    },
    {
      "constant": true,
      "inputs": [
        {
          "name": "_surveyId",
          "type": "uint256"
        }
      ],
      "name": "isBuyableSurvey",
      "outputs": [
        {
          "name": "",
          "type": "bool"
        }
      ],
      "payable": false,
      "stateMutability": "view",
      "type": "function"
    },
    {
      "constant": false,
      "inputs": [
        {
          "name": "spender",
          "type": "address"
        },
        {
          "name": "subtractedValue",
          "type": "uint256"
        }
      ],
      "name": "decreaseAllowance",
      "outputs": [
        {
          "name": "",
          "type": "bool"
        }
      ],
      "payable": false,
      "stateMutability": "nonpayable",
      "type": "function"
    },
    {
      "constant": true,
      "inputs": [],
      "name": "getProductSellReceiptList",
      "outputs": [
        {
          "name": "",
          "type": "uint256[]"
        }
      ],
      "payable": false,
      "stateMutability": "view",
      "type": "function"
    },
    {
      "constant": false,
      "inputs": [
        {
          "name": "to",
          "type": "address"
        },
        {
          "name": "value",
          "type": "uint256"
        }
      ],
      "name": "transfer",
      "outputs": [
        {
          "name": "",
          "type": "bool"
        }
      ],
      "payable": false,
      "stateMutability": "nonpayable",
      "type": "function"
    },
    {
      "constant": true,
      "inputs": [],
      "name": "getSurveyRequestReceiptList",
      "outputs": [
        {
          "name": "",
          "type": "uint256[]"
        }
      ],
      "payable": false,
      "stateMutability": "view",
      "type": "function"
    },
    {
      "constant": true,
      "inputs": [],
      "name": "getSurveyBuyReceiptList",
      "outputs": [
        {
          "name": "",
          "type": "uint256[]"
        }
      ],
      "payable": false,
      "stateMutability": "view",
      "type": "function"
    },
    {
      "constant": true,
      "inputs": [],
      "name": "developerAddress",
      "outputs": [
        {
          "name": "",
          "type": "address"
        }
      ],
      "payable": false,
      "stateMutability": "view",
      "type": "function"
    },
    {
      "constant": true,
      "inputs": [
        {
          "name": "_surveyId",
          "type": "uint256"
        },
        {
          "name": "_account",
          "type": "address"
        }
      ],
      "name": "isSurveyToBuyer",
      "outputs": [
        {
          "name": "",
          "type": "bool"
        }
      ],
      "payable": false,
      "stateMutability": "view",
      "type": "function"
    },
    {
      "constant": true,
      "inputs": [
        {
          "name": "owner",
          "type": "address"
        },
        {
          "name": "spender",
          "type": "address"
        }
      ],
      "name": "allowance",
      "outputs": [
        {
          "name": "",
          "type": "uint256"
        }
      ],
      "payable": false,
      "stateMutability": "view",
      "type": "function"
    },
    {
      "constant": true,
      "inputs": [],
      "name": "PRICE_PER_QUESTION",
      "outputs": [
        {
          "name": "",
          "type": "uint256"
        }
      ],
      "payable": false,
      "stateMutability": "view",
      "type": "function"
    },
    {
      "constant": false,
      "inputs": [
        {
          "name": "_newDeveloperAddress",
          "type": "address"
        }
      ],
      "name": "setDeveloper",
      "outputs": [],
      "payable": false,
      "stateMutability": "nonpayable",
      "type": "function"
    },
    {
      "anonymous": false,
      "inputs": [
        {
          "indexed": false,
          "name": "surveyId",
          "type": "uint256"
        },
        {
          "indexed": false,
          "name": "reward",
          "type": "uint256"
        }
      ],
      "name": "ResponseSurvey",
      "type": "event"
    },
    {
      "anonymous": false,
      "inputs": [
        {
          "indexed": true,
          "name": "from",
          "type": "address"
        },
        {
          "indexed": true,
          "name": "to",
          "type": "address"
        },
        {
          "indexed": false,
          "name": "value",
          "type": "uint256"
        }
      ],
      "name": "Transfer",
      "type": "event"
    },
    {
      "anonymous": false,
      "inputs": [
        {
          "indexed": true,
          "name": "owner",
          "type": "address"
        },
        {
          "indexed": true,
          "name": "spender",
          "type": "address"
        },
        {
          "indexed": false,
          "name": "value",
          "type": "uint256"
        }
      ],
      "name": "Approval",
      "type": "event"
    },
    {
      "anonymous": false,
      "inputs": [
        {
          "indexed": false,
          "name": "surveyId",
          "type": "uint256"
        },
        {
          "indexed": true,
          "name": "account",
          "type": "address"
        }
      ],
      "name": "BuyerAdded",
      "type": "event"
    },
    {
      "anonymous": false,
      "inputs": [
        {
          "indexed": false,
          "name": "surveyId",
          "type": "uint256"
        },
        {
          "indexed": true,
          "name": "account",
          "type": "address"
        }
      ],
      "name": "BuyerRemoved",
      "type": "event"
    },
    {
      "anonymous": false,
      "inputs": [
        {
          "indexed": false,
          "name": "surveyId",
          "type": "uint256"
        },
        {
          "indexed": false,
          "name": "owner",
          "type": "address"
        }
      ],
      "name": "CreateSurvey",
      "type": "event"
    },
    {
      "anonymous": false,
      "inputs": [
        {
          "indexed": false,
          "name": "receiptId",
          "type": "uint256"
        },
        {
          "indexed": false,
          "name": "owner",
          "type": "address"
        }
      ],
      "name": "CreateReceipt",
      "type": "event"
    },
    {
      "anonymous": false,
      "inputs": [
        {
          "indexed": false,
          "name": "foundationId",
          "type": "uint256"
        },
        {
          "indexed": false,
          "name": "owner",
          "type": "address"
        }
      ],
      "name": "CreateFoundation",
      "type": "event"
    },
    {
      "anonymous": false,
      "inputs": [
        {
          "indexed": false,
          "name": "productId",
          "type": "uint256"
        },
        {
          "indexed": false,
          "name": "owner",
          "type": "address"
        }
      ],
      "name": "CreateProduct",
      "type": "event"
    },
    {
      "constant": false,
      "inputs": [
        {
          "name": "_surveyId",
          "type": "uint256"
        }
      ],
      "name": "responseSurvey",
      "outputs": [
        {
          "name": "",
          "type": "uint256"
        }
      ],
      "payable": false,
      "stateMutability": "nonpayable",
      "type": "function"
    },
    {
      "constant": false,
      "inputs": [],
      "name": "getSurveyResponseList",
      "outputs": [
        {
          "name": "",
          "type": "uint256[]"
        }
      ],
      "payable": false,
      "stateMutability": "nonpayable",
      "type": "function"
    }
  ],
  "bytecode": "0x608060405260008060146101000a81548160ff0219169083151502179055506040805190810160405280600781526020017f494e4f434f494e00000000000000000000000000000000000000000000000000815250601890805190602001906200006b929190620000ea565b506012601960006101000a81548160ff021916908360ff1602179055506040805190810160405280600381526020017f494e430000000000000000000000000000000000000000000000000000000000815250601a9080519060200190620000d5929190620000ea565b50348015620000e357600080fd5b5062000199565b828054600181600116156101000203166002900490600052602060002090601f016020900481019282601f106200012d57805160ff19168380011785556200015e565b828001600101855582156200015e579182015b828111156200015d57825182559160200191906001019062000140565b5b5090506200016d919062000171565b5090565b6200019691905b808211156200019257600081600090555060010162000178565b5090565b90565b613e8780620001a96000396000f3fe6080604052600436106101c2576000357c0100000000000000000000000000000000000000000000000000000000900463ffffffff16806306fdde03146101c7578063095ea7b31461025757806313f082ba146102ca57806318160ddd146103365780631f6a0d251461036157806323b872dd146103cd578063282f162b14610460578063313ce567146104c6578063385a44f8146104f757806339509351146105635780633f4ba83a146105d657806354128fa1146105ed57806357b2c03c146106da5780635c975abb146107465780636b945e78146107755780636dfa0642146107ff57806370a082311461086b5780637809aada146108d05780637b56c2b21461093c578063834849d2146109af5780638456cb5914610a1b57806387a29c2814610a3257806395d89b4114610a97578063965b0dcb14610b27578063a11842ff14610b93578063a457c2d714610be6578063a6c16e6c14610c59578063a9059cbb14610cc5578063b84a540f14610d38578063c7c700b714610da4578063caccd7f714610e10578063d455419314610e67578063dd62ed3e14610eda578063de906fed14610f5f578063f03e818114610f8a578063ff70fa4914610fd9575b600080fd5b3480156101d357600080fd5b506101dc61102a565b6040518080602001828103825283818151815260200191508051906020019080838360005b8381101561021c578082015181840152602081019050610201565b50505050905090810190601f1680156102495780820380516001836020036101000a031916815260200191505b509250505060405180910390f35b34801561026357600080fd5b506102b06004803603604081101561027a57600080fd5b81019080803573ffffffffffffffffffffffffffffffffffffffff169060200190929190803590602001909291905050506110cc565b604051808215151515815260200191505060405180910390f35b3480156102d657600080fd5b506102df6111f9565b6040518080602001828103825283818151815260200191508051906020019060200280838360005b83811015610322578082015181840152602081019050610307565b505050509050019250505060405180910390f35b34801561034257600080fd5b5061034b6112f7565b6040518082815260200191505060405180910390f35b34801561036d57600080fd5b50610376611301565b6040518080602001828103825283818151815260200191508051906020019060200280838360005b838110156103b957808201518184015260208101905061039e565b505050509050019250505060405180910390f35b3480156103d957600080fd5b50610446600480360360608110156103f057600080fd5b81019080803573ffffffffffffffffffffffffffffffffffffffff169060200190929190803573ffffffffffffffffffffffffffffffffffffffff16906020019092919080359060200190929190505050611396565b604051808215151515815260200191505060405180910390f35b34801561046c57600080fd5b506104b06004803603606081101561048357600080fd5b810190808035906020019092919080359060200190929190803560ff16906020019092919050505061159e565b6040518082815260200191505060405180910390f35b3480156104d257600080fd5b506104db61164d565b604051808260ff1660ff16815260200191505060405180910390f35b34801561050357600080fd5b5061050c611664565b6040518080602001828103825283818151815260200191508051906020019060200280838360005b8381101561054f578082015181840152602081019050610534565b505050509050019250505060405180910390f35b34801561056f57600080fd5b506105bc6004803603604081101561058657600080fd5b81019080803573ffffffffffffffffffffffffffffffffffffffff169060200190929190803590602001909291905050506116f9565b604051808215151515815260200191505060405180910390f35b3480156105e257600080fd5b506105eb611930565b005b3480156105f957600080fd5b506106266004803603602081101561061057600080fd5b8101908080359060200190929190505050611a94565b6040518088600281111561063657fe5b60ff16815260200187600581111561064a57fe5b60ff1681526020018673ffffffffffffffffffffffffffffffffffffffff1673ffffffffffffffffffffffffffffffffffffffff1681526020018573ffffffffffffffffffffffffffffffffffffffff1673ffffffffffffffffffffffffffffffffffffffff16815260200184815260200183815260200182815260200197505050505050505060405180910390f35b3480156106e657600080fd5b506106ef611c68565b6040518080602001828103825283818151815260200191508051906020019060200280838360005b83811015610732578082015181840152602081019050610717565b505050509050019250505060405180910390f35b34801561075257600080fd5b5061075b611cfd565b604051808215151515815260200191505060405180910390f35b34801561078157600080fd5b506107ae6004803603602081101561079857600080fd5b8101908080359060200190929190505050611d10565b604051808981526020018881526020018781526020018681526020018581526020018481526020018360ff1660ff168152602001821515151581526020019850505050505050505060405180910390f35b34801561080b57600080fd5b50610814611e08565b6040518080602001828103825283818151815260200191508051906020019060200280838360005b8381101561085757808201518184015260208101905061083c565b505050509050019250505060405180910390f35b34801561087757600080fd5b506108ba6004803603602081101561088e57600080fd5b81019080803573ffffffffffffffffffffffffffffffffffffffff169060200190929190505050611e9d565b6040518082815260200191505060405180910390f35b3480156108dc57600080fd5b506108e5611ee6565b6040518080602001828103825283818151815260200191508051906020019060200280838360005b8381101561092857808201518184015260208101905061090d565b505050509050019250505060405180910390f35b34801561094857600080fd5b506109956004803603604081101561095f57600080fd5b81019080803573ffffffffffffffffffffffffffffffffffffffff16906020019092919080359060200190929190505050611f7b565b604051808215151515815260200191505060405180910390f35b3480156109bb57600080fd5b506109c4612055565b6040518080602001828103825283818151815260200191508051906020019060200280838360005b83811015610a075780820151818401526020810190506109ec565b505050509050019250505060405180910390f35b348015610a2757600080fd5b50610a306120ea565b005b348015610a3e57600080fd5b50610a8160048036036020811015610a5557600080fd5b81019080803573ffffffffffffffffffffffffffffffffffffffff169060200190929190505050612250565b6040518082815260200191505060405180910390f35b348015610aa357600080fd5b50610aac612299565b6040518080602001828103825283818151815260200191508051906020019080838360005b83811015610aec578082015181840152602081019050610ad1565b50505050905090810190601f168015610b195780820380516001836020036101000a031916815260200191505b509250505060405180910390f35b348015610b3357600080fd5b50610b3c61233b565b6040518080602001828103825283818151815260200191508051906020019060200280838360005b83811015610b7f578082015181840152602081019050610b64565b505050509050019250505060405180910390f35b348015610b9f57600080fd5b50610bcc60048036036020811015610bb657600080fd5b810190808035906020019092919050505061247a565b604051808215151515815260200191505060405180910390f35b348015610bf257600080fd5b50610c3f60048036036040811015610c0957600080fd5b81019080803573ffffffffffffffffffffffffffffffffffffffff169060200190929190803590602001909291905050506124b1565b604051808215151515815260200191505060405180910390f35b348015610c6557600080fd5b50610c6e6126e8565b6040518080602001828103825283818151815260200191508051906020019060200280838360005b83811015610cb1578082015181840152602081019050610c96565b505050509050019250505060405180910390f35b348015610cd157600080fd5b50610d1e60048036036040811015610ce857600080fd5b81019080803573ffffffffffffffffffffffffffffffffffffffff1690602001909291908035906020019092919050505061277d565b604051808215151515815260200191505060405180910390f35b348015610d4457600080fd5b50610d4d612794565b6040518080602001828103825283818151815260200191508051906020019060200280838360005b83811015610d90578082015181840152602081019050610d75565b505050509050019250505060405180910390f35b348015610db057600080fd5b50610db9612829565b6040518080602001828103825283818151815260200191508051906020019060200280838360005b83811015610dfc578082015181840152602081019050610de1565b505050509050019250505060405180910390f35b348015610e1c57600080fd5b50610e256128be565b604051808273ffffffffffffffffffffffffffffffffffffffff1673ffffffffffffffffffffffffffffffffffffffff16815260200191505060405180910390f35b348015610e7357600080fd5b50610ec060048036036040811015610e8a57600080fd5b8101908080359060200190929190803573ffffffffffffffffffffffffffffffffffffffff1690602001909291905050506128e3565b604051808215151515815260200191505060405180910390f35b348015610ee657600080fd5b50610f4960048036036040811015610efd57600080fd5b81019080803573ffffffffffffffffffffffffffffffffffffffff169060200190929190803573ffffffffffffffffffffffffffffffffffffffff169060200190929190505050612912565b6040518082815260200191505060405180910390f35b348015610f6b57600080fd5b50610f74612999565b6040518082815260200191505060405180910390f35b348015610f9657600080fd5b50610fc360048036036020811015610fad57600080fd5b810190808035906020019092919050505061299e565b6040518082815260200191505060405180910390f35b348015610fe557600080fd5b5061102860048036036020811015610ffc57600080fd5b81019080803573ffffffffffffffffffffffffffffffffffffffff169060200190929190505050612aaa565b005b606060188054600181600116156101000203166002900480601f0160208091040260200160405190810160405280929190818152602001828054600181600116156101000203166002900480156110c25780601f10611097576101008083540402835291602001916110c2565b820191906000526020600020905b8154815290600101906020018083116110a557829003601f168201915b5050505050905090565b60008073ffffffffffffffffffffffffffffffffffffffff168373ffffffffffffffffffffffffffffffffffffffff161415151561110957600080fd5b81601660003373ffffffffffffffffffffffffffffffffffffffff1673ffffffffffffffffffffffffffffffffffffffff16815260200190815260200160002060008573ffffffffffffffffffffffffffffffffffffffff1673ffffffffffffffffffffffffffffffffffffffff168152602001908152602001600020819055508273ffffffffffffffffffffffffffffffffffffffff163373ffffffffffffffffffffffffffffffffffffffff167f8c5be1e5ebec7d5bd14f71427d1e84f3dd0314c0f7b2291e5b200ac8c7c3b925846040518082815260200191505060405180910390a36001905092915050565b6060806060611206612794565b905081601b908051906020019061121e929190613d1e565b5060008090505b815181101561129e57601b6002838381518110151561124057fe5b9060200190602002015181548110151561125657fe5b90600052602060002090600502016002015490806001815401808255809150509060018203906000526020600020016000909192909190915055508080600101915050611225565b50601b8054806020026020016040519081016040528092919081815260200182805480156112eb57602002820191906000526020600020905b8154815260200190600101908083116112d7575b50505050509250505090565b6000601754905090565b6060600b60003373ffffffffffffffffffffffffffffffffffffffff1673ffffffffffffffffffffffffffffffffffffffff16815260200190815260200160002080548060200260200160405190810160405280929190818152602001828054801561138c57602002820191906000526020600020905b815481526020019060010190808311611378575b5050505050905090565b600061142782601660008773ffffffffffffffffffffffffffffffffffffffff1673ffffffffffffffffffffffffffffffffffffffff16815260200190815260200160002060003373ffffffffffffffffffffffffffffffffffffffff1673ffffffffffffffffffffffffffffffffffffffff16815260200190815260200160002054612c5690919063ffffffff16565b601660008673ffffffffffffffffffffffffffffffffffffffff1673ffffffffffffffffffffffffffffffffffffffff16815260200190815260200160002060003373ffffffffffffffffffffffffffffffffffffffff1673ffffffffffffffffffffffffffffffffffffffff168152602001908152602001600020819055506114b2848484612c78565b3373ffffffffffffffffffffffffffffffffffffffff168473ffffffffffffffffffffffffffffffffffffffff167f8c5be1e5ebec7d5bd14f71427d1e84f3dd0314c0f7b2291e5b200ac8c7c3b925601660008873ffffffffffffffffffffffffffffffffffffffff1673ffffffffffffffffffffffffffffffffffffffff16815260200190815260200160002060003373ffffffffffffffffffffffffffffffffffffffff1673ffffffffffffffffffffffffffffffffffffffff168152602001908152602001600020546040518082815260200191505060405180910390a3600190509392505050565b60008084600a8460ff160202905060006064605083028115156115bd57fe5b04905060006064605088848115156115d157fe5b04028115156115dc57fe5b04905060006115ea84612f46565b90506115f7838503612f5c565b508015611641576000611613846000858c60008d8d6000612f93565b905061161f8133613160565b60006116316000803033868a8f61316e565b9050809650505050505050611646565b600080fd5b9392505050565b6000601960009054906101000a900460ff16905090565b6060601060003373ffffffffffffffffffffffffffffffffffffffff1673ffffffffffffffffffffffffffffffffffffffff1681526020019081526020016000208054806020026020016040519081016040528092919081815260200182805480156116ef57602002820191906000526020600020905b8154815260200190600101908083116116db575b5050505050905090565b60008073ffffffffffffffffffffffffffffffffffffffff168373ffffffffffffffffffffffffffffffffffffffff161415151561173657600080fd5b6117c582601660003373ffffffffffffffffffffffffffffffffffffffff1673ffffffffffffffffffffffffffffffffffffffff16815260200190815260200160002060008673ffffffffffffffffffffffffffffffffffffffff1673ffffffffffffffffffffffffffffffffffffffff168152602001908152602001600020546139d690919063ffffffff16565b601660003373ffffffffffffffffffffffffffffffffffffffff1673ffffffffffffffffffffffffffffffffffffffff16815260200190815260200160002060008573ffffffffffffffffffffffffffffffffffffffff1673ffffffffffffffffffffffffffffffffffffffff168152602001908152602001600020819055508273ffffffffffffffffffffffffffffffffffffffff163373ffffffffffffffffffffffffffffffffffffffff167f8c5be1e5ebec7d5bd14f71427d1e84f3dd0314c0f7b2291e5b200ac8c7c3b925601660003373ffffffffffffffffffffffffffffffffffffffff1673ffffffffffffffffffffffffffffffffffffffff16815260200190815260200160002060008773ffffffffffffffffffffffffffffffffffffffff1673ffffffffffffffffffffffffffffffffffffffff168152602001908152602001600020546040518082815260200191505060405180910390a36001905092915050565b6000809054906101000a900473ffffffffffffffffffffffffffffffffffffffff1673ffffffffffffffffffffffffffffffffffffffff163373ffffffffffffffffffffffffffffffffffffffff161415156119f4576040517f08c379a00000000000000000000000000000000000000000000000000000000081526004018080602001828103825260098152602001807f4e6f74204f776e6572000000000000000000000000000000000000000000000081525060200191505060405180910390fd5b600060149054906101000a900460ff161515611a78576040517f08c379a000000000000000000000000000000000000000000000000000000000815260040180806020018281038252600b8152602001807f6e6f74207061757365642e00000000000000000000000000000000000000000081525060200191505060405180910390fd5b60008060146101000a81548160ff021916908315150217905550565b6000806000806000806000873373ffffffffffffffffffffffffffffffffffffffff166006600083815260200190815260200160002060009054906101000a900473ffffffffffffffffffffffffffffffffffffffff1673ffffffffffffffffffffffffffffffffffffffff16141515611b0d57600080fd5b600289815481101515611b1c57fe5b906000526020600020906005020160000160009054906101000a900460ff1660028a815481101515611b4a57fe5b906000526020600020906005020160000160019054906101000a900460ff1660028b815481101515611b7857fe5b906000526020600020906005020160000160029054906101000a900473ffffffffffffffffffffffffffffffffffffffff1660028c815481101515611bb957fe5b906000526020600020906005020160010160009054906101000a900473ffffffffffffffffffffffffffffffffffffffff1660028d815481101515611bfa57fe5b90600052602060002090600502016002015460028e815481101515611c1b57fe5b90600052602060002090600502016003015460028f815481101515611c3c57fe5b906000526020600020906005020160040154975097509750975097509750975050919395979092949650565b6060601160003373ffffffffffffffffffffffffffffffffffffffff1673ffffffffffffffffffffffffffffffffffffffff168152602001908152602001600020805480602002602001604051908101604052809291908181526020018280548015611cf357602002820191906000526020600020905b815481526020019060010190808311611cdf575b5050505050905090565b600060149054906101000a900460ff1681565b600080600080600080600080611d24613d6b565b60018a815481101515611d3357fe5b906000526020600020906007020161010060405190810160405290816000820154815260200160018201548152602001600282015481526020016003820154815260200160048201548152602001600582015481526020016006820160009054906101000a900460ff1660ff1660ff1681526020016006820160019054906101000a900460ff1615151515815250509050806000015181602001518260400151836060015184608001518560a001518660c001518760e001519850985098509850985098509850985050919395975091939597565b6060600960003373ffffffffffffffffffffffffffffffffffffffff1673ffffffffffffffffffffffffffffffffffffffff168152602001908152602001600020805480602002602001604051908101604052809291908181526020018280548015611e9357602002820191906000526020600020905b815481526020019060010190808311611e7f575b5050505050905090565b6000601560008373ffffffffffffffffffffffffffffffffffffffff1673ffffffffffffffffffffffffffffffffffffffff168152602001908152602001600020549050919050565b6060600f60003373ffffffffffffffffffffffffffffffffffffffff1673ffffffffffffffffffffffffffffffffffffffff168152602001908152602001600020805480602002602001604051908101604052809291908181526020018280548015611f7157602002820191906000526020600020905b815481526020019060010190808311611f5d575b5050505050905090565b60008060009054906101000a900473ffffffffffffffffffffffffffffffffffffffff1673ffffffffffffffffffffffffffffffffffffffff163373ffffffffffffffffffffffffffffffffffffffff16141515612041576040517f08c379a00000000000000000000000000000000000000000000000000000000081526004018080602001828103825260098152602001807f4e6f74204f776e6572000000000000000000000000000000000000000000000081525060200191505060405180910390fd5b61204b83836139f7565b6001905092915050565b6060600d60003373ffffffffffffffffffffffffffffffffffffffff1673ffffffffffffffffffffffffffffffffffffffff1681526020019081526020016000208054806020026020016040519081016040528092919081815260200182805480156120e057602002820191906000526020600020905b8154815260200190600101908083116120cc575b5050505050905090565b6000809054906101000a900473ffffffffffffffffffffffffffffffffffffffff1673ffffffffffffffffffffffffffffffffffffffff163373ffffffffffffffffffffffffffffffffffffffff161415156121ae576040517f08c379a00000000000000000000000000000000000000000000000000000000081526004018080602001828103825260098152602001807f4e6f74204f776e6572000000000000000000000000000000000000000000000081525060200191505060405180910390fd5b600060149054906101000a900460ff16151515612233576040517f08c379a000000000000000000000000000000000000000000000000000000000815260040180806020018281038252600f8152602001807f616c7265616479207061757365642e000000000000000000000000000000000081525060200191505060405180910390fd5b6001600060146101000a81548160ff021916908315150217905550565b6000601460008373ffffffffffffffffffffffffffffffffffffffff1673ffffffffffffffffffffffffffffffffffffffff168152602001908152602001600020549050919050565b6060601a8054600181600116156101000203166002900480601f0160208091040260200160405190810160405280929190818152602001828054600181600116156101000203166002900480156123315780601f1061230657610100808354040283529160200191612331565b820191906000526020600020905b81548152906001019060200180831161231457829003601f168201915b5050505050905090565b6060806060612348611301565b905081601b9080519060200190612360929190613d1e565b5060008090505b600b60003373ffffffffffffffffffffffffffffffffffffffff1673ffffffffffffffffffffffffffffffffffffffff1681526020019081526020016000208054905081101561242157601b600283838151811015156123c357fe5b906020019060200201518154811015156123d957fe5b90600052602060002090600502016002015490806001815401808255809150509060018203906000526020600020016000909192909190915055508080600101915050612367565b50601b80548060200260200160405190810160405280929190818152602001828054801561246e57602002820191906000526020600020905b81548152602001906001019080831161245a575b50505050509250505090565b600060018281548110151561248b57fe5b906000526020600020906007020160060160019054906101000a900460ff169050919050565b60008073ffffffffffffffffffffffffffffffffffffffff168373ffffffffffffffffffffffffffffffffffffffff16141515156124ee57600080fd5b61257d82601660003373ffffffffffffffffffffffffffffffffffffffff1673ffffffffffffffffffffffffffffffffffffffff16815260200190815260200160002060008673ffffffffffffffffffffffffffffffffffffffff1673ffffffffffffffffffffffffffffffffffffffff16815260200190815260200160002054612c5690919063ffffffff16565b601660003373ffffffffffffffffffffffffffffffffffffffff1673ffffffffffffffffffffffffffffffffffffffff16815260200190815260200160002060008573ffffffffffffffffffffffffffffffffffffffff1673ffffffffffffffffffffffffffffffffffffffff168152602001908152602001600020819055508273ffffffffffffffffffffffffffffffffffffffff163373ffffffffffffffffffffffffffffffffffffffff167f8c5be1e5ebec7d5bd14f71427d1e84f3dd0314c0f7b2291e5b200ac8c7c3b925601660003373ffffffffffffffffffffffffffffffffffffffff1673ffffffffffffffffffffffffffffffffffffffff16815260200190815260200160002060008773ffffffffffffffffffffffffffffffffffffffff1673ffffffffffffffffffffffffffffffffffffffff168152602001908152602001600020546040518082815260200191505060405180910390a36001905092915050565b6060601260003373ffffffffffffffffffffffffffffffffffffffff1673ffffffffffffffffffffffffffffffffffffffff16815260200190815260200160002080548060200260200160405190810160405280929190818152602001828054801561277357602002820191906000526020600020905b81548152602001906001019080831161275f575b5050505050905090565b600061278a338484612c78565b6001905092915050565b6060600a60003373ffffffffffffffffffffffffffffffffffffffff1673ffffffffffffffffffffffffffffffffffffffff16815260200190815260200160002080548060200260200160405190810160405280929190818152602001828054801561281f57602002820191906000526020600020905b81548152602001906001019080831161280b575b5050505050905090565b6060600c60003373ffffffffffffffffffffffffffffffffffffffff1673ffffffffffffffffffffffffffffffffffffffff1681526020019081526020016000208054806020026020016040519081016040528092919081815260200182805480156128b457602002820191906000526020600020905b8154815260200190600101908083116128a0575b5050505050905090565b6000809054906101000a900473ffffffffffffffffffffffffffffffffffffffff1681565b600061290a8260136000868152602001908152602001600020613b4d90919063ffffffff16565b905092915050565b6000601660008473ffffffffffffffffffffffffffffffffffffffff1673ffffffffffffffffffffffffffffffffffffffff16815260200190815260200160002060008373ffffffffffffffffffffffffffffffffffffffff1673ffffffffffffffffffffffffffffffffffffffff16815260200190815260200160002054905092915050565b600a81565b6000806129ca6001848154811015156129b357fe5b906000526020600020906007020160020154613be1565b90508015612aa0576001838154811015156129e157fe5b9060005260206000209060070201600401600081548092919060010191905055506000612a356000600133308860018a815481101515612a1d57fe5b9060005260206000209060070201600201544261316e565b90507f82819c0188b934397683935664e911078968eee7be8134d9027bbcbbb807bab384600186815481101515612a6857fe5b906000526020600020906007020160020154604051808381526020018281526020019250505060405180910390a18092505050612aa5565b600080fd5b919050565b6000809054906101000a900473ffffffffffffffffffffffffffffffffffffffff1673ffffffffffffffffffffffffffffffffffffffff163373ffffffffffffffffffffffffffffffffffffffff16141515612b6e576040517f08c379a00000000000000000000000000000000000000000000000000000000081526004018080602001828103825260098152602001807f4e6f74204f776e6572000000000000000000000000000000000000000000000081525060200191505060405180910390fd5b600073ffffffffffffffffffffffffffffffffffffffff168173ffffffffffffffffffffffffffffffffffffffff1614151515612c13576040517f08c379a00000000000000000000000000000000000000000000000000000000081526004018080602001828103825260078152602001807f5761726e696e670000000000000000000000000000000000000000000000000081525060200191505060405180910390fd5b806000806101000a81548173ffffffffffffffffffffffffffffffffffffffff021916908373ffffffffffffffffffffffffffffffffffffffff16021790555050565b6000828211151515612c6757600080fd5b600082840390508091505092915050565b600073ffffffffffffffffffffffffffffffffffffffff168273ffffffffffffffffffffffffffffffffffffffff1614151515612d1d576040517f08c379a000000000000000000000000000000000000000000000000000000000815260040180806020018281038252600f8152602001807f6275726e2061646472657373212121000000000000000000000000000000000081525060200191505060405180910390fd5b612d6f81601560008673ffffffffffffffffffffffffffffffffffffffff1673ffffffffffffffffffffffffffffffffffffffff16815260200190815260200160002054612c5690919063ffffffff16565b601560008573ffffffffffffffffffffffffffffffffffffffff1673ffffffffffffffffffffffffffffffffffffffff16815260200190815260200160002081905550612e0481601560008573ffffffffffffffffffffffffffffffffffffffff1673ffffffffffffffffffffffffffffffffffffffff168152602001908152602001600020546139d690919063ffffffff16565b601560008473ffffffffffffffffffffffffffffffffffffffff1673ffffffffffffffffffffffffffffffffffffffff16815260200190815260200160002081905550612e9981601460008673ffffffffffffffffffffffffffffffffffffffff1673ffffffffffffffffffffffffffffffffffffffff168152602001908152602001600020546139d690919063ffffffff16565b601460008573ffffffffffffffffffffffffffffffffffffffff1673ffffffffffffffffffffffffffffffffffffffff168152602001908152602001600020819055508173ffffffffffffffffffffffffffffffffffffffff168373ffffffffffffffffffffffffffffffffffffffff167fddf252ad1be2c89b69c2b068fc378daa952ba7f163c4a11628f55a4df523b3ef836040518082815260200191505060405180910390a3505050565b6000612f53333084612c78565b60019050919050565b6000612f8a306000809054906101000a900473ffffffffffffffffffffffffffffffffffffffff1684612c78565b60019050919050565b6000612f9d613d6b565b610100604051908101604052808b81526020018a81526020018981526020018881526020018781526020018681526020018560ff168152602001841515815250905060006001808390806001815401808255809150509060018203906000526020600020906007020160009091929091909150600082015181600001556020820151816001015560408201518160020155606082015181600301556080820151816004015560a0820151816005015560c08201518160060160006101000a81548160ff021916908360ff16021790555060e08201518160060160016101000a81548160ff0219169083151502179055505050039050336005600083815260200190815260200160002060006101000a81548173ffffffffffffffffffffffffffffffffffffffff021916908373ffffffffffffffffffffffffffffffffffffffff1602179055507fecc279af01ecc1616810552807a41a6dcbad8eb3a91a33626b2d35c9dfd5c2d58133604051808381526020018273ffffffffffffffffffffffffffffffffffffffff1673ffffffffffffffffffffffffffffffffffffffff1681526020019250505060405180910390a1809250505098975050505050505050565b61316a8282613bf7565b5050565b6000613178613db6565b60e0604051908101604052808a600281111561319057fe5b81526020018960058111156131a157fe5b81526020018873ffffffffffffffffffffffffffffffffffffffff1681526020018773ffffffffffffffffffffffffffffffffffffffff168152602001868152602001858152602001848152509050600060016002839080600181540180825580915050906001820390600052602060002090600502016000909192909190915060008201518160000160006101000a81548160ff0219169083600281111561324657fe5b021790555060208201518160000160016101000a81548160ff0219169083600581111561326f57fe5b021790555060408201518160000160026101000a81548173ffffffffffffffffffffffffffffffffffffffff021916908373ffffffffffffffffffffffffffffffffffffffff16021790555060608201518160010160006101000a81548173ffffffffffffffffffffffffffffffffffffffff021916908373ffffffffffffffffffffffffffffffffffffffff1602179055506080820151816002015560a0820151816003015560c082015181600401555050039050336006600083815260200190815260200160002060006101000a81548173ffffffffffffffffffffffffffffffffffffffff021916908373ffffffffffffffffffffffffffffffffffffffff160217905550600960003373ffffffffffffffffffffffffffffffffffffffff1673ffffffffffffffffffffffffffffffffffffffff168152602001908152602001600020819080600181540180825580915050906001820390600052602060002001600090919290919091505550600060028111156133ed57fe5b8a60028111156133f957fe5b14156136cd576000600581111561340c57fe5b89600581111561341857fe5b141561348c57600a60003373ffffffffffffffffffffffffffffffffffffffff1673ffffffffffffffffffffffffffffffffffffffff1681526020019081526020016000208190806001815401808255809150509060018203906000526020600020016000909192909190915055506136c8565b6001600581111561349957fe5b8960058111156134a557fe5b141561351957600b60003373ffffffffffffffffffffffffffffffffffffffff1673ffffffffffffffffffffffffffffffffffffffff1681526020019081526020016000208190806001815401808255809150509060018203906000526020600020016000909192909190915055506136c7565b6003600581111561352657fe5b89600581111561353257fe5b14156135a657600c60003373ffffffffffffffffffffffffffffffffffffffff1673ffffffffffffffffffffffffffffffffffffffff1681526020019081526020016000208190806001815401808255809150509060018203906000526020600020016000909192909190915055506136c6565b600460058111156135b357fe5b8960058111156135bf57fe5b141561363357600d60003373ffffffffffffffffffffffffffffffffffffffff1673ffffffffffffffffffffffffffffffffffffffff1681526020019081526020016000208190806001815401808255809150509060018203906000526020600020016000909192909190915055506136c5565b60058081111561363f57fe5b89600581111561364b57fe5b14156136bf57600e60003373ffffffffffffffffffffffffffffffffffffffff1673ffffffffffffffffffffffffffffffffffffffff1681526020019081526020016000208190806001815401808255809150509060018203906000526020600020016000909192909190915055506136c4565b600080fd5b5b5b5b5b61395b565b600160028111156136da57fe5b8a60028111156136e657fe5b141561381157600060058111156136f957fe5b89600581111561370557fe5b141561377957600f60003373ffffffffffffffffffffffffffffffffffffffff1673ffffffffffffffffffffffffffffffffffffffff16815260200190815260200160002081908060018154018082558091505090600182039060005260206000200160009091929091909150555061380c565b6002600581111561378657fe5b89600581111561379257fe5b141561380657601060003373ffffffffffffffffffffffffffffffffffffffff1673ffffffffffffffffffffffffffffffffffffffff16815260200190815260200160002081908060018154018082558091505090600182039060005260206000200160009091929091909150555061380b565b600080fd5b5b61395a565b60028081111561381d57fe5b8a600281111561382957fe5b1415613954576003600581111561383c57fe5b89600581111561384857fe5b14156138bc57601160003373ffffffffffffffffffffffffffffffffffffffff1673ffffffffffffffffffffffffffffffffffffffff16815260200190815260200160002081908060018154018082558091505090600182039060005260206000200160009091929091909150555061394f565b600460058111156138c957fe5b8960058111156138d557fe5b141561394957601260003373ffffffffffffffffffffffffffffffffffffffff1673ffffffffffffffffffffffffffffffffffffffff16815260200190815260200160002081908060018154018082558091505090600182039060005260206000200160009091929091909150555061394e565b600080fd5b5b613959565b600080fd5b5b5b7f648ea8614c7f2c919bde3b01694291faae3d403522f45d971755f2ac0e2faa598133604051808381526020018273ffffffffffffffffffffffffffffffffffffffff1673ffffffffffffffffffffffffffffffffffffffff1681526020019250505060405180910390a18092505050979650505050505050565b60008082840190508381101515156139ed57600080fd5b8091505092915050565b600073ffffffffffffffffffffffffffffffffffffffff168273ffffffffffffffffffffffffffffffffffffffff1614151515613a3357600080fd5b613a48816017546139d690919063ffffffff16565b601781905550613aa081601560008573ffffffffffffffffffffffffffffffffffffffff1673ffffffffffffffffffffffffffffffffffffffff168152602001908152602001600020546139d690919063ffffffff16565b601560008473ffffffffffffffffffffffffffffffffffffffff1673ffffffffffffffffffffffffffffffffffffffff168152602001908152602001600020819055508173ffffffffffffffffffffffffffffffffffffffff16600073ffffffffffffffffffffffffffffffffffffffff167fddf252ad1be2c89b69c2b068fc378daa952ba7f163c4a11628f55a4df523b3ef836040518082815260200191505060405180910390a35050565b60008073ffffffffffffffffffffffffffffffffffffffff168273ffffffffffffffffffffffffffffffffffffffff1614151515613b8a57600080fd5b8260000160008373ffffffffffffffffffffffffffffffffffffffff1673ffffffffffffffffffffffffffffffffffffffff16815260200190815260200160002060009054906101000a900460ff16905092915050565b6000613bee303384612c78565b60019050919050565b613c1c8160136000858152602001908152602001600020613c6e90919063ffffffff16565b8073ffffffffffffffffffffffffffffffffffffffff167fd28f937e71e8a89ddbefb8937335b2ae03fb74ce63dd6a6f316724c5a7e6c3dc836040518082815260200191505060405180910390a25050565b600073ffffffffffffffffffffffffffffffffffffffff168173ffffffffffffffffffffffffffffffffffffffff1614151515613caa57600080fd5b613cb48282613b4d565b151515613cc057600080fd5b60018260000160008373ffffffffffffffffffffffffffffffffffffffff1673ffffffffffffffffffffffffffffffffffffffff16815260200190815260200160002060006101000a81548160ff0219169083151502179055505050565b828054828255906000526020600020908101928215613d5a579160200282015b82811115613d59578251825591602001919060010190613d3e565b5b509050613d679190613e36565b5090565b61010060405190810160405280600081526020016000815260200160008152602001600081526020016000815260200160008152602001600060ff1681526020016000151581525090565b60e06040519081016040528060006002811115613dcf57fe5b815260200160006005811115613de157fe5b8152602001600073ffffffffffffffffffffffffffffffffffffffff168152602001600073ffffffffffffffffffffffffffffffffffffffff1681526020016000815260200160008152602001600081525090565b613e5891905b80821115613e54576000816000905550600101613e3c565b5090565b9056fea165627a7a72305820dd8e63167c1c0f9e006efac133ee0aa1f3a8095eb64593ee04c1b9281d898d450029",
  "source": "pragma solidity ^0.5.0;\r\n\r\nimport \"./SurveyRequest.sol\";\r\n\r\ncontract SurveyResponse is SurveyRequest {\r\n    /** @dev    */\r\n    event ResponseSurvey(uint256 surveyId, uint256 reward);\r\n\r\n    function responseSurvey(uint256 _surveyId) public returns (uint256) {\r\n\r\n        //    \r\n        //  \r\n        bool isSuccess = _transferTokenFromThisToUser(surveys[_surveyId].rewardPrice);\r\n\r\n        if(isSuccess) {\r\n            //  \r\n            surveys[_surveyId].currentCount++;\r\n            //  \r\n            uint256 newReceiptId = _createReceipt(\r\n                ReceiptTitles.Survey,\r\n                ReceiptMethods.Response,\r\n                msg.sender,\r\n                address(this),\r\n                _surveyId,\r\n                surveys[_surveyId].rewardPrice,\r\n                now\r\n            );\r\n            emit ResponseSurvey(_surveyId, surveys[_surveyId].rewardPrice);\r\n\r\n            return newReceiptId;\r\n        }else {\r\n            revert();\r\n        }\r\n        \r\n    }\r\n\r\n    //    \r\n    function getSurveyResponseList() public returns (uint256[] memory) {\r\n        uint256[] memory resultList;\r\n        uint256[] memory receiptIndexList = getSurveyResponseReceiptList();\r\n        tempList = resultList;\r\n        for(uint i = 0 ; i < surveyResponseReceiptList[msg.sender].length ; i++) {\r\n            tempList.push(receipts[receiptIndexList[i]].objectId);\r\n        }\r\n        return tempList;\r\n    }\r\n\r\n}",
  "sourcePath": "/mnt/c/workspace/inosurvey-ethereum/contracts/SurveyResponse.sol",
  "compiler": {
    "name": "solc",
    "version": "0.5.0+commit.1d4f565a.Emscripten.clang"
  },
  "schemaVersion": "3.0.2",
  "updatedAt": "2019-05-06T10:09:31.737Z",
  "devdoc": {
    "methods": {
      "getFoundationDonateReceiptList()": {
        "details": "    Index List  () "
      },
      "getFoundationRequestReceiptList()": {
        "details": "     Index List  "
      },
      "getOwnerReceiptList()": {
        "details": "   Index List  "
      },
      "getProductBuyReceiptList()": {
        "details": "     Index List  "
      },
      "getProductSellReceiptList()": {
        "details": "    Index List  "
      },
      "getReceiptDetail(uint256)": {
        "details": "Index    \r",
        "params": {
          "_receiptId": " IndexId\r"
        },
        "return": "ReceiptTitle uint256 enum  . , \rReceiptMethod uint256 enum  , ,  ..\rto address \rfrom address \robjectId uint256  ?\rtotal uint256  \rdate uint256  \r"
      },
      "getSurveyBuyReceiptList()": {
        "details": "    Index List  () "
      },
      "getSurveyRequestDetail(uint256)": {
        "details": "    \r",
        "params": {
          "_surveyId": " Sotrage    \r"
        },
        "return": "A uint256    DB primary key  \r"
      },
      "getSurveyRequestList()": {
        "details": "    \r",
        "return": "A uint256[]    DB primary key  \r"
      },
      "getSurveyRequestReceiptList()": {
        "details": "    Index List  () "
      },
      "getSurveyResponseReceiptList()": {
        "details": "    Index List  () "
      },
      "getSurveySellReceiptList()": {
        "details": "    Index List  () "
      },
      "requestSurvey(uint256,uint256,uint8)": {
        "details": "create Survey(public)\r _CreateProduct() \r          \r    \r   false  \r",
        "params": {
          "_maximumCount": "     .\r",
          "_questionCount": "  .\r",
          "_startedAt": "  .\r"
        },
        "return": "A bool    \r"
      }
    }
  },
  "userdoc": {
    "methods": {
      "allowance(address,address)": {
        "notice": "        "
      },
      "approve(address,uint256)": {
        "notice": "            "
      },
      "balanceOf(address)": {
        "notice": "  "
      },
      "consumeBalanceOf(address)": {
        "notice": "  "
      },
      "decreaseAllowance(address,uint256)": {
        "notice": "     "
      },
      "increaseAllowance(address,uint256)": {
        "notice": "     "
      },
      "isSurveyToBuyer(uint256,address)": {
        "notice": "*  SURVEY ROLE **"
      },
      "totalSupply()": {
        "notice": "  "
      },
      "transfer(address,uint256)": {
        "notice": "     "
      },
      "transferFrom(address,address,uint256)": {
        "notice": " account            "
      }
    }
  }
}