{
  "contractName": "SurveyMarket",
  "abi": [
    {
      "constant": true,
      "inputs": [],
      "name": "name",
      "outputs": [
        {
          "name": "",
          "type": "string"
        }
      ],
      "payable": false,
      "stateMutability": "view",
      "type": "function"
    },
    {
      "constant": false,
      "inputs": [
        {
          "name": "spender",
          "type": "address"
        },
        {
          "name": "value",
          "type": "uint256"
        }
      ],
      "name": "approve",
      "outputs": [
        {
          "name": "",
          "type": "bool"
        }
      ],
      "payable": false,
      "stateMutability": "nonpayable",
      "type": "function"
    },
    {
      "constant": false,
      "inputs": [],
      "name": "getSurveyRequestList",
      "outputs": [
        {
          "name": "",
          "type": "uint256[]"
        }
      ],
      "payable": false,
      "stateMutability": "nonpayable",
      "type": "function"
    },
    {
      "constant": true,
      "inputs": [],
      "name": "totalSupply",
      "outputs": [
        {
          "name": "",
          "type": "uint256"
        }
      ],
      "payable": false,
      "stateMutability": "view",
      "type": "function"
    },
    {
      "constant": true,
      "inputs": [],
      "name": "getSurveyResponseReceiptList",
      "outputs": [
        {
          "name": "",
          "type": "uint256[]"
        }
      ],
      "payable": false,
      "stateMutability": "view",
      "type": "function"
    },
    {
      "constant": false,
      "inputs": [
        {
          "name": "from",
          "type": "address"
        },
        {
          "name": "to",
          "type": "address"
        },
        {
          "name": "value",
          "type": "uint256"
        }
      ],
      "name": "transferFrom",
      "outputs": [
        {
          "name": "",
          "type": "bool"
        }
      ],
      "payable": false,
      "stateMutability": "nonpayable",
      "type": "function"
    },
    {
      "constant": false,
      "inputs": [
        {
          "name": "_maximumCount",
          "type": "uint256"
        },
        {
          "name": "_createdAt",
          "type": "uint256"
        },
        {
          "name": "_questionCount",
          "type": "uint8"
        }
      ],
      "name": "requestSurvey",
      "outputs": [
        {
          "name": "",
          "type": "bool"
        }
      ],
      "payable": false,
      "stateMutability": "nonpayable",
      "type": "function"
    },
    {
      "constant": true,
      "inputs": [],
      "name": "decimals",
      "outputs": [
        {
          "name": "",
          "type": "uint8"
        }
      ],
      "payable": false,
      "stateMutability": "view",
      "type": "function"
    },
    {
      "constant": true,
      "inputs": [],
      "name": "getFoundationDonateReceiptList",
      "outputs": [
        {
          "name": "",
          "type": "uint256[]"
        }
      ],
      "payable": false,
      "stateMutability": "view",
      "type": "function"
    },
    {
      "constant": false,
      "inputs": [
        {
          "name": "spender",
          "type": "address"
        },
        {
          "name": "addedValue",
          "type": "uint256"
        }
      ],
      "name": "increaseAllowance",
      "outputs": [
        {
          "name": "",
          "type": "bool"
        }
      ],
      "payable": false,
      "stateMutability": "nonpayable",
      "type": "function"
    },
    {
      "constant": false,
      "inputs": [],
      "name": "unpause",
      "outputs": [],
      "payable": false,
      "stateMutability": "nonpayable",
      "type": "function"
    },
    {
      "constant": true,
      "inputs": [
        {
          "name": "_receiptId",
          "type": "uint256"
        }
      ],
      "name": "getReceiptDetail",
      "outputs": [
        {
          "name": "",
          "type": "uint8"
        },
        {
          "name": "",
          "type": "uint8"
        },
        {
          "name": "",
          "type": "address"
        },
        {
          "name": "",
          "type": "address"
        },
        {
          "name": "",
          "type": "uint256"
        },
        {
          "name": "",
          "type": "uint256"
        },
        {
          "name": "",
          "type": "uint256"
        }
      ],
      "payable": false,
      "stateMutability": "view",
      "type": "function"
    },
    {
      "constant": true,
      "inputs": [],
      "name": "getProductBuyReceiptList",
      "outputs": [
        {
          "name": "",
          "type": "uint256[]"
        }
      ],
      "payable": false,
      "stateMutability": "view",
      "type": "function"
    },
    {
      "constant": true,
      "inputs": [],
      "name": "paused",
      "outputs": [
        {
          "name": "",
          "type": "bool"
        }
      ],
      "payable": false,
      "stateMutability": "view",
      "type": "function"
    },
    {
      "constant": true,
      "inputs": [
        {
          "name": "_surveyId",
          "type": "uint256"
        }
      ],
      "name": "getSurveyRequestDetail",
      "outputs": [
        {
          "name": "",
          "type": "uint256"
        },
        {
          "name": "",
          "type": "uint256"
        },
        {
          "name": "",
          "type": "uint256"
        },
        {
          "name": "",
          "type": "uint256"
        },
        {
          "name": "",
          "type": "uint256"
        },
        {
          "name": "",
          "type": "uint8"
        },
        {
          "name": "",
          "type": "bool"
        }
      ],
      "payable": false,
      "stateMutability": "view",
      "type": "function"
    },
    {
      "constant": true,
      "inputs": [
        {
          "name": "owner",
          "type": "address"
        }
      ],
      "name": "balanceOf",
      "outputs": [
        {
          "name": "",
          "type": "uint256"
        }
      ],
      "payable": false,
      "stateMutability": "view",
      "type": "function"
    },
    {
      "constant": true,
      "inputs": [],
      "name": "getSurveySellReceiptList",
      "outputs": [
        {
          "name": "",
          "type": "uint256[]"
        }
      ],
      "payable": false,
      "stateMutability": "view",
      "type": "function"
    },
    {
      "constant": false,
      "inputs": [],
      "name": "pause",
      "outputs": [],
      "payable": false,
      "stateMutability": "nonpayable",
      "type": "function"
    },
    {
      "constant": true,
      "inputs": [
        {
          "name": "owner",
          "type": "address"
        }
      ],
      "name": "consumeBalanceOf",
      "outputs": [
        {
          "name": "",
          "type": "uint256"
        }
      ],
      "payable": false,
      "stateMutability": "view",
      "type": "function"
    },
    {
      "constant": true,
      "inputs": [],
      "name": "symbol",
      "outputs": [
        {
          "name": "",
          "type": "string"
        }
      ],
      "payable": false,
      "stateMutability": "view",
      "type": "function"
    },
    {
      "constant": false,
      "inputs": [],
      "name": "getSurveyResponseList",
      "outputs": [
        {
          "name": "",
          "type": "uint256[]"
        }
      ],
      "payable": false,
      "stateMutability": "nonpayable",
      "type": "function"
    },
    {
      "constant": false,
      "inputs": [
        {
          "name": "spender",
          "type": "address"
        },
        {
          "name": "subtractedValue",
          "type": "uint256"
        }
      ],
      "name": "decreaseAllowance",
      "outputs": [
        {
          "name": "",
          "type": "bool"
        }
      ],
      "payable": false,
      "stateMutability": "nonpayable",
      "type": "function"
    },
    {
      "constant": true,
      "inputs": [],
      "name": "getProductSellReceiptList",
      "outputs": [
        {
          "name": "",
          "type": "uint256[]"
        }
      ],
      "payable": false,
      "stateMutability": "view",
      "type": "function"
    },
    {
      "constant": false,
      "inputs": [
        {
          "name": "to",
          "type": "address"
        },
        {
          "name": "value",
          "type": "uint256"
        }
      ],
      "name": "transfer",
      "outputs": [
        {
          "name": "",
          "type": "bool"
        }
      ],
      "payable": false,
      "stateMutability": "nonpayable",
      "type": "function"
    },
    {
      "constant": true,
      "inputs": [],
      "name": "getSurveyRequestReceiptList",
      "outputs": [
        {
          "name": "",
          "type": "uint256[]"
        }
      ],
      "payable": false,
      "stateMutability": "view",
      "type": "function"
    },
    {
      "constant": true,
      "inputs": [],
      "name": "getSurveyBuyReceiptList",
      "outputs": [
        {
          "name": "",
          "type": "uint256[]"
        }
      ],
      "payable": false,
      "stateMutability": "view",
      "type": "function"
    },
    {
      "constant": true,
      "inputs": [],
      "name": "developerAddress",
      "outputs": [
        {
          "name": "",
          "type": "address"
        }
      ],
      "payable": false,
      "stateMutability": "view",
      "type": "function"
    },
    {
      "constant": true,
      "inputs": [
        {
          "name": "_surveyId",
          "type": "uint256"
        },
        {
          "name": "_account",
          "type": "address"
        }
      ],
      "name": "isSurveyToBuyer",
      "outputs": [
        {
          "name": "",
          "type": "bool"
        }
      ],
      "payable": false,
      "stateMutability": "view",
      "type": "function"
    },
    {
      "constant": true,
      "inputs": [
        {
          "name": "owner",
          "type": "address"
        },
        {
          "name": "spender",
          "type": "address"
        }
      ],
      "name": "allowance",
      "outputs": [
        {
          "name": "",
          "type": "uint256"
        }
      ],
      "payable": false,
      "stateMutability": "view",
      "type": "function"
    },
    {
      "constant": true,
      "inputs": [],
      "name": "PRICE_PER_QUESTION",
      "outputs": [
        {
          "name": "",
          "type": "uint256"
        }
      ],
      "payable": false,
      "stateMutability": "view",
      "type": "function"
    },
    {
      "constant": false,
      "inputs": [
        {
          "name": "_surveyId",
          "type": "uint256"
        }
      ],
      "name": "responseSurvey",
      "outputs": [
        {
          "name": "",
          "type": "bool"
        }
      ],
      "payable": false,
      "stateMutability": "nonpayable",
      "type": "function"
    },
    {
      "constant": false,
      "inputs": [
        {
          "name": "_newDeveloperAddress",
          "type": "address"
        }
      ],
      "name": "setDeveloper",
      "outputs": [],
      "payable": false,
      "stateMutability": "nonpayable",
      "type": "function"
    },
    {
      "anonymous": false,
      "inputs": [
        {
          "indexed": true,
          "name": "from",
          "type": "address"
        },
        {
          "indexed": true,
          "name": "to",
          "type": "address"
        },
        {
          "indexed": false,
          "name": "value",
          "type": "uint256"
        }
      ],
      "name": "Transfer",
      "type": "event"
    },
    {
      "anonymous": false,
      "inputs": [
        {
          "indexed": true,
          "name": "owner",
          "type": "address"
        },
        {
          "indexed": true,
          "name": "spender",
          "type": "address"
        },
        {
          "indexed": false,
          "name": "value",
          "type": "uint256"
        }
      ],
      "name": "Approval",
      "type": "event"
    },
    {
      "anonymous": false,
      "inputs": [
        {
          "indexed": false,
          "name": "surveyId",
          "type": "uint256"
        },
        {
          "indexed": true,
          "name": "account",
          "type": "address"
        }
      ],
      "name": "BuyerAdded",
      "type": "event"
    },
    {
      "anonymous": false,
      "inputs": [
        {
          "indexed": false,
          "name": "surveyId",
          "type": "uint256"
        },
        {
          "indexed": true,
          "name": "account",
          "type": "address"
        }
      ],
      "name": "BuyerRemoved",
      "type": "event"
    },
    {
      "anonymous": false,
      "inputs": [
        {
          "indexed": false,
          "name": "surveyId",
          "type": "uint256"
        },
        {
          "indexed": false,
          "name": "owner",
          "type": "address"
        }
      ],
      "name": "CreateSurvey",
      "type": "event"
    },
    {
      "anonymous": false,
      "inputs": [
        {
          "indexed": false,
          "name": "ReceiptId",
          "type": "uint256"
        },
        {
          "indexed": false,
          "name": "owner",
          "type": "address"
        }
      ],
      "name": "CreateReceipt",
      "type": "event"
    },
    {
      "anonymous": false,
      "inputs": [
        {
          "indexed": false,
          "name": "foundationId",
          "type": "uint256"
        },
        {
          "indexed": false,
          "name": "owner",
          "type": "address"
        }
      ],
      "name": "CreateFoundation",
      "type": "event"
    },
    {
      "anonymous": false,
      "inputs": [
        {
          "indexed": false,
          "name": "productId",
          "type": "uint256"
        },
        {
          "indexed": false,
          "name": "owner",
          "type": "address"
        }
      ],
      "name": "CreateProduct",
      "type": "event"
    },
    {
      "constant": false,
      "inputs": [
        {
          "name": "_surveyId",
          "type": "uint256"
        },
        {
          "name": "_price",
          "type": "uint256"
        }
      ],
      "name": "addSurveyMarket",
      "outputs": [
        {
          "name": "",
          "type": "bool"
        }
      ],
      "payable": false,
      "stateMutability": "nonpayable",
      "type": "function"
    },
    {
      "constant": false,
      "inputs": [
        {
          "name": "_surveyId",
          "type": "uint256"
        }
      ],
      "name": "cancelSurveyMarket",
      "outputs": [
        {
          "name": "",
          "type": "bool"
        }
      ],
      "payable": false,
      "stateMutability": "nonpayable",
      "type": "function"
    },
    {
      "constant": false,
      "inputs": [
        {
          "name": "_surveyId",
          "type": "uint256"
        }
      ],
      "name": "buySurvey",
      "outputs": [
        {
          "name": "",
          "type": "bool"
        }
      ],
      "payable": false,
      "stateMutability": "nonpayable",
      "type": "function"
    },
    {
      "constant": false,
      "inputs": [],
      "name": "getSurveyMarketList",
      "outputs": [
        {
          "name": "",
          "type": "uint256[]"
        }
      ],
      "payable": false,
      "stateMutability": "nonpayable",
      "type": "function"
    },
    {
      "constant": false,
      "inputs": [],
      "name": "getSurveyBuyList",
      "outputs": [
        {
          "name": "",
          "type": "uint256[]"
        }
      ],
      "payable": false,
      "stateMutability": "nonpayable",
      "type": "function"
    }
  ],
  "bytecode": "0x608060405260008060146101000a81548160ff0219169083151502179055506040805190810160405280600781526020017f494e4f434f494e00000000000000000000000000000000000000000000000000815250601690805190602001906200006b929190620000ea565b506012601760006101000a81548160ff021916908360ff1602179055506040805190810160405280600381526020017f494e43000000000000000000000000000000000000000000000000000000000081525060189080519060200190620000d5929190620000ea565b50348015620000e357600080fd5b5062000199565b828054600181600116156101000203166002900490600052602060002090601f016020900481019282601f106200012d57805160ff19168380011785556200015e565b828001600101855582156200015e579182015b828111156200015d57825182559160200191906001019062000140565b5b5090506200016d919062000171565b5090565b6200019691905b808211156200019257600081600090555060010162000178565b5090565b90565b613e4f80620001a96000396000f3fe6080604052600436106101cd576000357c0100000000000000000000000000000000000000000000000000000000900463ffffffff16806306fdde03146101d2578063095ea7b3146102625780630c7ef926146102d557806313f082ba1461033257806318160ddd1461039e5780631f6a0d25146103c957806322929dbc1461043557806323b872dd14610488578063282f162b1461051b578063313ce56714610585578063385a44f8146105b657806339509351146106225780633f4ba83a1461069557806354128fa1146106ac57806357b2c03c146107995780635c975abb146108055780636b945e781461083457806370a08231146108b7578063834849d21461091c57806383db29e8146109885780638456cb59146109db57806387a29c28146109f257806395d89b4114610a57578063965b0dcb14610ae7578063a457c2d714610b53578063a6c16e6c14610bc6578063a9059cbb14610c32578063b84a540f14610ca5578063c7c700b714610d11578063caccd7f714610d7d578063d455419314610dd4578063dd62ed3e14610e47578063de906fed14610ecc578063ef29b4ba14610ef7578063f029ef0114610f63578063f03e818114610fcf578063ff70fa4914611022575b600080fd5b3480156101de57600080fd5b506101e7611073565b6040518080602001828103825283818151815260200191508051906020019080838360005b8381101561022757808201518184015260208101905061020c565b50505050905090810190601f1680156102545780820380516001836020036101000a031916815260200191505b509250505060405180910390f35b34801561026e57600080fd5b506102bb6004803603604081101561028557600080fd5b81019080803573ffffffffffffffffffffffffffffffffffffffff16906020019092919080359060200190929190505050611115565b604051808215151515815260200191505060405180910390f35b3480156102e157600080fd5b50610318600480360360408110156102f857600080fd5b810190808035906020019092919080359060200190929190505050611242565b604051808215151515815260200191505060405180910390f35b34801561033e57600080fd5b5061034761131a565b6040518080602001828103825283818151815260200191508051906020019060200280838360005b8381101561038a57808201518184015260208101905061036f565b505050509050019250505060405180910390f35b3480156103aa57600080fd5b506103b3611418565b6040518082815260200191505060405180910390f35b3480156103d557600080fd5b506103de611422565b6040518080602001828103825283818151815260200191508051906020019060200280838360005b83811015610421578082015181840152602081019050610406565b505050509050019250505060405180910390f35b34801561044157600080fd5b5061046e6004803603602081101561045857600080fd5b81019080803590602001909291905050506114b7565b604051808215151515815260200191505060405180910390f35b34801561049457600080fd5b50610501600480360360608110156104ab57600080fd5b81019080803573ffffffffffffffffffffffffffffffffffffffff169060200190929190803573ffffffffffffffffffffffffffffffffffffffff169060200190929190803590602001909291905050506115cf565b604051808215151515815260200191505060405180910390f35b34801561052757600080fd5b5061056b6004803603606081101561053e57600080fd5b810190808035906020019092919080359060200190929190803560ff1690602001909291905050506117d7565b604051808215151515815260200191505060405180910390f35b34801561059157600080fd5b5061059a61186c565b604051808260ff1660ff16815260200191505060405180910390f35b3480156105c257600080fd5b506105cb611883565b6040518080602001828103825283818151815260200191508051906020019060200280838360005b8381101561060e5780820151818401526020810190506105f3565b505050509050019250505060405180910390f35b34801561062e57600080fd5b5061067b6004803603604081101561064557600080fd5b81019080803573ffffffffffffffffffffffffffffffffffffffff16906020019092919080359060200190929190505050611918565b604051808215151515815260200191505060405180910390f35b3480156106a157600080fd5b506106aa611b4f565b005b3480156106b857600080fd5b506106e5600480360360208110156106cf57600080fd5b8101908080359060200190929190505050611cb3565b604051808860028111156106f557fe5b60ff16815260200187600581111561070957fe5b60ff1681526020018673ffffffffffffffffffffffffffffffffffffffff1673ffffffffffffffffffffffffffffffffffffffff1681526020018573ffffffffffffffffffffffffffffffffffffffff1673ffffffffffffffffffffffffffffffffffffffff16815260200184815260200183815260200182815260200197505050505050505060405180910390f35b3480156107a557600080fd5b506107ae611e87565b6040518080602001828103825283818151815260200191508051906020019060200280838360005b838110156107f15780820151818401526020810190506107d6565b505050509050019250505060405180910390f35b34801561081157600080fd5b5061081a611f1c565b604051808215151515815260200191505060405180910390f35b34801561084057600080fd5b5061086d6004803603602081101561085757600080fd5b8101908080359060200190929190505050611f2f565b604051808881526020018781526020018681526020018581526020018481526020018360ff1660ff1681526020018215151515815260200197505050505050505060405180910390f35b3480156108c357600080fd5b50610906600480360360208110156108da57600080fd5b81019080803573ffffffffffffffffffffffffffffffffffffffff169060200190929190505050612054565b6040518082815260200191505060405180910390f35b34801561092857600080fd5b5061093161209d565b6040518080602001828103825283818151815260200191508051906020019060200280838360005b83811015610974578082015181840152602081019050610959565b505050509050019250505060405180910390f35b34801561099457600080fd5b506109c1600480360360208110156109ab57600080fd5b8101908080359060200190929190505050612132565b604051808215151515815260200191505060405180910390f35b3480156109e757600080fd5b506109f061219b565b005b3480156109fe57600080fd5b50610a4160048036036020811015610a1557600080fd5b81019080803573ffffffffffffffffffffffffffffffffffffffff169060200190929190505050612301565b6040518082815260200191505060405180910390f35b348015610a6357600080fd5b50610a6c61234a565b6040518080602001828103825283818151815260200191508051906020019080838360005b83811015610aac578082015181840152602081019050610a91565b50505050905090810190601f168015610ad95780820380516001836020036101000a031916815260200191505b509250505060405180910390f35b348015610af357600080fd5b50610afc6123ec565b6040518080602001828103825283818151815260200191508051906020019060200280838360005b83811015610b3f578082015181840152602081019050610b24565b505050509050019250505060405180910390f35b348015610b5f57600080fd5b50610bac60048036036040811015610b7657600080fd5b81019080803573ffffffffffffffffffffffffffffffffffffffff1690602001909291908035906020019092919050505061252b565b604051808215151515815260200191505060405180910390f35b348015610bd257600080fd5b50610bdb612762565b6040518080602001828103825283818151815260200191508051906020019060200280838360005b83811015610c1e578082015181840152602081019050610c03565b505050509050019250505060405180910390f35b348015610c3e57600080fd5b50610c8b60048036036040811015610c5557600080fd5b81019080803573ffffffffffffffffffffffffffffffffffffffff169060200190929190803590602001909291905050506127f7565b604051808215151515815260200191505060405180910390f35b348015610cb157600080fd5b50610cba61280e565b6040518080602001828103825283818151815260200191508051906020019060200280838360005b83811015610cfd578082015181840152602081019050610ce2565b505050509050019250505060405180910390f35b348015610d1d57600080fd5b50610d266128a3565b6040518080602001828103825283818151815260200191508051906020019060200280838360005b83811015610d69578082015181840152602081019050610d4e565b505050509050019250505060405180910390f35b348015610d8957600080fd5b50610d92612938565b604051808273ffffffffffffffffffffffffffffffffffffffff1673ffffffffffffffffffffffffffffffffffffffff16815260200191505060405180910390f35b348015610de057600080fd5b50610e2d60048036036040811015610df757600080fd5b8101908080359060200190929190803573ffffffffffffffffffffffffffffffffffffffff16906020019092919050505061295d565b604051808215151515815260200191505060405180910390f35b348015610e5357600080fd5b50610eb660048036036040811015610e6a57600080fd5b81019080803573ffffffffffffffffffffffffffffffffffffffff169060200190929190803573ffffffffffffffffffffffffffffffffffffffff16906020019092919050505061298c565b6040518082815260200191505060405180910390f35b348015610ed857600080fd5b50610ee1612a13565b6040518082815260200191505060405180910390f35b348015610f0357600080fd5b50610f0c612a18565b6040518080602001828103825283818151815260200191508051906020019060200280838360005b83811015610f4f578082015181840152602081019050610f34565b505050509050019250505060405180910390f35b348015610f6f57600080fd5b50610f78612b16565b6040518080602001828103825283818151815260200191508051906020019060200280838360005b83811015610fbb578082015181840152602081019050610fa0565b505050509050019250505060405180910390f35b348015610fdb57600080fd5b5061100860048036036020811015610ff257600080fd5b8101908080359060200190929190505050612c08565b604051808215151515815260200191505060405180910390f35b34801561102e57600080fd5b506110716004803603602081101561104557600080fd5b81019080803573ffffffffffffffffffffffffffffffffffffffff169060200190929190505050612cd9565b005b606060168054600181600116156101000203166002900480601f01602080910402602001604051908101604052809291908181526020018280546001816001161561010002031660029004801561110b5780601f106110e05761010080835404028352916020019161110b565b820191906000526020600020905b8154815290600101906020018083116110ee57829003601f168201915b5050505050905090565b60008073ffffffffffffffffffffffffffffffffffffffff168373ffffffffffffffffffffffffffffffffffffffff161415151561115257600080fd5b81601460003373ffffffffffffffffffffffffffffffffffffffff1673ffffffffffffffffffffffffffffffffffffffff16815260200190815260200160002060008573ffffffffffffffffffffffffffffffffffffffff1673ffffffffffffffffffffffffffffffffffffffff168152602001908152602001600020819055508273ffffffffffffffffffffffffffffffffffffffff163373ffffffffffffffffffffffffffffffffffffffff167f8c5be1e5ebec7d5bd14f71427d1e84f3dd0314c0f7b2291e5b200ac8c7c3b925846040518082815260200191505060405180910390a36001905092915050565b6000823373ffffffffffffffffffffffffffffffffffffffff166005600083815260200190815260200160002060009054906101000a900473ffffffffffffffffffffffffffffffffffffffff1673ffffffffffffffffffffffffffffffffffffffff161415156112b257600080fd5b826001858154811015156112c257fe5b906000526020600020906006020160010181905550600180858154811015156112e757fe5b906000526020600020906006020160050160016101000a81548160ff021916908315150217905550600191505092915050565b606080606061132761280e565b905081601a908051906020019061133f929190613cee565b5060008090505b81518110156113bf57601a6002838381518110151561136157fe5b9060200190602002015181548110151561137757fe5b90600052602060002090600502016002015490806001815401808255809150509060018203906000526020600020016000909192909190915055508080600101915050611346565b50601a80548060200260200160405190810160405280929190818152602001828054801561140c57602002820191906000526020600020905b8154815260200190600101908083116113f8575b50505050509250505090565b6000601554905090565b6060600a60003373ffffffffffffffffffffffffffffffffffffffff1673ffffffffffffffffffffffffffffffffffffffff1681526020019081526020016000208054806020026020016040519081016040528092919081815260200182805480156114ad57602002820191906000526020600020905b815481526020019060010190808311611499575b5050505050905090565b60006114c1613d3b565b6001838154811015156114d057fe5b906000526020600020906006020160e0604051908101604052908160008201548152602001600182015481526020016002820154815260200160038201548152602001600482015481526020016005820160009054906101000a900460ff1660ff1660ff1681526020016005820160019054906101000a900460ff1615151515815250509050600081602001519050600061159e6005600087815260200190815260200160002060009054906101000a900473ffffffffffffffffffffffffffffffffffffffff16836127f7565b905080156115b9576115b7600060033033898742612e85565b505b6115c385336135f6565b60019350505050919050565b600061166082601460008773ffffffffffffffffffffffffffffffffffffffff1673ffffffffffffffffffffffffffffffffffffffff16815260200190815260200160002060003373ffffffffffffffffffffffffffffffffffffffff1673ffffffffffffffffffffffffffffffffffffffff1681526020019081526020016000205461360490919063ffffffff16565b601460008673ffffffffffffffffffffffffffffffffffffffff1673ffffffffffffffffffffffffffffffffffffffff16815260200190815260200160002060003373ffffffffffffffffffffffffffffffffffffffff1673ffffffffffffffffffffffffffffffffffffffff168152602001908152602001600020819055506116eb848484613626565b3373ffffffffffffffffffffffffffffffffffffffff168473ffffffffffffffffffffffffffffffffffffffff167f8c5be1e5ebec7d5bd14f71427d1e84f3dd0314c0f7b2291e5b200ac8c7c3b925601460008873ffffffffffffffffffffffffffffffffffffffff1673ffffffffffffffffffffffffffffffffffffffff16815260200190815260200160002060003373ffffffffffffffffffffffffffffffffffffffff1673ffffffffffffffffffffffffffffffffffffffff168152602001908152602001600020546040518082815260200191505060405180910390a3600190509392505050565b60008084600a8460ff1602029050600060506064838115156117f557fe5b0402905060008183039050600061180b846138f4565b90506118168261390a565b50801561185c5760006118318460008b60008c8c6000613941565b905061183d81336135f6565b61184d600080303385898e612e85565b50600195505050505050611865565b60009450505050505b9392505050565b6000601760009054906101000a900460ff16905090565b6060600e60003373ffffffffffffffffffffffffffffffffffffffff1673ffffffffffffffffffffffffffffffffffffffff16815260200190815260200160002080548060200260200160405190810160405280929190818152602001828054801561190e57602002820191906000526020600020905b8154815260200190600101908083116118fa575b5050505050905090565b60008073ffffffffffffffffffffffffffffffffffffffff168373ffffffffffffffffffffffffffffffffffffffff161415151561195557600080fd5b6119e482601460003373ffffffffffffffffffffffffffffffffffffffff1673ffffffffffffffffffffffffffffffffffffffff16815260200190815260200160002060008673ffffffffffffffffffffffffffffffffffffffff1673ffffffffffffffffffffffffffffffffffffffff16815260200190815260200160002054613afc90919063ffffffff16565b601460003373ffffffffffffffffffffffffffffffffffffffff1673ffffffffffffffffffffffffffffffffffffffff16815260200190815260200160002060008573ffffffffffffffffffffffffffffffffffffffff1673ffffffffffffffffffffffffffffffffffffffff168152602001908152602001600020819055508273ffffffffffffffffffffffffffffffffffffffff163373ffffffffffffffffffffffffffffffffffffffff167f8c5be1e5ebec7d5bd14f71427d1e84f3dd0314c0f7b2291e5b200ac8c7c3b925601460003373ffffffffffffffffffffffffffffffffffffffff1673ffffffffffffffffffffffffffffffffffffffff16815260200190815260200160002060008773ffffffffffffffffffffffffffffffffffffffff1673ffffffffffffffffffffffffffffffffffffffff168152602001908152602001600020546040518082815260200191505060405180910390a36001905092915050565b6000809054906101000a900473ffffffffffffffffffffffffffffffffffffffff1673ffffffffffffffffffffffffffffffffffffffff163373ffffffffffffffffffffffffffffffffffffffff16141515611c13576040517f08c379a00000000000000000000000000000000000000000000000000000000081526004018080602001828103825260098152602001807f4e6f74204f776e6572000000000000000000000000000000000000000000000081525060200191505060405180910390fd5b600060149054906101000a900460ff161515611c97576040517f08c379a000000000000000000000000000000000000000000000000000000000815260040180806020018281038252600b8152602001807f6e6f74207061757365642e00000000000000000000000000000000000000000081525060200191505060405180910390fd5b60008060146101000a81548160ff021916908315150217905550565b6000806000806000806000873373ffffffffffffffffffffffffffffffffffffffff166006600083815260200190815260200160002060009054906101000a900473ffffffffffffffffffffffffffffffffffffffff1673ffffffffffffffffffffffffffffffffffffffff16141515611d2c57600080fd5b600289815481101515611d3b57fe5b906000526020600020906005020160000160009054906101000a900460ff1660028a815481101515611d6957fe5b906000526020600020906005020160000160019054906101000a900460ff1660028b815481101515611d9757fe5b906000526020600020906005020160000160029054906101000a900473ffffffffffffffffffffffffffffffffffffffff1660028c815481101515611dd857fe5b906000526020600020906005020160010160009054906101000a900473ffffffffffffffffffffffffffffffffffffffff1660028d815481101515611e1957fe5b90600052602060002090600502016002015460028e815481101515611e3a57fe5b90600052602060002090600502016003015460028f815481101515611e5b57fe5b906000526020600020906005020160040154975097509750975097509750975050919395979092949650565b6060600f60003373ffffffffffffffffffffffffffffffffffffffff1673ffffffffffffffffffffffffffffffffffffffff168152602001908152602001600020805480602002602001604051908101604052809291908181526020018280548015611f1257602002820191906000526020600020905b815481526020019060010190808311611efe575b5050505050905090565b600060149054906101000a900460ff1681565b6000806000806000806000600188815481101515611f4957fe5b906000526020600020906006020160000154600189815481101515611f6a57fe5b90600052602060002090600602016001015460018a815481101515611f8b57fe5b90600052602060002090600602016002015460018b815481101515611fac57fe5b90600052602060002090600602016003015460018c815481101515611fcd57fe5b90600052602060002090600602016004015460018d815481101515611fee57fe5b906000526020600020906006020160050160009054906101000a900460ff1660018e81548110151561201c57fe5b906000526020600020906006020160050160019054906101000a900460ff169650965096509650965096509650919395979092949650565b6000601360008373ffffffffffffffffffffffffffffffffffffffff1673ffffffffffffffffffffffffffffffffffffffff168152602001908152602001600020549050919050565b6060600c60003373ffffffffffffffffffffffffffffffffffffffff1673ffffffffffffffffffffffffffffffffffffffff16815260200190815260200160002080548060200260200160405190810160405280929190818152602001828054801561212857602002820191906000526020600020905b815481526020019060010190808311612114575b5050505050905090565b60008060018381548110151561214457fe5b906000526020600020906006020160010181905550600060018381548110151561216a57fe5b906000526020600020906006020160050160016101000a81548160ff02191690831515021790555060019050919050565b6000809054906101000a900473ffffffffffffffffffffffffffffffffffffffff1673ffffffffffffffffffffffffffffffffffffffff163373ffffffffffffffffffffffffffffffffffffffff1614151561225f576040517f08c379a00000000000000000000000000000000000000000000000000000000081526004018080602001828103825260098152602001807f4e6f74204f776e6572000000000000000000000000000000000000000000000081525060200191505060405180910390fd5b600060149054906101000a900460ff161515156122e4576040517f08c379a000000000000000000000000000000000000000000000000000000000815260040180806020018281038252600f8152602001807f616c7265616479207061757365642e000000000000000000000000000000000081525060200191505060405180910390fd5b6001600060146101000a81548160ff021916908315150217905550565b6000601260008373ffffffffffffffffffffffffffffffffffffffff1673ffffffffffffffffffffffffffffffffffffffff168152602001908152602001600020549050919050565b606060188054600181600116156101000203166002900480601f0160208091040260200160405190810160405280929190818152602001828054600181600116156101000203166002900480156123e25780601f106123b7576101008083540402835291602001916123e2565b820191906000526020600020905b8154815290600101906020018083116123c557829003601f168201915b5050505050905090565b60608060606123f9611422565b905081601a9080519060200190612411929190613cee565b5060008090505b600a60003373ffffffffffffffffffffffffffffffffffffffff1673ffffffffffffffffffffffffffffffffffffffff168152602001908152602001600020805490508110156124d257601a6002838381518110151561247457fe5b9060200190602002015181548110151561248a57fe5b90600052602060002090600502016002015490806001815401808255809150509060018203906000526020600020016000909192909190915055508080600101915050612418565b50601a80548060200260200160405190810160405280929190818152602001828054801561251f57602002820191906000526020600020905b81548152602001906001019080831161250b575b50505050509250505090565b60008073ffffffffffffffffffffffffffffffffffffffff168373ffffffffffffffffffffffffffffffffffffffff161415151561256857600080fd5b6125f782601460003373ffffffffffffffffffffffffffffffffffffffff1673ffffffffffffffffffffffffffffffffffffffff16815260200190815260200160002060008673ffffffffffffffffffffffffffffffffffffffff1673ffffffffffffffffffffffffffffffffffffffff1681526020019081526020016000205461360490919063ffffffff16565b601460003373ffffffffffffffffffffffffffffffffffffffff1673ffffffffffffffffffffffffffffffffffffffff16815260200190815260200160002060008573ffffffffffffffffffffffffffffffffffffffff1673ffffffffffffffffffffffffffffffffffffffff168152602001908152602001600020819055508273ffffffffffffffffffffffffffffffffffffffff163373ffffffffffffffffffffffffffffffffffffffff167f8c5be1e5ebec7d5bd14f71427d1e84f3dd0314c0f7b2291e5b200ac8c7c3b925601460003373ffffffffffffffffffffffffffffffffffffffff1673ffffffffffffffffffffffffffffffffffffffff16815260200190815260200160002060008773ffffffffffffffffffffffffffffffffffffffff1673ffffffffffffffffffffffffffffffffffffffff168152602001908152602001600020546040518082815260200191505060405180910390a36001905092915050565b6060601060003373ffffffffffffffffffffffffffffffffffffffff1673ffffffffffffffffffffffffffffffffffffffff1681526020019081526020016000208054806020026020016040519081016040528092919081815260200182805480156127ed57602002820191906000526020600020905b8154815260200190600101908083116127d9575b5050505050905090565b6000612804338484613626565b6001905092915050565b6060600960003373ffffffffffffffffffffffffffffffffffffffff1673ffffffffffffffffffffffffffffffffffffffff16815260200190815260200160002080548060200260200160405190810160405280929190818152602001828054801561289957602002820191906000526020600020905b815481526020019060010190808311612885575b5050505050905090565b6060600b60003373ffffffffffffffffffffffffffffffffffffffff1673ffffffffffffffffffffffffffffffffffffffff16815260200190815260200160002080548060200260200160405190810160405280929190818152602001828054801561292e57602002820191906000526020600020905b81548152602001906001019080831161291a575b5050505050905090565b6000809054906101000a900473ffffffffffffffffffffffffffffffffffffffff1681565b60006129848260116000868152602001908152602001600020613b1d90919063ffffffff16565b905092915050565b6000601460008473ffffffffffffffffffffffffffffffffffffffff1673ffffffffffffffffffffffffffffffffffffffff16815260200190815260200160002060008373ffffffffffffffffffffffffffffffffffffffff1673ffffffffffffffffffffffffffffffffffffffff16815260200190815260200160002054905092915050565b600a81565b6060806060612a256128a3565b905081601b9080519060200190612a3d929190613cee565b5060008090505b8151811015612abd57601b60028383815181101515612a5f57fe5b90602001906020020151815481101515612a7557fe5b90600052602060002090600502016002015490806001815401808255809150509060018203906000526020600020016000909192909190915055508080600101915050612a44565b50601b805480602002602001604051908101604052809291908181526020018280548015612b0a57602002820191906000526020600020905b815481526020019060010190808311612af6575b50505050509250505090565b60608080601b9080519060200190612b2f929190613cee565b5060008090505b600180549050811015612bb057600181815481101515612b5257fe5b906000526020600020906006020160050160019054906101000a900460ff1615612ba357601b8190806001815401808255809150509060018203906000526020600020016000909192909190915055505b8080600101915050612b36565b50601b805480602002602001604051908101604052809291908181526020018280548015612bfd57602002820191906000526020600020905b815481526020019060010190808311612be9575b505050505091505090565b60008060646050600185815481101515612c1e57fe5b906000526020600020906006020160020154600186815481101515612c3f57fe5b906000526020600020906006020160000154811515612c5a57fe5b0402811515612c6557fe5b0490506000612c7382613bb1565b90508015612cc257600184815481101515612c8a57fe5b906000526020600020906006020160030160008154809291906001019190505550612cbc600060013330888742612e85565b50612ccd565b600092505050612cd4565b6001925050505b919050565b6000809054906101000a900473ffffffffffffffffffffffffffffffffffffffff1673ffffffffffffffffffffffffffffffffffffffff163373ffffffffffffffffffffffffffffffffffffffff16141515612d9d576040517f08c379a00000000000000000000000000000000000000000000000000000000081526004018080602001828103825260098152602001807f4e6f74204f776e6572000000000000000000000000000000000000000000000081525060200191505060405180910390fd5b600073ffffffffffffffffffffffffffffffffffffffff168173ffffffffffffffffffffffffffffffffffffffff1614151515612e42576040517f08c379a00000000000000000000000000000000000000000000000000000000081526004018080602001828103825260078152602001807f5761726e696e670000000000000000000000000000000000000000000000000081525060200191505060405180910390fd5b806000806101000a81548173ffffffffffffffffffffffffffffffffffffffff021916908373ffffffffffffffffffffffffffffffffffffffff16021790555050565b6000612e8f613d7e565b60e0604051908101604052808a6002811115612ea757fe5b8152602001896005811115612eb857fe5b81526020018873ffffffffffffffffffffffffffffffffffffffff1681526020018773ffffffffffffffffffffffffffffffffffffffff168152602001868152602001858152602001848152509050600060016002839080600181540180825580915050906001820390600052602060002090600502016000909192909190915060008201518160000160006101000a81548160ff02191690836002811115612f5d57fe5b021790555060208201518160000160016101000a81548160ff02191690836005811115612f8657fe5b021790555060408201518160000160026101000a81548173ffffffffffffffffffffffffffffffffffffffff021916908373ffffffffffffffffffffffffffffffffffffffff16021790555060608201518160010160006101000a81548173ffffffffffffffffffffffffffffffffffffffff021916908373ffffffffffffffffffffffffffffffffffffffff1602179055506080820151816002015560a0820151816003015560c082015181600401555050039050336006600083815260200190815260200160002060006101000a81548173ffffffffffffffffffffffffffffffffffffffff021916908373ffffffffffffffffffffffffffffffffffffffff1602179055506000600281111561309b57fe5b8a60028111156130a757fe5b141561337b57600060058111156130ba57fe5b8960058111156130c657fe5b141561313a57600960003373ffffffffffffffffffffffffffffffffffffffff1673ffffffffffffffffffffffffffffffffffffffff168152602001908152602001600020819080600181540180825580915050906001820390600052602060002001600090919290919091505550613376565b6001600581111561314757fe5b89600581111561315357fe5b14156131c757600a60003373ffffffffffffffffffffffffffffffffffffffff1673ffffffffffffffffffffffffffffffffffffffff168152602001908152602001600020819080600181540180825580915050906001820390600052602060002001600090919290919091505550613375565b600360058111156131d457fe5b8960058111156131e057fe5b141561325457600b60003373ffffffffffffffffffffffffffffffffffffffff1673ffffffffffffffffffffffffffffffffffffffff168152602001908152602001600020819080600181540180825580915050906001820390600052602060002001600090919290919091505550613374565b6004600581111561326157fe5b89600581111561326d57fe5b14156132e157600c60003373ffffffffffffffffffffffffffffffffffffffff1673ffffffffffffffffffffffffffffffffffffffff168152602001908152602001600020819080600181540180825580915050906001820390600052602060002001600090919290919091505550613373565b6005808111156132ed57fe5b8960058111156132f957fe5b141561336d57600d60003373ffffffffffffffffffffffffffffffffffffffff1673ffffffffffffffffffffffffffffffffffffffff168152602001908152602001600020819080600181540180825580915050906001820390600052602060002001600090919290919091505550613372565b600080fd5b5b5b5b5b61357b565b6001600281111561338857fe5b8a600281111561339457fe5b141561343157600260058111156133a757fe5b8960058111156133b357fe5b141561342757600e60003373ffffffffffffffffffffffffffffffffffffffff1673ffffffffffffffffffffffffffffffffffffffff16815260200190815260200160002081908060018154018082558091505090600182039060005260206000200160009091929091909150555061342c565b600080fd5b61357a565b60028081111561343d57fe5b8a600281111561344957fe5b1415613574576003600581111561345c57fe5b89600581111561346857fe5b14156134dc57600f60003373ffffffffffffffffffffffffffffffffffffffff1673ffffffffffffffffffffffffffffffffffffffff16815260200190815260200160002081908060018154018082558091505090600182039060005260206000200160009091929091909150555061356f565b600460058111156134e957fe5b8960058111156134f557fe5b141561356957601060003373ffffffffffffffffffffffffffffffffffffffff1673ffffffffffffffffffffffffffffffffffffffff16815260200190815260200160002081908060018154018082558091505090600182039060005260206000200160009091929091909150555061356e565b600080fd5b5b613579565b600080fd5b5b5b7f648ea8614c7f2c919bde3b01694291faae3d403522f45d971755f2ac0e2faa598133604051808381526020018273ffffffffffffffffffffffffffffffffffffffff1673ffffffffffffffffffffffffffffffffffffffff1681526020019250505060405180910390a18092505050979650505050505050565b6136008282613bc7565b5050565b600082821115151561361557600080fd5b600082840390508091505092915050565b600073ffffffffffffffffffffffffffffffffffffffff168273ffffffffffffffffffffffffffffffffffffffff16141515156136cb576040517f08c379a000000000000000000000000000000000000000000000000000000000815260040180806020018281038252600f8152602001807f6275726e2061646472657373212121000000000000000000000000000000000081525060200191505060405180910390fd5b61371d81601360008673ffffffffffffffffffffffffffffffffffffffff1673ffffffffffffffffffffffffffffffffffffffff1681526020019081526020016000205461360490919063ffffffff16565b601360008573ffffffffffffffffffffffffffffffffffffffff1673ffffffffffffffffffffffffffffffffffffffff168152602001908152602001600020819055506137b281601360008573ffffffffffffffffffffffffffffffffffffffff1673ffffffffffffffffffffffffffffffffffffffff16815260200190815260200160002054613afc90919063ffffffff16565b601360008473ffffffffffffffffffffffffffffffffffffffff1673ffffffffffffffffffffffffffffffffffffffff1681526020019081526020016000208190555061384781601260008673ffffffffffffffffffffffffffffffffffffffff1673ffffffffffffffffffffffffffffffffffffffff16815260200190815260200160002054613afc90919063ffffffff16565b601260008573ffffffffffffffffffffffffffffffffffffffff1673ffffffffffffffffffffffffffffffffffffffff168152602001908152602001600020819055508173ffffffffffffffffffffffffffffffffffffffff168373ffffffffffffffffffffffffffffffffffffffff167fddf252ad1be2c89b69c2b068fc378daa952ba7f163c4a11628f55a4df523b3ef836040518082815260200191505060405180910390a3505050565b6000613901333084613626565b60019050919050565b6000613938306000809054906101000a900473ffffffffffffffffffffffffffffffffffffffff1684613626565b60019050919050565b600061394b613d3b565b60e0604051908101604052808a81526020018981526020018881526020018781526020018681526020018560ff168152602001841515815250905060006001808390806001815401808255809150509060018203906000526020600020906006020160009091929091909150600082015181600001556020820151816001015560408201518160020155606082015181600301556080820151816004015560a08201518160050160006101000a81548160ff021916908360ff16021790555060c08201518160050160016101000a81548160ff0219169083151502179055505050039050336005600083815260200190815260200160002060006101000a81548173ffffffffffffffffffffffffffffffffffffffff021916908373ffffffffffffffffffffffffffffffffffffffff1602179055507fecc279af01ecc1616810552807a41a6dcbad8eb3a91a33626b2d35c9dfd5c2d58133604051808381526020018273ffffffffffffffffffffffffffffffffffffffff1673ffffffffffffffffffffffffffffffffffffffff1681526020019250505060405180910390a18092505050979650505050505050565b6000808284019050838110151515613b1357600080fd5b8091505092915050565b60008073ffffffffffffffffffffffffffffffffffffffff168273ffffffffffffffffffffffffffffffffffffffff1614151515613b5a57600080fd5b8260000160008373ffffffffffffffffffffffffffffffffffffffff1673ffffffffffffffffffffffffffffffffffffffff16815260200190815260200160002060009054906101000a900460ff16905092915050565b6000613bbe303384613626565b60019050919050565b613bec8160116000858152602001908152602001600020613c3e90919063ffffffff16565b8073ffffffffffffffffffffffffffffffffffffffff167fd28f937e71e8a89ddbefb8937335b2ae03fb74ce63dd6a6f316724c5a7e6c3dc836040518082815260200191505060405180910390a25050565b600073ffffffffffffffffffffffffffffffffffffffff168173ffffffffffffffffffffffffffffffffffffffff1614151515613c7a57600080fd5b613c848282613b1d565b151515613c9057600080fd5b60018260000160008373ffffffffffffffffffffffffffffffffffffffff1673ffffffffffffffffffffffffffffffffffffffff16815260200190815260200160002060006101000a81548160ff0219169083151502179055505050565b828054828255906000526020600020908101928215613d2a579160200282015b82811115613d29578251825591602001919060010190613d0e565b5b509050613d379190613dfe565b5090565b60e0604051908101604052806000815260200160008152602001600081526020016000815260200160008152602001600060ff1681526020016000151581525090565b60e06040519081016040528060006002811115613d9757fe5b815260200160006005811115613da957fe5b8152602001600073ffffffffffffffffffffffffffffffffffffffff168152602001600073ffffffffffffffffffffffffffffffffffffffff1681526020016000815260200160008152602001600081525090565b613e2091905b80821115613e1c576000816000905550600101613e04565b5090565b9056fea165627a7a72305820f7567bed4c8acad63b43ec82ce8f9ffc61849fd5660595cb6a30cffea7815d240029",
  "source": "pragma solidity ^0.5.0;\r\n\r\nimport \"./SurveyResponse.sol\";\r\n\r\ncontract SurveyMarket is SurveyResponse {\r\n    uint256[] tempList;\r\n\r\n    //   \r\n    function addSurveyMarket(uint256 _surveyId, uint256 _price) \r\n        public \r\n        onlySurveyOwner(_surveyId) \r\n        returns (bool) \r\n    {\r\n        surveys[_surveyId].sellPrice = _price;\r\n        surveys[_surveyId].isSell = true;\r\n        return true;\r\n    }\r\n\r\n    //    \r\n    function cancelSurveyMarket(uint256 _surveyId) public returns (bool) {\r\n        surveys[_surveyId].sellPrice = 0;\r\n        surveys[_surveyId].isSell = false;\r\n        return true; \r\n    }\r\n\r\n    //  \r\n    function buySurvey(uint256 _surveyId) public returns (bool) {\r\n        Survey memory targetSurvey = surveys[_surveyId];\r\n        uint256 price = targetSurvey.sellPrice;\r\n        //   \r\n        bool buyIsSuccessed = transfer(surveyIndexToOwner[_surveyId], price);\r\n        \r\n        if(buyIsSuccessed) {\r\n            _createReceipt(\r\n                ReceiptTitles.Survey, \r\n                ReceiptMethods.Buy, \r\n                address(this), \r\n                msg.sender, \r\n                _surveyId, \r\n                price, \r\n                now\r\n            );\r\n        }\r\n        //  \r\n        addSubscriber(_surveyId, msg.sender);\r\n        //  \r\n\r\n        return true;\r\n    }\r\n\r\n    //   \r\n    function getSurveyMarketList() public returns (uint256[] memory) {\r\n        uint256[] memory resultList;\r\n        tempList = resultList;\r\n\r\n        for(uint i = 0 ; i < surveys.length ; i++) {\r\n            if(surveys[i].isSell) {\r\n                tempList.push(i);\r\n            }\r\n        }\r\n        return tempList;\r\n    }\r\n\r\n    //   \r\n    function getSurveyBuyList() public returns (uint256[] memory) {\r\n        uint256[] memory resultList;\r\n        uint256[] memory receiptIndexList = getSurveyBuyReceiptList();\r\n        tempList = resultList;\r\n        for(uint i = 0 ; i < receiptIndexList.length ; i++) {\r\n            tempList.push(receipts[receiptIndexList[i]].objectId);\r\n        }\r\n        return tempList;\r\n    }\r\n}",
  "sourcePath": "/mnt/c/workspace/inosurvey-ethereum/contracts/SurveyMarket.sol",
  "compiler": {
    "name": "solc",
    "version": "0.5.0+commit.1d4f565a.Emscripten.clang"
  },
  "schemaVersion": "3.0.2",
  "updatedAt": "2019-04-12T02:23:25.646Z",
  "devdoc": {
    "methods": {
      "getFoundationDonateReceiptList()": {
        "details": "    Index List  "
      },
      "getProductBuyReceiptList()": {
        "details": "     Index List  "
      },
      "getProductSellReceiptList()": {
        "details": "    Index List  "
      },
      "getReceiptDetail(uint256)": {
        "details": "Index    \r",
        "params": {
          "_receiptId": " IndexId\r"
        },
        "return": "ReceiptTitle uint256 enum  . , \rReceiptMethod uint256 enum  , ,  ..\rto address \rfrom address \robjectId uint256  ?\rtotal uint256  \rdate uint256  \r"
      },
      "getSurveyBuyReceiptList()": {
        "details": "    Index List  "
      },
      "getSurveyRequestDetail(uint256)": {
        "details": "    \r",
        "params": {
          "_surveyId": " Sotrage    \r"
        },
        "return": "A uint256    DB primary key  \r"
      },
      "getSurveyRequestList()": {
        "details": "    \r",
        "return": "A uint256[]    DB primary key  \r"
      },
      "getSurveyRequestReceiptList()": {
        "details": "    Index List  "
      },
      "getSurveyResponseReceiptList()": {
        "details": "    Index List  "
      },
      "getSurveySellReceiptList()": {
        "details": "    Index List  "
      },
      "requestSurvey(uint256,uint256,uint8)": {
        "details": "create Survey(public)\r _CreateProduct() \r          \r    \r   false  \r",
        "params": {
          "_createdAt": "  .\r",
          "_maximumCount": "     .\r",
          "_questionCount": "  .\r"
        },
        "return": "A bool    \r"
      }
    }
  },
  "userdoc": {
    "methods": {
      "allowance(address,address)": {
        "notice": "        "
      },
      "approve(address,uint256)": {
        "notice": "            "
      },
      "balanceOf(address)": {
        "notice": "  "
      },
      "consumeBalanceOf(address)": {
        "notice": "  "
      },
      "decreaseAllowance(address,uint256)": {
        "notice": "     "
      },
      "increaseAllowance(address,uint256)": {
        "notice": "     "
      },
      "isSurveyToBuyer(uint256,address)": {
        "notice": "*  SURVEY ROLE **"
      },
      "totalSupply()": {
        "notice": "  "
      },
      "transfer(address,uint256)": {
        "notice": "     "
      },
      "transferFrom(address,address,uint256)": {
        "notice": " account            "
      }
    }
  }
}