{
  "contractName": "SurveyCore",
  "abi": [
    {
      "constant": true,
      "inputs": [],
      "name": "name",
      "outputs": [
        {
          "name": "",
          "type": "string"
        }
      ],
      "payable": false,
      "stateMutability": "view",
      "type": "function"
    },
    {
      "constant": false,
      "inputs": [
        {
          "name": "spender",
          "type": "address"
        },
        {
          "name": "value",
          "type": "uint256"
        }
      ],
      "name": "approve",
      "outputs": [
        {
          "name": "",
          "type": "bool"
        }
      ],
      "payable": false,
      "stateMutability": "nonpayable",
      "type": "function"
    },
    {
      "constant": false,
      "inputs": [
        {
          "name": "_surveyId",
          "type": "uint256"
        },
        {
          "name": "_price",
          "type": "uint256"
        }
      ],
      "name": "addSurveyMarket",
      "outputs": [
        {
          "name": "",
          "type": "bool"
        }
      ],
      "payable": false,
      "stateMutability": "nonpayable",
      "type": "function"
    },
    {
      "constant": false,
      "inputs": [
        {
          "name": "_maximumAmount",
          "type": "uint256"
        },
        {
          "name": "_closedAt",
          "type": "uint256"
        }
      ],
      "name": "createFoundation",
      "outputs": [
        {
          "name": "",
          "type": "uint256"
        }
      ],
      "payable": false,
      "stateMutability": "nonpayable",
      "type": "function"
    },
    {
      "constant": true,
      "inputs": [
        {
          "name": "_foundationId",
          "type": "uint256"
        }
      ],
      "name": "getFoundationDetail",
      "outputs": [
        {
          "name": "",
          "type": "uint256"
        },
        {
          "name": "",
          "type": "uint256"
        },
        {
          "name": "",
          "type": "uint256"
        },
        {
          "name": "",
          "type": "uint256"
        },
        {
          "name": "",
          "type": "bool"
        }
      ],
      "payable": false,
      "stateMutability": "view",
      "type": "function"
    },
    {
      "constant": false,
      "inputs": [],
      "name": "getSurveyRequestList",
      "outputs": [
        {
          "name": "",
          "type": "uint256[]"
        }
      ],
      "payable": false,
      "stateMutability": "nonpayable",
      "type": "function"
    },
    {
      "constant": true,
      "inputs": [],
      "name": "totalSupply",
      "outputs": [
        {
          "name": "",
          "type": "uint256"
        }
      ],
      "payable": false,
      "stateMutability": "view",
      "type": "function"
    },
    {
      "constant": true,
      "inputs": [],
      "name": "getSurveyResponseReceiptList",
      "outputs": [
        {
          "name": "",
          "type": "uint256[]"
        }
      ],
      "payable": false,
      "stateMutability": "view",
      "type": "function"
    },
    {
      "constant": false,
      "inputs": [
        {
          "name": "_surveyId",
          "type": "uint256"
        }
      ],
      "name": "buySurvey",
      "outputs": [
        {
          "name": "",
          "type": "uint256"
        }
      ],
      "payable": false,
      "stateMutability": "nonpayable",
      "type": "function"
    },
    {
      "constant": false,
      "inputs": [
        {
          "name": "from",
          "type": "address"
        },
        {
          "name": "to",
          "type": "address"
        },
        {
          "name": "value",
          "type": "uint256"
        }
      ],
      "name": "transferFrom",
      "outputs": [
        {
          "name": "",
          "type": "bool"
        }
      ],
      "payable": false,
      "stateMutability": "nonpayable",
      "type": "function"
    },
    {
      "constant": false,
      "inputs": [
        {
          "name": "_maximumCount",
          "type": "uint256"
        },
        {
          "name": "_startedAt",
          "type": "uint256"
        },
        {
          "name": "_questionCount",
          "type": "uint8"
        }
      ],
      "name": "requestSurvey",
      "outputs": [
        {
          "name": "",
          "type": "uint256"
        }
      ],
      "payable": false,
      "stateMutability": "nonpayable",
      "type": "function"
    },
    {
      "constant": true,
      "inputs": [],
      "name": "decimals",
      "outputs": [
        {
          "name": "",
          "type": "uint8"
        }
      ],
      "payable": false,
      "stateMutability": "view",
      "type": "function"
    },
    {
      "constant": false,
      "inputs": [
        {
          "name": "_foundationId",
          "type": "uint256"
        },
        {
          "name": "_value",
          "type": "uint256"
        }
      ],
      "name": "donation",
      "outputs": [
        {
          "name": "",
          "type": "uint256"
        }
      ],
      "payable": false,
      "stateMutability": "nonpayable",
      "type": "function"
    },
    {
      "constant": true,
      "inputs": [],
      "name": "getFoundationDonateReceiptList",
      "outputs": [
        {
          "name": "",
          "type": "uint256[]"
        }
      ],
      "payable": false,
      "stateMutability": "view",
      "type": "function"
    },
    {
      "constant": false,
      "inputs": [
        {
          "name": "spender",
          "type": "address"
        },
        {
          "name": "addedValue",
          "type": "uint256"
        }
      ],
      "name": "increaseAllowance",
      "outputs": [
        {
          "name": "",
          "type": "bool"
        }
      ],
      "payable": false,
      "stateMutability": "nonpayable",
      "type": "function"
    },
    {
      "constant": false,
      "inputs": [],
      "name": "unpause",
      "outputs": [],
      "payable": false,
      "stateMutability": "nonpayable",
      "type": "function"
    },
    {
      "constant": true,
      "inputs": [
        {
          "name": "_receiptId",
          "type": "uint256"
        }
      ],
      "name": "getReceiptDetail",
      "outputs": [
        {
          "name": "",
          "type": "uint8"
        },
        {
          "name": "",
          "type": "uint8"
        },
        {
          "name": "",
          "type": "address"
        },
        {
          "name": "",
          "type": "address"
        },
        {
          "name": "",
          "type": "uint256"
        },
        {
          "name": "",
          "type": "uint256"
        },
        {
          "name": "",
          "type": "uint256"
        }
      ],
      "payable": false,
      "stateMutability": "view",
      "type": "function"
    },
    {
      "constant": true,
      "inputs": [],
      "name": "getProductBuyReceiptList",
      "outputs": [
        {
          "name": "",
          "type": "uint256[]"
        }
      ],
      "payable": false,
      "stateMutability": "view",
      "type": "function"
    },
    {
      "constant": true,
      "inputs": [],
      "name": "paused",
      "outputs": [
        {
          "name": "",
          "type": "bool"
        }
      ],
      "payable": false,
      "stateMutability": "view",
      "type": "function"
    },
    {
      "constant": true,
      "inputs": [
        {
          "name": "_surveyId",
          "type": "uint256"
        }
      ],
      "name": "getSurveyRequestDetail",
      "outputs": [
        {
          "name": "",
          "type": "uint256"
        },
        {
          "name": "",
          "type": "uint256"
        },
        {
          "name": "",
          "type": "uint256"
        },
        {
          "name": "",
          "type": "uint256"
        },
        {
          "name": "",
          "type": "uint256"
        },
        {
          "name": "",
          "type": "uint256"
        },
        {
          "name": "",
          "type": "uint8"
        },
        {
          "name": "",
          "type": "bool"
        }
      ],
      "payable": false,
      "stateMutability": "view",
      "type": "function"
    },
    {
      "constant": true,
      "inputs": [],
      "name": "getOwnerReceiptList",
      "outputs": [
        {
          "name": "",
          "type": "uint256[]"
        }
      ],
      "payable": false,
      "stateMutability": "view",
      "type": "function"
    },
    {
      "constant": true,
      "inputs": [
        {
          "name": "owner",
          "type": "address"
        }
      ],
      "name": "balanceOf",
      "outputs": [
        {
          "name": "",
          "type": "uint256"
        }
      ],
      "payable": false,
      "stateMutability": "view",
      "type": "function"
    },
    {
      "constant": true,
      "inputs": [],
      "name": "getFoundationRequestReceiptList",
      "outputs": [
        {
          "name": "",
          "type": "uint256[]"
        }
      ],
      "payable": false,
      "stateMutability": "view",
      "type": "function"
    },
    {
      "constant": false,
      "inputs": [
        {
          "name": "to",
          "type": "address"
        },
        {
          "name": "value",
          "type": "uint256"
        }
      ],
      "name": "faucet",
      "outputs": [
        {
          "name": "",
          "type": "bool"
        }
      ],
      "payable": false,
      "stateMutability": "nonpayable",
      "type": "function"
    },
    {
      "constant": true,
      "inputs": [],
      "name": "getSurveySellReceiptList",
      "outputs": [
        {
          "name": "",
          "type": "uint256[]"
        }
      ],
      "payable": false,
      "stateMutability": "view",
      "type": "function"
    },
    {
      "constant": false,
      "inputs": [
        {
          "name": "_surveyId",
          "type": "uint256"
        }
      ],
      "name": "cancelSurveyMarket",
      "outputs": [
        {
          "name": "",
          "type": "bool"
        }
      ],
      "payable": false,
      "stateMutability": "nonpayable",
      "type": "function"
    },
    {
      "constant": false,
      "inputs": [],
      "name": "pause",
      "outputs": [],
      "payable": false,
      "stateMutability": "nonpayable",
      "type": "function"
    },
    {
      "constant": true,
      "inputs": [
        {
          "name": "owner",
          "type": "address"
        }
      ],
      "name": "consumeBalanceOf",
      "outputs": [
        {
          "name": "",
          "type": "uint256"
        }
      ],
      "payable": false,
      "stateMutability": "view",
      "type": "function"
    },
    {
      "constant": true,
      "inputs": [],
      "name": "symbol",
      "outputs": [
        {
          "name": "",
          "type": "string"
        }
      ],
      "payable": false,
      "stateMutability": "view",
      "type": "function"
    },
    {
      "constant": false,
      "inputs": [],
      "name": "getSurveyResponseList",
      "outputs": [
        {
          "name": "",
          "type": "uint256[]"
        }
      ],
      "payable": false,
      "stateMutability": "nonpayable",
      "type": "function"
    },
    {
      "constant": true,
      "inputs": [
        {
          "name": "_surveyId",
          "type": "uint256"
        }
      ],
      "name": "isBuyableSurvey",
      "outputs": [
        {
          "name": "",
          "type": "bool"
        }
      ],
      "payable": false,
      "stateMutability": "view",
      "type": "function"
    },
    {
      "constant": false,
      "inputs": [
        {
          "name": "spender",
          "type": "address"
        },
        {
          "name": "subtractedValue",
          "type": "uint256"
        }
      ],
      "name": "decreaseAllowance",
      "outputs": [
        {
          "name": "",
          "type": "bool"
        }
      ],
      "payable": false,
      "stateMutability": "nonpayable",
      "type": "function"
    },
    {
      "constant": true,
      "inputs": [],
      "name": "getProductSellReceiptList",
      "outputs": [
        {
          "name": "",
          "type": "uint256[]"
        }
      ],
      "payable": false,
      "stateMutability": "view",
      "type": "function"
    },
    {
      "constant": false,
      "inputs": [
        {
          "name": "to",
          "type": "address"
        },
        {
          "name": "value",
          "type": "uint256"
        }
      ],
      "name": "transfer",
      "outputs": [
        {
          "name": "",
          "type": "bool"
        }
      ],
      "payable": false,
      "stateMutability": "nonpayable",
      "type": "function"
    },
    {
      "constant": true,
      "inputs": [],
      "name": "getSurveyRequestReceiptList",
      "outputs": [
        {
          "name": "",
          "type": "uint256[]"
        }
      ],
      "payable": false,
      "stateMutability": "view",
      "type": "function"
    },
    {
      "constant": true,
      "inputs": [],
      "name": "getSurveyBuyReceiptList",
      "outputs": [
        {
          "name": "",
          "type": "uint256[]"
        }
      ],
      "payable": false,
      "stateMutability": "view",
      "type": "function"
    },
    {
      "constant": true,
      "inputs": [],
      "name": "developerAddress",
      "outputs": [
        {
          "name": "",
          "type": "address"
        }
      ],
      "payable": false,
      "stateMutability": "view",
      "type": "function"
    },
    {
      "constant": true,
      "inputs": [
        {
          "name": "_surveyId",
          "type": "uint256"
        },
        {
          "name": "_account",
          "type": "address"
        }
      ],
      "name": "isSurveyToBuyer",
      "outputs": [
        {
          "name": "",
          "type": "bool"
        }
      ],
      "payable": false,
      "stateMutability": "view",
      "type": "function"
    },
    {
      "constant": true,
      "inputs": [
        {
          "name": "owner",
          "type": "address"
        },
        {
          "name": "spender",
          "type": "address"
        }
      ],
      "name": "allowance",
      "outputs": [
        {
          "name": "",
          "type": "uint256"
        }
      ],
      "payable": false,
      "stateMutability": "view",
      "type": "function"
    },
    {
      "constant": true,
      "inputs": [],
      "name": "PRICE_PER_QUESTION",
      "outputs": [
        {
          "name": "",
          "type": "uint256"
        }
      ],
      "payable": false,
      "stateMutability": "view",
      "type": "function"
    },
    {
      "constant": false,
      "inputs": [],
      "name": "getFoundationList",
      "outputs": [
        {
          "name": "",
          "type": "uint256[]"
        }
      ],
      "payable": false,
      "stateMutability": "nonpayable",
      "type": "function"
    },
    {
      "constant": false,
      "inputs": [],
      "name": "getSurveyBuyList",
      "outputs": [
        {
          "name": "",
          "type": "uint256[]"
        }
      ],
      "payable": false,
      "stateMutability": "nonpayable",
      "type": "function"
    },
    {
      "constant": false,
      "inputs": [],
      "name": "getSurveyMarketList",
      "outputs": [
        {
          "name": "",
          "type": "uint256[]"
        }
      ],
      "payable": false,
      "stateMutability": "nonpayable",
      "type": "function"
    },
    {
      "constant": false,
      "inputs": [
        {
          "name": "_surveyId",
          "type": "uint256"
        }
      ],
      "name": "responseSurvey",
      "outputs": [
        {
          "name": "",
          "type": "uint256"
        }
      ],
      "payable": false,
      "stateMutability": "nonpayable",
      "type": "function"
    },
    {
      "constant": false,
      "inputs": [
        {
          "name": "_newDeveloperAddress",
          "type": "address"
        }
      ],
      "name": "setDeveloper",
      "outputs": [],
      "payable": false,
      "stateMutability": "nonpayable",
      "type": "function"
    },
    {
      "inputs": [],
      "payable": false,
      "stateMutability": "nonpayable",
      "type": "constructor"
    },
    {
      "anonymous": false,
      "inputs": [
        {
          "indexed": false,
          "name": "foundationId",
          "type": "uint256"
        },
        {
          "indexed": false,
          "name": "price",
          "type": "uint256"
        }
      ],
      "name": "Donation",
      "type": "event"
    },
    {
      "anonymous": false,
      "inputs": [
        {
          "indexed": false,
          "name": "surveyId",
          "type": "uint256"
        },
        {
          "indexed": false,
          "name": "price",
          "type": "uint256"
        }
      ],
      "name": "AddSurveyMarket",
      "type": "event"
    },
    {
      "anonymous": false,
      "inputs": [
        {
          "indexed": false,
          "name": "surveyId",
          "type": "uint256"
        }
      ],
      "name": "CancelSurveyMarket",
      "type": "event"
    },
    {
      "anonymous": false,
      "inputs": [
        {
          "indexed": false,
          "name": "surveyId",
          "type": "uint256"
        },
        {
          "indexed": false,
          "name": "price",
          "type": "uint256"
        }
      ],
      "name": "BuySurvey",
      "type": "event"
    },
    {
      "anonymous": false,
      "inputs": [
        {
          "indexed": false,
          "name": "surveyId",
          "type": "uint256"
        },
        {
          "indexed": false,
          "name": "reward",
          "type": "uint256"
        }
      ],
      "name": "ResponseSurvey",
      "type": "event"
    },
    {
      "anonymous": false,
      "inputs": [
        {
          "indexed": true,
          "name": "from",
          "type": "address"
        },
        {
          "indexed": true,
          "name": "to",
          "type": "address"
        },
        {
          "indexed": false,
          "name": "value",
          "type": "uint256"
        }
      ],
      "name": "Transfer",
      "type": "event"
    },
    {
      "anonymous": false,
      "inputs": [
        {
          "indexed": true,
          "name": "owner",
          "type": "address"
        },
        {
          "indexed": true,
          "name": "spender",
          "type": "address"
        },
        {
          "indexed": false,
          "name": "value",
          "type": "uint256"
        }
      ],
      "name": "Approval",
      "type": "event"
    },
    {
      "anonymous": false,
      "inputs": [
        {
          "indexed": false,
          "name": "surveyId",
          "type": "uint256"
        },
        {
          "indexed": true,
          "name": "account",
          "type": "address"
        }
      ],
      "name": "BuyerAdded",
      "type": "event"
    },
    {
      "anonymous": false,
      "inputs": [
        {
          "indexed": false,
          "name": "surveyId",
          "type": "uint256"
        },
        {
          "indexed": true,
          "name": "account",
          "type": "address"
        }
      ],
      "name": "BuyerRemoved",
      "type": "event"
    },
    {
      "anonymous": false,
      "inputs": [
        {
          "indexed": false,
          "name": "surveyId",
          "type": "uint256"
        },
        {
          "indexed": false,
          "name": "owner",
          "type": "address"
        }
      ],
      "name": "CreateSurvey",
      "type": "event"
    },
    {
      "anonymous": false,
      "inputs": [
        {
          "indexed": false,
          "name": "receiptId",
          "type": "uint256"
        },
        {
          "indexed": false,
          "name": "owner",
          "type": "address"
        }
      ],
      "name": "CreateReceipt",
      "type": "event"
    },
    {
      "anonymous": false,
      "inputs": [
        {
          "indexed": false,
          "name": "foundationId",
          "type": "uint256"
        },
        {
          "indexed": false,
          "name": "owner",
          "type": "address"
        }
      ],
      "name": "CreateFoundation",
      "type": "event"
    },
    {
      "anonymous": false,
      "inputs": [
        {
          "indexed": false,
          "name": "productId",
          "type": "uint256"
        },
        {
          "indexed": false,
          "name": "owner",
          "type": "address"
        }
      ],
      "name": "CreateProduct",
      "type": "event"
    }
  ],
  "bytecode": "0x608060405260008060146101000a81548160ff0219169083151502179055506040805190810160405280600781526020017f494e4f434f494e00000000000000000000000000000000000000000000000000815250601890805190602001906200006b92919062001613565b506012601960006101000a81548160ff021916908360ff1602179055506040805190810160405280600381526020017f494e430000000000000000000000000000000000000000000000000000000000815250601a9080519060200190620000d592919062001613565b50348015620000e357600080fd5b5060008060146101000a81548160ff021916908315150217905550336000806101000a81548173ffffffffffffffffffffffffffffffffffffffff021916908373ffffffffffffffffffffffffffffffffffffffff1602179055506200015e3364e8d4a51000620001a0640100000000026401000000009004565b6200017c600042600062000317640100000000026401000000009004565b506200019960008062000420640100000000026401000000009004565b50620017c1565b600073ffffffffffffffffffffffffffffffffffffffff168273ffffffffffffffffffffffffffffffffffffffff1614151515620001dd57600080fd5b62000202816017546200047364010000000002620048fa179091906401000000009004565b6017819055506200026a81601560008573ffffffffffffffffffffffffffffffffffffffff1673ffffffffffffffffffffffffffffffffffffffff168152602001908152602001600020546200047364010000000002620048fa179091906401000000009004565b601560008473ffffffffffffffffffffffffffffffffffffffff1673ffffffffffffffffffffffffffffffffffffffff168152602001908152602001600020819055508173ffffffffffffffffffffffffffffffffffffffff16600073ffffffffffffffffffffffffffffffffffffffff167fddf252ad1be2c89b69c2b068fc378daa952ba7f163c4a11628f55a4df523b3ef836040518082815260200191505060405180910390a35050565b60008084600a8460ff160202905060006064605083028115156200033757fe5b04905060006064605088848115156200034c57fe5b04028115156200035857fe5b0490506000620003778462000495640100000000026401000000009004565b905062000395838503620004bc640100000000026401000000009004565b50801562000414576000620003c3846000858c60008d8d600062000504640100000000026401000000009004565b9050620003e08133620006d3640100000000026401000000009004565b6000620004036000803033868a8f620006f2640100000000026401000000009004565b905080965050505050505062000419565b600080fd5b9392505050565b600080620004436000854286600162000f90640100000000026401000000009004565b90506200046860016000803385600042620006f2640100000000026401000000009004565b508091505092915050565b60008082840190508381101515156200048b57600080fd5b8091505092915050565b6000620004b333308462001112640100000000026401000000009004565b60019050919050565b6000620004fb306000809054906101000a900473ffffffffffffffffffffffffffffffffffffffff168462001112640100000000026401000000009004565b60019050919050565b6000620005106200169a565b610100604051908101604052808b81526020018a81526020018981526020018881526020018781526020018681526020018560ff168152602001841515815250905060006001808390806001815401808255809150509060018203906000526020600020906007020160009091929091909150600082015181600001556020820151816001015560408201518160020155606082015181600301556080820151816004015560a0820151816005015560c08201518160060160006101000a81548160ff021916908360ff16021790555060e08201518160060160016101000a81548160ff0219169083151502179055505050039050336005600083815260200190815260200160002060006101000a81548173ffffffffffffffffffffffffffffffffffffffff021916908373ffffffffffffffffffffffffffffffffffffffff1602179055507fecc279af01ecc1616810552807a41a6dcbad8eb3a91a33626b2d35c9dfd5c2d58133604051808381526020018273ffffffffffffffffffffffffffffffffffffffff1673ffffffffffffffffffffffffffffffffffffffff1681526020019250505060405180910390a1809250505098975050505050505050565b620006ee828262001411640100000000026401000000009004565b5050565b6000620006fe620016e5565b60e0604051908101604052808a60028111156200071757fe5b81526020018960058111156200072957fe5b81526020018873ffffffffffffffffffffffffffffffffffffffff1681526020018773ffffffffffffffffffffffffffffffffffffffff168152602001868152602001858152602001848152509050600060016002839080600181540180825580915050906001820390600052602060002090600502016000909192909190915060008201518160000160006101000a81548160ff02191690836002811115620007cf57fe5b021790555060208201518160000160016101000a81548160ff02191690836005811115620007f957fe5b021790555060408201518160000160026101000a81548173ffffffffffffffffffffffffffffffffffffffff021916908373ffffffffffffffffffffffffffffffffffffffff16021790555060608201518160010160006101000a81548173ffffffffffffffffffffffffffffffffffffffff021916908373ffffffffffffffffffffffffffffffffffffffff1602179055506080820151816002015560a0820151816003015560c082015181600401555050039050336006600083815260200190815260200160002060006101000a81548173ffffffffffffffffffffffffffffffffffffffff021916908373ffffffffffffffffffffffffffffffffffffffff160217905550600960003373ffffffffffffffffffffffffffffffffffffffff1673ffffffffffffffffffffffffffffffffffffffff168152602001908152602001600020819080600181540180825580915050906001820390600052602060002001600090919290919091505550600060028111156200097857fe5b8a60028111156200098557fe5b141562000c6f57600060058111156200099a57fe5b896005811115620009a757fe5b141562000a1d57600a60003373ffffffffffffffffffffffffffffffffffffffff1673ffffffffffffffffffffffffffffffffffffffff16815260200190815260200160002081908060018154018082558091505090600182039060005260206000200160009091929091909150555062000c69565b6001600581111562000a2b57fe5b89600581111562000a3857fe5b141562000aae57600b60003373ffffffffffffffffffffffffffffffffffffffff1673ffffffffffffffffffffffffffffffffffffffff16815260200190815260200160002081908060018154018082558091505090600182039060005260206000200160009091929091909150555062000c68565b6003600581111562000abc57fe5b89600581111562000ac957fe5b141562000b3f57600c60003373ffffffffffffffffffffffffffffffffffffffff1673ffffffffffffffffffffffffffffffffffffffff16815260200190815260200160002081908060018154018082558091505090600182039060005260206000200160009091929091909150555062000c67565b6004600581111562000b4d57fe5b89600581111562000b5a57fe5b141562000bd057600d60003373ffffffffffffffffffffffffffffffffffffffff1673ffffffffffffffffffffffffffffffffffffffff16815260200190815260200160002081908060018154018082558091505090600182039060005260206000200160009091929091909150555062000c66565b60058081111562000bdd57fe5b89600581111562000bea57fe5b141562000c6057600e60003373ffffffffffffffffffffffffffffffffffffffff1673ffffffffffffffffffffffffffffffffffffffff16815260200190815260200160002081908060018154018082558091505090600182039060005260206000200160009091929091909150555062000c65565b600080fd5b5b5b5b5b62000f15565b6001600281111562000c7d57fe5b8a600281111562000c8a57fe5b141562000dbf576000600581111562000c9f57fe5b89600581111562000cac57fe5b141562000d2257600f60003373ffffffffffffffffffffffffffffffffffffffff1673ffffffffffffffffffffffffffffffffffffffff16815260200190815260200160002081908060018154018082558091505090600182039060005260206000200160009091929091909150555062000db9565b6002600581111562000d3057fe5b89600581111562000d3d57fe5b141562000db357601060003373ffffffffffffffffffffffffffffffffffffffff1673ffffffffffffffffffffffffffffffffffffffff16815260200190815260200160002081908060018154018082558091505090600182039060005260206000200160009091929091909150555062000db8565b600080fd5b5b62000f14565b60028081111562000dcc57fe5b8a600281111562000dd957fe5b141562000f0e576003600581111562000dee57fe5b89600581111562000dfb57fe5b141562000e7157601160003373ffffffffffffffffffffffffffffffffffffffff1673ffffffffffffffffffffffffffffffffffffffff16815260200190815260200160002081908060018154018082558091505090600182039060005260206000200160009091929091909150555062000f08565b6004600581111562000e7f57fe5b89600581111562000e8c57fe5b141562000f0257601260003373ffffffffffffffffffffffffffffffffffffffff1673ffffffffffffffffffffffffffffffffffffffff16815260200190815260200160002081908060018154018082558091505090600182039060005260206000200160009091929091909150555062000f07565b600080fd5b5b62000f13565b600080fd5b5b5b7f648ea8614c7f2c919bde3b01694291faae3d403522f45d971755f2ac0e2faa598133604051808381526020018273ffffffffffffffffffffffffffffffffffffffff1673ffffffffffffffffffffffffffffffffffffffff1681526020019250505060405180910390a18092505050979650505050505050565b600062000f9c62001767565b60a060405190810160405280888152602001878152602001868152602001858152602001841515815250905060006001600383908060018154018082558091505090600182039060005260206000209060050201600090919290919091506000820151816000015560208201518160010155604082015181600201556060820151816003015560808201518160040160006101000a81548160ff0219169083151502179055505050039050336007600083815260200190815260200160002060006101000a81548173ffffffffffffffffffffffffffffffffffffffff021916908373ffffffffffffffffffffffffffffffffffffffff1602179055507fdc79878c7751be2913fa8baed72a599dd9024b1f3e4e03f25cb24f783eb833fc8133604051808381526020018273ffffffffffffffffffffffffffffffffffffffff1673ffffffffffffffffffffffffffffffffffffffff1681526020019250505060405180910390a1809250505095945050505050565b600073ffffffffffffffffffffffffffffffffffffffff168273ffffffffffffffffffffffffffffffffffffffff1614151515620011b8576040517f08c379a000000000000000000000000000000000000000000000000000000000815260040180806020018281038252600f8152602001807f6275726e2061646472657373212121000000000000000000000000000000000081525060200191505060405180910390fd5b6200121a81601560008673ffffffffffffffffffffffffffffffffffffffff1673ffffffffffffffffffffffffffffffffffffffff168152602001908152602001600020546200149864010000000002620043f0179091906401000000009004565b601560008573ffffffffffffffffffffffffffffffffffffffff1673ffffffffffffffffffffffffffffffffffffffff16815260200190815260200160002081905550620012bf81601560008573ffffffffffffffffffffffffffffffffffffffff1673ffffffffffffffffffffffffffffffffffffffff168152602001908152602001600020546200047364010000000002620048fa179091906401000000009004565b601560008473ffffffffffffffffffffffffffffffffffffffff1673ffffffffffffffffffffffffffffffffffffffff168152602001908152602001600020819055506200136481601460008673ffffffffffffffffffffffffffffffffffffffff1673ffffffffffffffffffffffffffffffffffffffff168152602001908152602001600020546200047364010000000002620048fa179091906401000000009004565b601460008573ffffffffffffffffffffffffffffffffffffffff1673ffffffffffffffffffffffffffffffffffffffff168152602001908152602001600020819055508173ffffffffffffffffffffffffffffffffffffffff168373ffffffffffffffffffffffffffffffffffffffff167fddf252ad1be2c89b69c2b068fc378daa952ba7f163c4a11628f55a4df523b3ef836040518082815260200191505060405180910390a3505050565b620014468160136000858152602001908152602001600020620014bb6401000000000262004b92179091906401000000009004565b8073ffffffffffffffffffffffffffffffffffffffff167fd28f937e71e8a89ddbefb8937335b2ae03fb74ce63dd6a6f316724c5a7e6c3dc836040518082815260200191505060405180910390a25050565b6000828211151515620014aa57600080fd5b600082840390508091505092915050565b600073ffffffffffffffffffffffffffffffffffffffff168173ffffffffffffffffffffffffffffffffffffffff1614151515620014f857600080fd5b6200151382826200157e640100000000026401000000009004565b1515156200152057600080fd5b60018260000160008373ffffffffffffffffffffffffffffffffffffffff1673ffffffffffffffffffffffffffffffffffffffff16815260200190815260200160002060006101000a81548160ff0219169083151502179055505050565b60008073ffffffffffffffffffffffffffffffffffffffff168273ffffffffffffffffffffffffffffffffffffffff1614151515620015bc57600080fd5b8260000160008373ffffffffffffffffffffffffffffffffffffffff1673ffffffffffffffffffffffffffffffffffffffff16815260200190815260200160002060009054906101000a900460ff16905092915050565b828054600181600116156101000203166002900490600052602060002090601f016020900481019282601f106200165657805160ff191683800117855562001687565b8280016001018555821562001687579182015b828111156200168657825182559160200191906001019062001669565b5b50905062001696919062001799565b5090565b61010060405190810160405280600081526020016000815260200160008152602001600081526020016000815260200160008152602001600060ff1681526020016000151581525090565b60e06040519081016040528060006002811115620016ff57fe5b8152602001600060058111156200171257fe5b8152602001600073ffffffffffffffffffffffffffffffffffffffff168152602001600073ffffffffffffffffffffffffffffffffffffffff1681526020016000815260200160008152602001600081525090565b60a060405190810160405280600081526020016000815260200160008152602001600081526020016000151581525090565b620017be91905b80821115620017ba576000816000905550600101620017a0565b5090565b90565b614ddd80620017d16000396000f3fe608060405260043610610225576000357c0100000000000000000000000000000000000000000000000000000000900463ffffffff16806306fdde031461022a578063095ea7b3146102ba5780630c7ef9261461032d5780630ce38eb61461038a5780630fbafaf9146103e357806313f082ba1461045257806318160ddd146104be5780631f6a0d25146104e957806322929dbc1461055557806323b872dd146105a4578063282f162b14610637578063313ce5671461069d57806336d1e2dd146106ce578063385a44f81461072757806339509351146107935780633f4ba83a1461080657806354128fa11461081d57806357b2c03c1461090a5780635c975abb146109765780636b945e78146109a55780636dfa064214610a2f57806370a0823114610a9b5780637809aada14610b005780637b56c2b214610b6c578063834849d214610bdf57806383db29e814610c4b5780638456cb5914610c9e57806387a29c2814610cb557806395d89b4114610d1a578063965b0dcb14610daa578063a11842ff14610e16578063a457c2d714610e69578063a6c16e6c14610edc578063a9059cbb14610f48578063b84a540f14610fbb578063c7c700b714611027578063caccd7f714611093578063d4554193146110ea578063dd62ed3e1461115d578063de906fed146111e2578063e818c7cb1461120d578063ef29b4ba14611279578063f029ef01146112e5578063f03e818114611351578063ff70fa49146113a0575b600080fd5b34801561023657600080fd5b5061023f6113f1565b6040518080602001828103825283818151815260200191508051906020019080838360005b8381101561027f578082015181840152602081019050610264565b50505050905090810190601f1680156102ac5780820380516001836020036101000a031916815260200191505b509250505060405180910390f35b3480156102c657600080fd5b50610313600480360360408110156102dd57600080fd5b81019080803573ffffffffffffffffffffffffffffffffffffffff16906020019092919080359060200190929190505050611493565b604051808215151515815260200191505060405180910390f35b34801561033957600080fd5b506103706004803603604081101561035057600080fd5b8101908080359060200190929190803590602001909291905050506115c0565b604051808215151515815260200191505060405180910390f35b34801561039657600080fd5b506103cd600480360360408110156103ad57600080fd5b8101908080359060200190929190803590602001909291905050506116d7565b6040518082815260200191505060405180910390f35b3480156103ef57600080fd5b5061041c6004803603602081101561040657600080fd5b8101908080359060200190929190505050611708565b60405180868152602001858152602001848152602001838152602001821515151581526020019550505050505060405180910390f35b34801561045e57600080fd5b506104676117d5565b6040518080602001828103825283818151815260200191508051906020019060200280838360005b838110156104aa57808201518184015260208101905061048f565b505050509050019250505060405180910390f35b3480156104ca57600080fd5b506104d36118d3565b6040518082815260200191505060405180910390f35b3480156104f557600080fd5b506104fe6118dd565b6040518080602001828103825283818151815260200191508051906020019060200280838360005b83811015610541578082015181840152602081019050610526565b505050509050019250505060405180910390f35b34801561056157600080fd5b5061058e6004803603602081101561057857600080fd5b8101908080359060200190929190505050611972565b6040518082815260200191505060405180910390f35b3480156105b057600080fd5b5061061d600480360360608110156105c757600080fd5b81019080803573ffffffffffffffffffffffffffffffffffffffff169060200190929190803573ffffffffffffffffffffffffffffffffffffffff16906020019092919080359060200190929190505050611af5565b604051808215151515815260200191505060405180910390f35b34801561064357600080fd5b506106876004803603606081101561065a57600080fd5b810190808035906020019092919080359060200190929190803560ff169060200190929190505050611cfd565b6040518082815260200191505060405180910390f35b3480156106a957600080fd5b506106b2611dac565b604051808260ff1660ff16815260200191505060405180910390f35b3480156106da57600080fd5b50610711600480360360408110156106f157600080fd5b810190808035906020019092919080359060200190929190505050611dc3565b6040518082815260200191505060405180910390f35b34801561073357600080fd5b5061073c611fc9565b6040518080602001828103825283818151815260200191508051906020019060200280838360005b8381101561077f578082015181840152602081019050610764565b505050509050019250505060405180910390f35b34801561079f57600080fd5b506107ec600480360360408110156107b657600080fd5b81019080803573ffffffffffffffffffffffffffffffffffffffff1690602001909291908035906020019092919050505061205e565b604051808215151515815260200191505060405180910390f35b34801561081257600080fd5b5061081b612295565b005b34801561082957600080fd5b506108566004803603602081101561084057600080fd5b81019080803590602001909291905050506123f9565b6040518088600281111561086657fe5b60ff16815260200187600581111561087a57fe5b60ff1681526020018673ffffffffffffffffffffffffffffffffffffffff1673ffffffffffffffffffffffffffffffffffffffff1681526020018573ffffffffffffffffffffffffffffffffffffffff1673ffffffffffffffffffffffffffffffffffffffff16815260200184815260200183815260200182815260200197505050505050505060405180910390f35b34801561091657600080fd5b5061091f6125cd565b6040518080602001828103825283818151815260200191508051906020019060200280838360005b83811015610962578082015181840152602081019050610947565b505050509050019250505060405180910390f35b34801561098257600080fd5b5061098b612662565b604051808215151515815260200191505060405180910390f35b3480156109b157600080fd5b506109de600480360360208110156109c857600080fd5b8101908080359060200190929190505050612675565b604051808981526020018881526020018781526020018681526020018581526020018481526020018360ff1660ff168152602001821515151581526020019850505050505050505060405180910390f35b348015610a3b57600080fd5b50610a4461276d565b6040518080602001828103825283818151815260200191508051906020019060200280838360005b83811015610a87578082015181840152602081019050610a6c565b505050509050019250505060405180910390f35b348015610aa757600080fd5b50610aea60048036036020811015610abe57600080fd5b81019080803573ffffffffffffffffffffffffffffffffffffffff169060200190929190505050612802565b6040518082815260200191505060405180910390f35b348015610b0c57600080fd5b50610b1561284b565b6040518080602001828103825283818151815260200191508051906020019060200280838360005b83811015610b58578082015181840152602081019050610b3d565b505050509050019250505060405180910390f35b348015610b7857600080fd5b50610bc560048036036040811015610b8f57600080fd5b81019080803573ffffffffffffffffffffffffffffffffffffffff169060200190929190803590602001909291905050506128e0565b604051808215151515815260200191505060405180910390f35b348015610beb57600080fd5b50610bf46129ba565b6040518080602001828103825283818151815260200191508051906020019060200280838360005b83811015610c37578082015181840152602081019050610c1c565b505050509050019250505060405180910390f35b348015610c5757600080fd5b50610c8460048036036020811015610c6e57600080fd5b8101908080359060200190929190505050612a4f565b604051808215151515815260200191505060405180910390f35b348015610caa57600080fd5b50610cb3612b5f565b005b348015610cc157600080fd5b50610d0460048036036020811015610cd857600080fd5b81019080803573ffffffffffffffffffffffffffffffffffffffff169060200190929190505050612cc5565b6040518082815260200191505060405180910390f35b348015610d2657600080fd5b50610d2f612d0e565b6040518080602001828103825283818151815260200191508051906020019080838360005b83811015610d6f578082015181840152602081019050610d54565b50505050905090810190601f168015610d9c5780820380516001836020036101000a031916815260200191505b509250505060405180910390f35b348015610db657600080fd5b50610dbf612db0565b6040518080602001828103825283818151815260200191508051906020019060200280838360005b83811015610e02578082015181840152602081019050610de7565b505050509050019250505060405180910390f35b348015610e2257600080fd5b50610e4f60048036036020811015610e3957600080fd5b8101908080359060200190929190505050612eef565b604051808215151515815260200191505060405180910390f35b348015610e7557600080fd5b50610ec260048036036040811015610e8c57600080fd5b81019080803573ffffffffffffffffffffffffffffffffffffffff16906020019092919080359060200190929190505050612f26565b604051808215151515815260200191505060405180910390f35b348015610ee857600080fd5b50610ef161315d565b6040518080602001828103825283818151815260200191508051906020019060200280838360005b83811015610f34578082015181840152602081019050610f19565b505050509050019250505060405180910390f35b348015610f5457600080fd5b50610fa160048036036040811015610f6b57600080fd5b81019080803573ffffffffffffffffffffffffffffffffffffffff169060200190929190803590602001909291905050506131f2565b604051808215151515815260200191505060405180910390f35b348015610fc757600080fd5b50610fd0613209565b6040518080602001828103825283818151815260200191508051906020019060200280838360005b83811015611013578082015181840152602081019050610ff8565b505050509050019250505060405180910390f35b34801561103357600080fd5b5061103c61329e565b6040518080602001828103825283818151815260200191508051906020019060200280838360005b8381101561107f578082015181840152602081019050611064565b505050509050019250505060405180910390f35b34801561109f57600080fd5b506110a8613333565b604051808273ffffffffffffffffffffffffffffffffffffffff1673ffffffffffffffffffffffffffffffffffffffff16815260200191505060405180910390f35b3480156110f657600080fd5b506111436004803603604081101561110d57600080fd5b8101908080359060200190929190803573ffffffffffffffffffffffffffffffffffffffff169060200190929190505050613358565b604051808215151515815260200191505060405180910390f35b34801561116957600080fd5b506111cc6004803603604081101561118057600080fd5b81019080803573ffffffffffffffffffffffffffffffffffffffff169060200190929190803573ffffffffffffffffffffffffffffffffffffffff169060200190929190505050613387565b6040518082815260200191505060405180910390f35b3480156111ee57600080fd5b506111f761340e565b6040518082815260200191505060405180910390f35b34801561121957600080fd5b50611222613413565b6040518080602001828103825283818151815260200191508051906020019060200280838360005b8381101561126557808201518184015260208101905061124a565b505050509050019250505060405180910390f35b34801561128557600080fd5b5061128e613552565b6040518080602001828103825283818151815260200191508051906020019060200280838360005b838110156112d15780820151818401526020810190506112b6565b505050509050019250505060405180910390f35b3480156112f157600080fd5b506112fa613650565b6040518080602001828103825283818151815260200191508051906020019060200280838360005b8381101561133d578082015181840152602081019050611322565b505050509050019250505060405180910390f35b34801561135d57600080fd5b5061138a6004803603602081101561137457600080fd5b8101908080359060200190929190505050613742565b6040518082815260200191505060405180910390f35b3480156113ac57600080fd5b506113ef600480360360208110156113c357600080fd5b81019080803573ffffffffffffffffffffffffffffffffffffffff16906020019092919050505061384e565b005b606060188054600181600116156101000203166002900480601f0160208091040260200160405190810160405280929190818152602001828054600181600116156101000203166002900480156114895780601f1061145e57610100808354040283529160200191611489565b820191906000526020600020905b81548152906001019060200180831161146c57829003601f168201915b5050505050905090565b60008073ffffffffffffffffffffffffffffffffffffffff168373ffffffffffffffffffffffffffffffffffffffff16141515156114d057600080fd5b81601660003373ffffffffffffffffffffffffffffffffffffffff1673ffffffffffffffffffffffffffffffffffffffff16815260200190815260200160002060008573ffffffffffffffffffffffffffffffffffffffff1673ffffffffffffffffffffffffffffffffffffffff168152602001908152602001600020819055508273ffffffffffffffffffffffffffffffffffffffff163373ffffffffffffffffffffffffffffffffffffffff167f8c5be1e5ebec7d5bd14f71427d1e84f3dd0314c0f7b2291e5b200ac8c7c3b925846040518082815260200191505060405180910390a36001905092915050565b6000823373ffffffffffffffffffffffffffffffffffffffff166005600083815260200190815260200160002060009054906101000a900473ffffffffffffffffffffffffffffffffffffffff1673ffffffffffffffffffffffffffffffffffffffff1614151561163057600080fd5b8260018581548110151561164057fe5b9060005260206000209060070201600101819055506001808581548110151561166557fe5b906000526020600020906007020160060160016101000a81548160ff0219169083151502179055507f73311bf53855012501413b9a4851a8bfa12078b9b1d28238e40fe2c6ab4b41a48484604051808381526020018281526020019250505060405180910390a1600191505092915050565b6000806116e9600085428660016139fa565b90506116fd60016000803385600042613b7a565b508091505092915050565b600080600080600060038681548110151561171f57fe5b90600052602060002090600502016000015460038781548110151561174057fe5b90600052602060002090600502016001015460038881548110151561176157fe5b90600052602060002090600502016002015460038981548110151561178257fe5b90600052602060002090600502016003015460038a8154811015156117a357fe5b906000526020600020906005020160040160009054906101000a900460ff169450945094509450945091939590929450565b60608060606117e2613209565b905081601b90805190602001906117fa929190614c42565b5060008090505b815181101561187a57601b6002838381518110151561181c57fe5b9060200190602002015181548110151561183257fe5b90600052602060002090600502016002015490806001815401808255809150509060018203906000526020600020016000909192909190915055508080600101915050611801565b50601b8054806020026020016040519081016040528092919081815260200182805480156118c757602002820191906000526020600020905b8154815260200190600101908083116118b3575b50505050509250505090565b6000601754905090565b6060600b60003373ffffffffffffffffffffffffffffffffffffffff1673ffffffffffffffffffffffffffffffffffffffff16815260200190815260200160002080548060200260200160405190810160405280929190818152602001828054801561196857602002820191906000526020600020905b815481526020019060010190808311611954575b5050505050905090565b60008161197e81612eef565b151561198957600080fd5b611991614c8f565b6001848154811015156119a057fe5b906000526020600020906007020161010060405190810160405290816000820154815260200160018201548152602001600282015481526020016003820154815260200160048201548152602001600582015481526020016006820160009054906101000a900460ff1660ff1660ff1681526020016006820160019054906101000a900460ff16151515158152505090506000816020015190506000611a796005600088815260200190815260200160002060009054906101000a900473ffffffffffffffffffffffffffffffffffffffff16836131f2565b90508015611aeb576000611a946000600330338b8842613b7a565b9050611aa087336143e2565b7f122370579f123c65dbd2d74b59725c0da5f655dbb167182deb5c493cca0a86818784604051808381526020018281526020019250505060405180910390a180955050505050611aef565b5050505b50919050565b6000611b8682601660008773ffffffffffffffffffffffffffffffffffffffff1673ffffffffffffffffffffffffffffffffffffffff16815260200190815260200160002060003373ffffffffffffffffffffffffffffffffffffffff1673ffffffffffffffffffffffffffffffffffffffff168152602001908152602001600020546143f090919063ffffffff16565b601660008673ffffffffffffffffffffffffffffffffffffffff1673ffffffffffffffffffffffffffffffffffffffff16815260200190815260200160002060003373ffffffffffffffffffffffffffffffffffffffff1673ffffffffffffffffffffffffffffffffffffffff16815260200190815260200160002081905550611c11848484614412565b3373ffffffffffffffffffffffffffffffffffffffff168473ffffffffffffffffffffffffffffffffffffffff167f8c5be1e5ebec7d5bd14f71427d1e84f3dd0314c0f7b2291e5b200ac8c7c3b925601660008873ffffffffffffffffffffffffffffffffffffffff1673ffffffffffffffffffffffffffffffffffffffff16815260200190815260200160002060003373ffffffffffffffffffffffffffffffffffffffff1673ffffffffffffffffffffffffffffffffffffffff168152602001908152602001600020546040518082815260200191505060405180910390a3600190509392505050565b60008084600a8460ff16020290506000606460508302811515611d1c57fe5b0490506000606460508884811515611d3057fe5b0402811515611d3b57fe5b0490506000611d49846146e0565b9050611d568385036146f6565b508015611da0576000611d72846000858c60008d8d600061472d565b9050611d7e81336143e2565b6000611d906000803033868a8f613b7a565b9050809650505050505050611da5565b600080fd5b9392505050565b6000601960009054906101000a900460ff16905090565b6000806007600085815260200190815260200160002060009054906101000a900473ffffffffffffffffffffffffffffffffffffffff169050600384815481101515611e0b57fe5b906000526020600020906005020160040160009054906101000a900460ff1615611fbe57600384815481101515611e3e57fe5b906000526020600020906005020160030154421115611e95576000600385815481101515611e6857fe5b906000526020600020906005020160040160006101000a81548160ff021916908315150217905550600080fd5b6000611ea182856131f2565b90508015611fb95783600386815481101515611eb957fe5b906000526020600020906005020160000160008282540192505081905550600385815481101515611ee657fe5b906000526020600020906005020160000154600386815481101515611f0757fe5b906000526020600020906005020160010154111515611f5a576000600386815481101515611f3157fe5b906000526020600020906005020160040160006101000a81548160ff0219169083151502179055505b6000611f6d6001600285338a8a42613b7a565b90507f965f7409cc0fd75aafcf803f57c201a8530900e4a4cbc0c622b1ea8f4cfbcf478686604051808381526020018281526020019250505060405180910390a1809350505050611fc3565b600080fd5b600080fd5b92915050565b6060601060003373ffffffffffffffffffffffffffffffffffffffff1673ffffffffffffffffffffffffffffffffffffffff16815260200190815260200160002080548060200260200160405190810160405280929190818152602001828054801561205457602002820191906000526020600020905b815481526020019060010190808311612040575b5050505050905090565b60008073ffffffffffffffffffffffffffffffffffffffff168373ffffffffffffffffffffffffffffffffffffffff161415151561209b57600080fd5b61212a82601660003373ffffffffffffffffffffffffffffffffffffffff1673ffffffffffffffffffffffffffffffffffffffff16815260200190815260200160002060008673ffffffffffffffffffffffffffffffffffffffff1673ffffffffffffffffffffffffffffffffffffffff168152602001908152602001600020546148fa90919063ffffffff16565b601660003373ffffffffffffffffffffffffffffffffffffffff1673ffffffffffffffffffffffffffffffffffffffff16815260200190815260200160002060008573ffffffffffffffffffffffffffffffffffffffff1673ffffffffffffffffffffffffffffffffffffffff168152602001908152602001600020819055508273ffffffffffffffffffffffffffffffffffffffff163373ffffffffffffffffffffffffffffffffffffffff167f8c5be1e5ebec7d5bd14f71427d1e84f3dd0314c0f7b2291e5b200ac8c7c3b925601660003373ffffffffffffffffffffffffffffffffffffffff1673ffffffffffffffffffffffffffffffffffffffff16815260200190815260200160002060008773ffffffffffffffffffffffffffffffffffffffff1673ffffffffffffffffffffffffffffffffffffffff168152602001908152602001600020546040518082815260200191505060405180910390a36001905092915050565b6000809054906101000a900473ffffffffffffffffffffffffffffffffffffffff1673ffffffffffffffffffffffffffffffffffffffff163373ffffffffffffffffffffffffffffffffffffffff16141515612359576040517f08c379a00000000000000000000000000000000000000000000000000000000081526004018080602001828103825260098152602001807f4e6f74204f776e6572000000000000000000000000000000000000000000000081525060200191505060405180910390fd5b600060149054906101000a900460ff1615156123dd576040517f08c379a000000000000000000000000000000000000000000000000000000000815260040180806020018281038252600b8152602001807f6e6f74207061757365642e00000000000000000000000000000000000000000081525060200191505060405180910390fd5b60008060146101000a81548160ff021916908315150217905550565b6000806000806000806000873373ffffffffffffffffffffffffffffffffffffffff166006600083815260200190815260200160002060009054906101000a900473ffffffffffffffffffffffffffffffffffffffff1673ffffffffffffffffffffffffffffffffffffffff1614151561247257600080fd5b60028981548110151561248157fe5b906000526020600020906005020160000160009054906101000a900460ff1660028a8154811015156124af57fe5b906000526020600020906005020160000160019054906101000a900460ff1660028b8154811015156124dd57fe5b906000526020600020906005020160000160029054906101000a900473ffffffffffffffffffffffffffffffffffffffff1660028c81548110151561251e57fe5b906000526020600020906005020160010160009054906101000a900473ffffffffffffffffffffffffffffffffffffffff1660028d81548110151561255f57fe5b90600052602060002090600502016002015460028e81548110151561258057fe5b90600052602060002090600502016003015460028f8154811015156125a157fe5b906000526020600020906005020160040154975097509750975097509750975050919395979092949650565b6060601160003373ffffffffffffffffffffffffffffffffffffffff1673ffffffffffffffffffffffffffffffffffffffff16815260200190815260200160002080548060200260200160405190810160405280929190818152602001828054801561265857602002820191906000526020600020905b815481526020019060010190808311612644575b5050505050905090565b600060149054906101000a900460ff1681565b600080600080600080600080612689614c8f565b60018a81548110151561269857fe5b906000526020600020906007020161010060405190810160405290816000820154815260200160018201548152602001600282015481526020016003820154815260200160048201548152602001600582015481526020016006820160009054906101000a900460ff1660ff1660ff1681526020016006820160019054906101000a900460ff1615151515815250509050806000015181602001518260400151836060015184608001518560a001518660c001518760e001519850985098509850985098509850985050919395975091939597565b6060600960003373ffffffffffffffffffffffffffffffffffffffff1673ffffffffffffffffffffffffffffffffffffffff1681526020019081526020016000208054806020026020016040519081016040528092919081815260200182805480156127f857602002820191906000526020600020905b8154815260200190600101908083116127e4575b5050505050905090565b6000601560008373ffffffffffffffffffffffffffffffffffffffff1673ffffffffffffffffffffffffffffffffffffffff168152602001908152602001600020549050919050565b6060600f60003373ffffffffffffffffffffffffffffffffffffffff1673ffffffffffffffffffffffffffffffffffffffff1681526020019081526020016000208054806020026020016040519081016040528092919081815260200182805480156128d657602002820191906000526020600020905b8154815260200190600101908083116128c2575b5050505050905090565b60008060009054906101000a900473ffffffffffffffffffffffffffffffffffffffff1673ffffffffffffffffffffffffffffffffffffffff163373ffffffffffffffffffffffffffffffffffffffff161415156129a6576040517f08c379a00000000000000000000000000000000000000000000000000000000081526004018080602001828103825260098152602001807f4e6f74204f776e6572000000000000000000000000000000000000000000000081525060200191505060405180910390fd5b6129b0838361491b565b6001905092915050565b6060600d60003373ffffffffffffffffffffffffffffffffffffffff1673ffffffffffffffffffffffffffffffffffffffff168152602001908152602001600020805480602002602001604051908101604052809291908181526020018280548015612a4557602002820191906000526020600020905b815481526020019060010190808311612a31575b5050505050905090565b6000813373ffffffffffffffffffffffffffffffffffffffff166005600083815260200190815260200160002060009054906101000a900473ffffffffffffffffffffffffffffffffffffffff1673ffffffffffffffffffffffffffffffffffffffff16141515612abf57600080fd5b6000600184815481101515612ad057fe5b9060005260206000209060070201600101819055506000600184815481101515612af657fe5b906000526020600020906007020160060160016101000a81548160ff0219169083151502179055507fc9e9a177ee719e1b3c5f98aa1156d973034683f3b71763f0174dba326568635c836040518082815260200191505060405180910390a16001915050919050565b6000809054906101000a900473ffffffffffffffffffffffffffffffffffffffff1673ffffffffffffffffffffffffffffffffffffffff163373ffffffffffffffffffffffffffffffffffffffff16141515612c23576040517f08c379a00000000000000000000000000000000000000000000000000000000081526004018080602001828103825260098152602001807f4e6f74204f776e6572000000000000000000000000000000000000000000000081525060200191505060405180910390fd5b600060149054906101000a900460ff16151515612ca8576040517f08c379a000000000000000000000000000000000000000000000000000000000815260040180806020018281038252600f8152602001807f616c7265616479207061757365642e000000000000000000000000000000000081525060200191505060405180910390fd5b6001600060146101000a81548160ff021916908315150217905550565b6000601460008373ffffffffffffffffffffffffffffffffffffffff1673ffffffffffffffffffffffffffffffffffffffff168152602001908152602001600020549050919050565b6060601a8054600181600116156101000203166002900480601f016020809104026020016040519081016040528092919081815260200182805460018160011615610100020316600290048015612da65780601f10612d7b57610100808354040283529160200191612da6565b820191906000526020600020905b815481529060010190602001808311612d8957829003601f168201915b5050505050905090565b6060806060612dbd6118dd565b905081601b9080519060200190612dd5929190614c42565b5060008090505b600b60003373ffffffffffffffffffffffffffffffffffffffff1673ffffffffffffffffffffffffffffffffffffffff16815260200190815260200160002080549050811015612e9657601b60028383815181101515612e3857fe5b90602001906020020151815481101515612e4e57fe5b90600052602060002090600502016002015490806001815401808255809150509060018203906000526020600020016000909192909190915055508080600101915050612ddc565b50601b805480602002602001604051908101604052809291908181526020018280548015612ee357602002820191906000526020600020905b815481526020019060010190808311612ecf575b50505050509250505090565b6000600182815481101515612f0057fe5b906000526020600020906007020160060160019054906101000a900460ff169050919050565b60008073ffffffffffffffffffffffffffffffffffffffff168373ffffffffffffffffffffffffffffffffffffffff1614151515612f6357600080fd5b612ff282601660003373ffffffffffffffffffffffffffffffffffffffff1673ffffffffffffffffffffffffffffffffffffffff16815260200190815260200160002060008673ffffffffffffffffffffffffffffffffffffffff1673ffffffffffffffffffffffffffffffffffffffff168152602001908152602001600020546143f090919063ffffffff16565b601660003373ffffffffffffffffffffffffffffffffffffffff1673ffffffffffffffffffffffffffffffffffffffff16815260200190815260200160002060008573ffffffffffffffffffffffffffffffffffffffff1673ffffffffffffffffffffffffffffffffffffffff168152602001908152602001600020819055508273ffffffffffffffffffffffffffffffffffffffff163373ffffffffffffffffffffffffffffffffffffffff167f8c5be1e5ebec7d5bd14f71427d1e84f3dd0314c0f7b2291e5b200ac8c7c3b925601660003373ffffffffffffffffffffffffffffffffffffffff1673ffffffffffffffffffffffffffffffffffffffff16815260200190815260200160002060008773ffffffffffffffffffffffffffffffffffffffff1673ffffffffffffffffffffffffffffffffffffffff168152602001908152602001600020546040518082815260200191505060405180910390a36001905092915050565b6060601260003373ffffffffffffffffffffffffffffffffffffffff1673ffffffffffffffffffffffffffffffffffffffff1681526020019081526020016000208054806020026020016040519081016040528092919081815260200182805480156131e857602002820191906000526020600020905b8154815260200190600101908083116131d4575b5050505050905090565b60006131ff338484614412565b6001905092915050565b6060600a60003373ffffffffffffffffffffffffffffffffffffffff1673ffffffffffffffffffffffffffffffffffffffff16815260200190815260200160002080548060200260200160405190810160405280929190818152602001828054801561329457602002820191906000526020600020905b815481526020019060010190808311613280575b5050505050905090565b6060600c60003373ffffffffffffffffffffffffffffffffffffffff1673ffffffffffffffffffffffffffffffffffffffff16815260200190815260200160002080548060200260200160405190810160405280929190818152602001828054801561332957602002820191906000526020600020905b815481526020019060010190808311613315575b5050505050905090565b6000809054906101000a900473ffffffffffffffffffffffffffffffffffffffff1681565b600061337f8260136000868152602001908152602001600020614a7190919063ffffffff16565b905092915050565b6000601660008473ffffffffffffffffffffffffffffffffffffffff1673ffffffffffffffffffffffffffffffffffffffff16815260200190815260200160002060008373ffffffffffffffffffffffffffffffffffffffff1673ffffffffffffffffffffffffffffffffffffffff16815260200190815260200160002054905092915050565b600a81565b6060806060613420611fc9565b905081601c9080519060200190613438929190614c42565b5060008090505b601060003373ffffffffffffffffffffffffffffffffffffffff1673ffffffffffffffffffffffffffffffffffffffff168152602001908152602001600020805490508110156134f957601c6002838381518110151561349b57fe5b906020019060200201518154811015156134b157fe5b9060005260206000209060050201600201549080600181540180825580915050906001820390600052602060002001600090919290919091505550808060010191505061343f565b50601c80548060200260200160405190810160405280929190818152602001828054801561354657602002820191906000526020600020905b815481526020019060010190808311613532575b50505050509250505090565b606080606061355f61329e565b905081601b9080519060200190613577929190614c42565b5060008090505b81518110156135f757601b6002838381518110151561359957fe5b906020019060200201518154811015156135af57fe5b9060005260206000209060050201600201549080600181540180825580915050906001820390600052602060002001600090919290919091505550808060010191505061357e565b50601b80548060200260200160405190810160405280929190818152602001828054801561364457602002820191906000526020600020905b815481526020019060010190808311613630575b50505050509250505090565b60608080601b9080519060200190613669929190614c42565b5060008090505b6001805490508110156136ea5760018181548110151561368c57fe5b906000526020600020906007020160060160019054906101000a900460ff16156136dd57601b8190806001815401808255809150509060018203906000526020600020016000909192909190915055505b8080600101915050613670565b50601b80548060200260200160405190810160405280929190818152602001828054801561373757602002820191906000526020600020905b815481526020019060010190808311613723575b505050505091505090565b60008061376e60018481548110151561375757fe5b906000526020600020906007020160020154614b05565b905080156138445760018381548110151561378557fe5b90600052602060002090600702016004016000815480929190600101919050555060006137d96000600133308860018a8154811015156137c157fe5b90600052602060002090600702016002015442613b7a565b90507f82819c0188b934397683935664e911078968eee7be8134d9027bbcbbb807bab38460018681548110151561380c57fe5b906000526020600020906007020160020154604051808381526020018281526020019250505060405180910390a18092505050613849565b600080fd5b919050565b6000809054906101000a900473ffffffffffffffffffffffffffffffffffffffff1673ffffffffffffffffffffffffffffffffffffffff163373ffffffffffffffffffffffffffffffffffffffff16141515613912576040517f08c379a00000000000000000000000000000000000000000000000000000000081526004018080602001828103825260098152602001807f4e6f74204f776e6572000000000000000000000000000000000000000000000081525060200191505060405180910390fd5b600073ffffffffffffffffffffffffffffffffffffffff168173ffffffffffffffffffffffffffffffffffffffff16141515156139b7576040517f08c379a00000000000000000000000000000000000000000000000000000000081526004018080602001828103825260078152602001807f5761726e696e670000000000000000000000000000000000000000000000000081525060200191505060405180910390fd5b806000806101000a81548173ffffffffffffffffffffffffffffffffffffffff021916908373ffffffffffffffffffffffffffffffffffffffff16021790555050565b6000613a04614cda565b60a060405190810160405280888152602001878152602001868152602001858152602001841515815250905060006001600383908060018154018082558091505090600182039060005260206000209060050201600090919290919091506000820151816000015560208201518160010155604082015181600201556060820151816003015560808201518160040160006101000a81548160ff0219169083151502179055505050039050336007600083815260200190815260200160002060006101000a81548173ffffffffffffffffffffffffffffffffffffffff021916908373ffffffffffffffffffffffffffffffffffffffff1602179055507fdc79878c7751be2913fa8baed72a599dd9024b1f3e4e03f25cb24f783eb833fc8133604051808381526020018273ffffffffffffffffffffffffffffffffffffffff1673ffffffffffffffffffffffffffffffffffffffff1681526020019250505060405180910390a1809250505095945050505050565b6000613b84614d0c565b60e0604051908101604052808a6002811115613b9c57fe5b8152602001896005811115613bad57fe5b81526020018873ffffffffffffffffffffffffffffffffffffffff1681526020018773ffffffffffffffffffffffffffffffffffffffff168152602001868152602001858152602001848152509050600060016002839080600181540180825580915050906001820390600052602060002090600502016000909192909190915060008201518160000160006101000a81548160ff02191690836002811115613c5257fe5b021790555060208201518160000160016101000a81548160ff02191690836005811115613c7b57fe5b021790555060408201518160000160026101000a81548173ffffffffffffffffffffffffffffffffffffffff021916908373ffffffffffffffffffffffffffffffffffffffff16021790555060608201518160010160006101000a81548173ffffffffffffffffffffffffffffffffffffffff021916908373ffffffffffffffffffffffffffffffffffffffff1602179055506080820151816002015560a0820151816003015560c082015181600401555050039050336006600083815260200190815260200160002060006101000a81548173ffffffffffffffffffffffffffffffffffffffff021916908373ffffffffffffffffffffffffffffffffffffffff160217905550600960003373ffffffffffffffffffffffffffffffffffffffff1673ffffffffffffffffffffffffffffffffffffffff16815260200190815260200160002081908060018154018082558091505090600182039060005260206000200160009091929091909150555060006002811115613df957fe5b8a6002811115613e0557fe5b14156140d95760006005811115613e1857fe5b896005811115613e2457fe5b1415613e9857600a60003373ffffffffffffffffffffffffffffffffffffffff1673ffffffffffffffffffffffffffffffffffffffff1681526020019081526020016000208190806001815401808255809150509060018203906000526020600020016000909192909190915055506140d4565b60016005811115613ea557fe5b896005811115613eb157fe5b1415613f2557600b60003373ffffffffffffffffffffffffffffffffffffffff1673ffffffffffffffffffffffffffffffffffffffff1681526020019081526020016000208190806001815401808255809150509060018203906000526020600020016000909192909190915055506140d3565b60036005811115613f3257fe5b896005811115613f3e57fe5b1415613fb257600c60003373ffffffffffffffffffffffffffffffffffffffff1673ffffffffffffffffffffffffffffffffffffffff1681526020019081526020016000208190806001815401808255809150509060018203906000526020600020016000909192909190915055506140d2565b60046005811115613fbf57fe5b896005811115613fcb57fe5b141561403f57600d60003373ffffffffffffffffffffffffffffffffffffffff1673ffffffffffffffffffffffffffffffffffffffff1681526020019081526020016000208190806001815401808255809150509060018203906000526020600020016000909192909190915055506140d1565b60058081111561404b57fe5b89600581111561405757fe5b14156140cb57600e60003373ffffffffffffffffffffffffffffffffffffffff1673ffffffffffffffffffffffffffffffffffffffff1681526020019081526020016000208190806001815401808255809150509060018203906000526020600020016000909192909190915055506140d0565b600080fd5b5b5b5b5b614367565b600160028111156140e657fe5b8a60028111156140f257fe5b141561421d576000600581111561410557fe5b89600581111561411157fe5b141561418557600f60003373ffffffffffffffffffffffffffffffffffffffff1673ffffffffffffffffffffffffffffffffffffffff168152602001908152602001600020819080600181540180825580915050906001820390600052602060002001600090919290919091505550614218565b6002600581111561419257fe5b89600581111561419e57fe5b141561421257601060003373ffffffffffffffffffffffffffffffffffffffff1673ffffffffffffffffffffffffffffffffffffffff168152602001908152602001600020819080600181540180825580915050906001820390600052602060002001600090919290919091505550614217565b600080fd5b5b614366565b60028081111561422957fe5b8a600281111561423557fe5b1415614360576003600581111561424857fe5b89600581111561425457fe5b14156142c857601160003373ffffffffffffffffffffffffffffffffffffffff1673ffffffffffffffffffffffffffffffffffffffff16815260200190815260200160002081908060018154018082558091505090600182039060005260206000200160009091929091909150555061435b565b600460058111156142d557fe5b8960058111156142e157fe5b141561435557601260003373ffffffffffffffffffffffffffffffffffffffff1673ffffffffffffffffffffffffffffffffffffffff16815260200190815260200160002081908060018154018082558091505090600182039060005260206000200160009091929091909150555061435a565b600080fd5b5b614365565b600080fd5b5b5b7f648ea8614c7f2c919bde3b01694291faae3d403522f45d971755f2ac0e2faa598133604051808381526020018273ffffffffffffffffffffffffffffffffffffffff1673ffffffffffffffffffffffffffffffffffffffff1681526020019250505060405180910390a18092505050979650505050505050565b6143ec8282614b1b565b5050565b600082821115151561440157600080fd5b600082840390508091505092915050565b600073ffffffffffffffffffffffffffffffffffffffff168273ffffffffffffffffffffffffffffffffffffffff16141515156144b7576040517f08c379a000000000000000000000000000000000000000000000000000000000815260040180806020018281038252600f8152602001807f6275726e2061646472657373212121000000000000000000000000000000000081525060200191505060405180910390fd5b61450981601560008673ffffffffffffffffffffffffffffffffffffffff1673ffffffffffffffffffffffffffffffffffffffff168152602001908152602001600020546143f090919063ffffffff16565b601560008573ffffffffffffffffffffffffffffffffffffffff1673ffffffffffffffffffffffffffffffffffffffff1681526020019081526020016000208190555061459e81601560008573ffffffffffffffffffffffffffffffffffffffff1673ffffffffffffffffffffffffffffffffffffffff168152602001908152602001600020546148fa90919063ffffffff16565b601560008473ffffffffffffffffffffffffffffffffffffffff1673ffffffffffffffffffffffffffffffffffffffff1681526020019081526020016000208190555061463381601460008673ffffffffffffffffffffffffffffffffffffffff1673ffffffffffffffffffffffffffffffffffffffff168152602001908152602001600020546148fa90919063ffffffff16565b601460008573ffffffffffffffffffffffffffffffffffffffff1673ffffffffffffffffffffffffffffffffffffffff168152602001908152602001600020819055508173ffffffffffffffffffffffffffffffffffffffff168373ffffffffffffffffffffffffffffffffffffffff167fddf252ad1be2c89b69c2b068fc378daa952ba7f163c4a11628f55a4df523b3ef836040518082815260200191505060405180910390a3505050565b60006146ed333084614412565b60019050919050565b6000614724306000809054906101000a900473ffffffffffffffffffffffffffffffffffffffff1684614412565b60019050919050565b6000614737614c8f565b610100604051908101604052808b81526020018a81526020018981526020018881526020018781526020018681526020018560ff168152602001841515815250905060006001808390806001815401808255809150509060018203906000526020600020906007020160009091929091909150600082015181600001556020820151816001015560408201518160020155606082015181600301556080820151816004015560a0820151816005015560c08201518160060160006101000a81548160ff021916908360ff16021790555060e08201518160060160016101000a81548160ff0219169083151502179055505050039050336005600083815260200190815260200160002060006101000a81548173ffffffffffffffffffffffffffffffffffffffff021916908373ffffffffffffffffffffffffffffffffffffffff1602179055507fecc279af01ecc1616810552807a41a6dcbad8eb3a91a33626b2d35c9dfd5c2d58133604051808381526020018273ffffffffffffffffffffffffffffffffffffffff1673ffffffffffffffffffffffffffffffffffffffff1681526020019250505060405180910390a1809250505098975050505050505050565b600080828401905083811015151561491157600080fd5b8091505092915050565b600073ffffffffffffffffffffffffffffffffffffffff168273ffffffffffffffffffffffffffffffffffffffff161415151561495757600080fd5b61496c816017546148fa90919063ffffffff16565b6017819055506149c481601560008573ffffffffffffffffffffffffffffffffffffffff1673ffffffffffffffffffffffffffffffffffffffff168152602001908152602001600020546148fa90919063ffffffff16565b601560008473ffffffffffffffffffffffffffffffffffffffff1673ffffffffffffffffffffffffffffffffffffffff168152602001908152602001600020819055508173ffffffffffffffffffffffffffffffffffffffff16600073ffffffffffffffffffffffffffffffffffffffff167fddf252ad1be2c89b69c2b068fc378daa952ba7f163c4a11628f55a4df523b3ef836040518082815260200191505060405180910390a35050565b60008073ffffffffffffffffffffffffffffffffffffffff168273ffffffffffffffffffffffffffffffffffffffff1614151515614aae57600080fd5b8260000160008373ffffffffffffffffffffffffffffffffffffffff1673ffffffffffffffffffffffffffffffffffffffff16815260200190815260200160002060009054906101000a900460ff16905092915050565b6000614b12303384614412565b60019050919050565b614b408160136000858152602001908152602001600020614b9290919063ffffffff16565b8073ffffffffffffffffffffffffffffffffffffffff167fd28f937e71e8a89ddbefb8937335b2ae03fb74ce63dd6a6f316724c5a7e6c3dc836040518082815260200191505060405180910390a25050565b600073ffffffffffffffffffffffffffffffffffffffff168173ffffffffffffffffffffffffffffffffffffffff1614151515614bce57600080fd5b614bd88282614a71565b151515614be457600080fd5b60018260000160008373ffffffffffffffffffffffffffffffffffffffff1673ffffffffffffffffffffffffffffffffffffffff16815260200190815260200160002060006101000a81548160ff0219169083151502179055505050565b828054828255906000526020600020908101928215614c7e579160200282015b82811115614c7d578251825591602001919060010190614c62565b5b509050614c8b9190614d8c565b5090565b61010060405190810160405280600081526020016000815260200160008152602001600081526020016000815260200160008152602001600060ff1681526020016000151581525090565b60a060405190810160405280600081526020016000815260200160008152602001600081526020016000151581525090565b60e06040519081016040528060006002811115614d2557fe5b815260200160006005811115614d3757fe5b8152602001600073ffffffffffffffffffffffffffffffffffffffff168152602001600073ffffffffffffffffffffffffffffffffffffffff1681526020016000815260200160008152602001600081525090565b614dae91905b80821115614daa576000816000905550600101614d92565b5090565b9056fea165627a7a72305820c5aa47069d0c1f9c8d95e2f0478684469745fb848f3e6c9dbde02f3628a76d9a0029",
  "source": "pragma solidity ^0.5.0;\r\n\r\nimport \"./SurveyFoundation.sol\";\r\n\r\ncontract SurveyCore is SurveyFoundation {\r\n    \r\n    constructor () public {\r\n        paused = false;\r\n        \r\n        developerAddress = msg.sender;\r\n        mint(msg.sender, 1000000000000);\r\n\r\n        // burning survey\r\n        requestSurvey(0, now, 0);\r\n        // burning foundation\r\n        createFoundation(0, 0);\r\n    }\r\n}",
  "sourcePath": "/mnt/c/workspace/inosurvey-ethereum/contracts/SurveyCore.sol",
  "compiler": {
    "name": "solc",
    "version": "0.5.0+commit.1d4f565a.Emscripten.clang"
  },
  "schemaVersion": "3.0.2",
  "updatedAt": "2019-05-06T10:09:31.725Z",
  "devdoc": {
    "methods": {
      "getFoundationDonateReceiptList()": {
        "details": "    Index List  () "
      },
      "getFoundationRequestReceiptList()": {
        "details": "     Index List  "
      },
      "getOwnerReceiptList()": {
        "details": "   Index List  "
      },
      "getProductBuyReceiptList()": {
        "details": "     Index List  "
      },
      "getProductSellReceiptList()": {
        "details": "    Index List  "
      },
      "getReceiptDetail(uint256)": {
        "details": "Index    \r",
        "params": {
          "_receiptId": " IndexId\r"
        },
        "return": "ReceiptTitle uint256 enum  . , \rReceiptMethod uint256 enum  , ,  ..\rto address \rfrom address \robjectId uint256  ?\rtotal uint256  \rdate uint256  \r"
      },
      "getSurveyBuyReceiptList()": {
        "details": "    Index List  () "
      },
      "getSurveyRequestDetail(uint256)": {
        "details": "    \r",
        "params": {
          "_surveyId": " Sotrage    \r"
        },
        "return": "A uint256    DB primary key  \r"
      },
      "getSurveyRequestList()": {
        "details": "    \r",
        "return": "A uint256[]    DB primary key  \r"
      },
      "getSurveyRequestReceiptList()": {
        "details": "    Index List  () "
      },
      "getSurveyResponseReceiptList()": {
        "details": "    Index List  () "
      },
      "getSurveySellReceiptList()": {
        "details": "    Index List  () "
      },
      "requestSurvey(uint256,uint256,uint8)": {
        "details": "create Survey(public)\r _CreateProduct() \r          \r    \r   false  \r",
        "params": {
          "_maximumCount": "     .\r",
          "_questionCount": "  .\r",
          "_startedAt": "  .\r"
        },
        "return": "A bool    \r"
      }
    }
  },
  "userdoc": {
    "methods": {
      "allowance(address,address)": {
        "notice": "        "
      },
      "approve(address,uint256)": {
        "notice": "            "
      },
      "balanceOf(address)": {
        "notice": "  "
      },
      "consumeBalanceOf(address)": {
        "notice": "  "
      },
      "decreaseAllowance(address,uint256)": {
        "notice": "     "
      },
      "increaseAllowance(address,uint256)": {
        "notice": "     "
      },
      "isSurveyToBuyer(uint256,address)": {
        "notice": "*  SURVEY ROLE **"
      },
      "totalSupply()": {
        "notice": "  "
      },
      "transfer(address,uint256)": {
        "notice": "     "
      },
      "transferFrom(address,address,uint256)": {
        "notice": " account            "
      }
    }
  }
}