{
  "contractName": "test",
  "abi": [
    {
      "constant": true,
      "inputs": [
        {
          "name": "_surveyId",
          "type": "uint256"
        }
      ],
      "name": "getSurveyRequestDetail",
      "outputs": [
        {
          "name": "",
          "type": "uint256"
        },
        {
          "name": "",
          "type": "uint256"
        },
        {
          "name": "",
          "type": "uint256"
        },
        {
          "name": "",
          "type": "uint256"
        },
        {
          "name": "",
          "type": "uint256"
        },
        {
          "name": "",
          "type": "uint256"
        },
        {
          "name": "",
          "type": "uint8"
        },
        {
          "name": "",
          "type": "bool"
        }
      ],
      "payable": false,
      "stateMutability": "view",
      "type": "function"
    }
  ],
  "bytecode": "0x608060405234801561001057600080fd5b5061023f806100206000396000f3fe608060405260043610610041576000357c0100000000000000000000000000000000000000000000000000000000900463ffffffff1680636b945e7814610046575b600080fd5b34801561005257600080fd5b5061007f6004803603602081101561006957600080fd5b81019080803590602001909291905050506100d0565b604051808981526020018881526020018781526020018681526020018581526020018481526020018360ff1660ff168152602001821515151581526020019850505050505050505060405180910390f35b6000806000806000806000806100e46101c8565b60008a8154811015156100f357fe5b906000526020600020906007020161010060405190810160405290816000820154815260200160018201548152602001600282015481526020016003820154815260200160048201548152602001600582015481526020016006820160009054906101000a900460ff1660ff1660ff1681526020016006820160019054906101000a900460ff1615151515815250509050806000015181602001518260400151836060015184608001518560a001518660c001518760e001519850985098509850985098509850985050919395975091939597565b61010060405190810160405280600081526020016000815260200160008152602001600081526020016000815260200160008152602001600060ff168152602001600015158152509056fea165627a7a7230582017d48ab4134a7950ea39a7fb465abf4480bbc0e70ae4ba7dea7504d5fb8ff9d30029",
  "source": "pragma solidity ^0.5.0;\r\n\r\ncontract test {\r\n    struct Survey {\r\n        uint256 requestPrice;       // 설문 등록 가격\r\n        uint256 sellPrice;          // 설문 판매 가격\r\n        uint256 rewardPrice;        // 설문 보상 가격\r\n        uint256 maximumCount;       // 최대 응답자 수\r\n        uint256 currentCount;       // 현재 응답자 수\r\n        uint256 startedAt;          // 등록 날짜\r\n        uint8   questionCount;      // 질문 개수\r\n        bool    isSell;             // 팔지 말지\r\n        // bytes32 hashData;       // DB 데이터 변조 여부 확인\r\n    }\r\n\r\n    Survey[]        surveys;\r\n    mapping (uint256 => address) surveyIndexToOwner;\r\n\r\n    function _createSurvey(\r\n        uint256 _requestPrice,\r\n        uint256 _sellPrice,\r\n        uint256 _rewardPrice,\r\n        uint256 _maximumCount,\r\n        uint256 _currentCount,\r\n        uint256 _startedAt,\r\n        uint8   _questionCount,\r\n        bool    _isSell\r\n        // bytes32 _hashData\r\n    )\r\n        internal\r\n        returns (uint256)\r\n    {\r\n        Survey memory _survey = Survey({\r\n            requestPrice: _requestPrice,\r\n            sellPrice: _sellPrice,\r\n            rewardPrice: _rewardPrice,\r\n            maximumCount: _maximumCount,\r\n            currentCount: _currentCount,\r\n            startedAt: _startedAt,\r\n            questionCount: _questionCount,\r\n            isSell: _isSell\r\n            //hashData: _hashData\r\n        });\r\n\r\n        uint256 newSurveyId = surveys.push(_survey) - 1;\r\n\r\n        surveyIndexToOwner[newSurveyId] = msg.sender;\r\n\r\n        return newSurveyId;\r\n    }\r\n\r\n    function getSurveyRequestDetail(uint256 _surveyId) \r\n        public\r\n        view\r\n        returns (\r\n            uint256,\r\n            uint256,\r\n            uint256,\r\n            uint256,\r\n            uint256,\r\n            uint256,\r\n            uint8,\r\n            bool\r\n        )\r\n    {\r\n        Survey memory survey = surveys[_surveyId];\r\n        return (\r\n            survey.requestPrice,\r\n            survey.sellPrice,\r\n            survey.rewardPrice,\r\n            survey.maximumCount,\r\n            survey.currentCount,\r\n            survey.startedAt,\r\n            survey.questionCount,\r\n            survey.isSell\r\n        );\r\n    }\r\n}",
  "sourcePath": "/mnt/c/workspace/inosurvey-ethereum/contracts/test.sol",
  "compiler": {
    "name": "solc",
    "version": "0.5.0+commit.1d4f565a.Emscripten.clang"
  },
  "schemaVersion": "3.0.9",
  "updatedAt": "2019-05-12T16:59:35.561Z",
  "devdoc": {
    "methods": {}
  },
  "userdoc": {
    "methods": {}
  }
}